{
  "contractName": "rpsGame",
  "abi": [
    {
      "inputs": [
        {
          "internalType": "address",
          "name": "_devWallet",
          "type": "address"
        },
        {
          "internalType": "address payable",
          "name": "_NFTholders",
          "type": "address"
        },
        {
          "internalType": "contract IRandomNumberVRF",
          "name": "_randomLinkContract",
          "type": "address"
        },
        {
          "internalType": "uint256",
          "name": "_maxDeal",
          "type": "uint256"
        },
        {
          "internalType": "uint256",
          "name": "_minBalanceToPay",
          "type": "uint256"
        }
      ],
      "stateMutability": "nonpayable",
      "type": "constructor"
    },
    {
      "anonymous": false,
      "inputs": [
        {
          "indexed": false,
          "internalType": "address",
          "name": "Sender",
          "type": "address"
        },
        {
          "indexed": false,
          "internalType": "address",
          "name": "oldAddress",
          "type": "address"
        },
        {
          "indexed": false,
          "internalType": "address",
          "name": "newAddress",
          "type": "address"
        }
      ],
      "name": "C_setDevAddress",
      "type": "event"
    },
    {
      "anonymous": false,
      "inputs": [
        {
          "indexed": false,
          "internalType": "address",
          "name": "",
          "type": "address"
        },
        {
          "indexed": false,
          "internalType": "uint256",
          "name": "",
          "type": "uint256"
        }
      ],
      "name": "C_setFeeForDevs",
      "type": "event"
    },
    {
      "anonymous": false,
      "inputs": [
        {
          "indexed": false,
          "internalType": "address",
          "name": "",
          "type": "address"
        },
        {
          "indexed": false,
          "internalType": "uint256",
          "name": "",
          "type": "uint256"
        }
      ],
      "name": "C_setFeeForNFTHolders",
      "type": "event"
    },
    {
      "anonymous": false,
      "inputs": [
        {
          "indexed": false,
          "internalType": "address",
          "name": "",
          "type": "address"
        },
        {
          "indexed": false,
          "internalType": "uint256",
          "name": "",
          "type": "uint256"
        }
      ],
      "name": "C_setMaxDeal",
      "type": "event"
    },
    {
      "anonymous": false,
      "inputs": [
        {
          "indexed": false,
          "internalType": "address",
          "name": "Sender",
          "type": "address"
        },
        {
          "indexed": false,
          "internalType": "address",
          "name": "oldAddress",
          "type": "address"
        },
        {
          "indexed": false,
          "internalType": "contract IstakingNFT",
          "name": "",
          "type": "address"
        }
      ],
      "name": "C_setNFTHoldersAddress",
      "type": "event"
    },
    {
      "anonymous": false,
      "inputs": [
        {
          "indexed": false,
          "internalType": "address",
          "name": "",
          "type": "address"
        },
        {
          "indexed": false,
          "internalType": "uint256",
          "name": "",
          "type": "uint256"
        }
      ],
      "name": "FoundsIn",
      "type": "event"
    },
    {
      "anonymous": false,
      "inputs": [
        {
          "indexed": false,
          "internalType": "address",
          "name": "",
          "type": "address"
        },
        {
          "indexed": false,
          "internalType": "uint256",
          "name": "",
          "type": "uint256"
        },
        {
          "indexed": false,
          "internalType": "address",
          "name": "",
          "type": "address"
        }
      ],
      "name": "FoundsOut",
      "type": "event"
    },
    {
      "anonymous": false,
      "inputs": [
        {
          "indexed": true,
          "internalType": "address",
          "name": "previousOwner",
          "type": "address"
        },
        {
          "indexed": true,
          "internalType": "address",
          "name": "newOwner",
          "type": "address"
        }
      ],
      "name": "OwnershipTransferred",
      "type": "event"
    },
    {
      "anonymous": false,
      "inputs": [
        {
          "indexed": false,
          "internalType": "address",
          "name": "user",
          "type": "address"
        },
        {
          "indexed": false,
          "internalType": "uint256",
          "name": "bid",
          "type": "uint256"
        },
        {
          "indexed": false,
          "internalType": "uint256",
          "name": "racha",
          "type": "uint256"
        },
        {
          "indexed": false,
          "internalType": "bool",
          "name": "result",
          "type": "bool"
        },
        {
          "indexed": false,
          "internalType": "uint256",
          "name": "random",
          "type": "uint256"
        },
        {
          "indexed": false,
          "internalType": "bool",
          "name": "debt",
          "type": "bool"
        }
      ],
      "name": "Play",
      "type": "event"
    },
    {
      "inputs": [
        {
          "internalType": "address",
          "name": "",
          "type": "address"
        }
      ],
      "name": "debtPerUser",
      "outputs": [
        {
          "internalType": "uint256",
          "name": "",
          "type": "uint256"
        }
      ],
      "stateMutability": "view",
      "type": "function"
    },
    {
      "inputs": [],
      "name": "feeForDevs",
      "outputs": [
        {
          "internalType": "uint256",
          "name": "",
          "type": "uint256"
        }
      ],
      "stateMutability": "view",
      "type": "function"
    },
    {
      "inputs": [],
      "name": "feeForNFTHolders",
      "outputs": [
        {
          "internalType": "uint256",
          "name": "",
          "type": "uint256"
        }
      ],
      "stateMutability": "view",
      "type": "function"
    },
    {
      "inputs": [],
      "name": "onOff",
      "outputs": [
        {
          "internalType": "bool",
          "name": "",
          "type": "bool"
        }
      ],
      "stateMutability": "view",
      "type": "function"
    },
    {
      "inputs": [],
      "name": "owner",
      "outputs": [
        {
          "internalType": "address",
          "name": "",
          "type": "address"
        }
      ],
      "stateMutability": "view",
      "type": "function"
    },
    {
      "inputs": [],
      "name": "renounceOwnership",
      "outputs": [],
      "stateMutability": "nonpayable",
      "type": "function"
    },
    {
      "inputs": [],
      "name": "totalDebt",
      "outputs": [
        {
          "internalType": "uint256",
          "name": "",
          "type": "uint256"
        }
      ],
      "stateMutability": "view",
      "type": "function"
    },
    {
      "inputs": [],
      "name": "totalLoses",
      "outputs": [
        {
          "internalType": "uint256",
          "name": "",
          "type": "uint256"
        }
      ],
      "stateMutability": "view",
      "type": "function"
    },
    {
      "inputs": [],
      "name": "totalWins",
      "outputs": [
        {
          "internalType": "uint256",
          "name": "",
          "type": "uint256"
        }
      ],
      "stateMutability": "view",
      "type": "function"
    },
    {
      "inputs": [
        {
          "internalType": "address",
          "name": "newOwner",
          "type": "address"
        }
      ],
      "name": "transferOwnership",
      "outputs": [],
      "stateMutability": "nonpayable",
      "type": "function"
    },
    {
      "inputs": [
        {
          "internalType": "uint256",
          "name": "_value",
          "type": "uint256"
        }
      ],
      "name": "play",
      "outputs": [
        {
          "internalType": "bool",
          "name": "results",
          "type": "bool"
        }
      ],
      "stateMutability": "payable",
      "type": "function"
    },
    {
      "inputs": [],
      "name": "claimDebt",
      "outputs": [],
      "stateMutability": "nonpayable",
      "type": "function"
    },
    {
      "inputs": [
        {
          "internalType": "uint256",
          "name": "_value",
          "type": "uint256"
        }
      ],
      "name": "calculateFee",
      "outputs": [
        {
          "internalType": "uint256",
          "name": "",
          "type": "uint256"
        }
      ],
      "stateMutability": "view",
      "type": "function"
    },
    {
      "inputs": [
        {
          "internalType": "uint256",
          "name": "_value",
          "type": "uint256"
        }
      ],
      "name": "calculateValue",
      "outputs": [
        {
          "internalType": "uint256",
          "name": "",
          "type": "uint256"
        }
      ],
      "stateMutability": "view",
      "type": "function"
    },
    {
      "inputs": [
        {
          "internalType": "address",
          "name": "_address",
          "type": "address"
        }
      ],
      "name": "viewTimeProtected",
      "outputs": [
        {
          "internalType": "uint256",
          "name": "",
          "type": "uint256"
        }
      ],
      "stateMutability": "view",
      "type": "function"
    },
    {
      "inputs": [],
      "name": "trasnferFoundsIN",
      "outputs": [
        {
          "internalType": "bool",
          "name": "",
          "type": "bool"
        }
      ],
      "stateMutability": "payable",
      "type": "function"
    },
    {
      "inputs": [
        {
          "internalType": "address payable",
          "name": "_newNFTholders",
          "type": "address"
        }
      ],
      "name": "setNFTHoldersAddress",
      "outputs": [],
      "stateMutability": "nonpayable",
      "type": "function"
    },
    {
      "inputs": [
        {
          "internalType": "address",
          "name": "_newDevWalletFees",
          "type": "address"
        }
      ],
      "name": "setDevAddress",
      "outputs": [],
      "stateMutability": "nonpayable",
      "type": "function"
    },
    {
      "inputs": [
        {
          "internalType": "uint256",
          "name": "_newFeeForNFTHolders",
          "type": "uint256"
        }
      ],
      "name": "setFeeForNFTHolders",
      "outputs": [],
      "stateMutability": "nonpayable",
      "type": "function"
    },
    {
      "inputs": [
        {
          "internalType": "uint256",
          "name": "_newFeeForDevs",
          "type": "uint256"
        }
      ],
      "name": "setFeeForDevs",
      "outputs": [],
      "stateMutability": "nonpayable",
      "type": "function"
    },
    {
      "inputs": [
        {
          "internalType": "uint256",
          "name": "_newMaxDeal",
          "type": "uint256"
        }
      ],
      "name": "setMaxDeal",
      "outputs": [],
      "stateMutability": "nonpayable",
      "type": "function"
    },
    {
      "inputs": [
        {
          "internalType": "uint256",
          "name": "_minBalance",
          "type": "uint256"
        }
      ],
      "name": "setMinBalanceToPay",
      "outputs": [],
      "stateMutability": "nonpayable",
      "type": "function"
    },
    {
      "inputs": [
        {
          "internalType": "uint256",
          "name": "_NewprotectedTime",
          "type": "uint256"
        }
      ],
      "name": "setProtectedTime",
      "outputs": [],
      "stateMutability": "nonpayable",
      "type": "function"
    },
    {
      "inputs": [
        {
          "internalType": "bool",
          "name": "_bool",
          "type": "bool"
        }
      ],
      "name": "pause",
      "outputs": [],
      "stateMutability": "nonpayable",
      "type": "function"
    },
    {
      "inputs": [
        {
          "internalType": "uint256",
          "name": "_amount",
          "type": "uint256"
        },
        {
          "internalType": "address",
          "name": "_to",
          "type": "address"
        }
      ],
      "name": "trasnferFoundsOUT",
      "outputs": [],
      "stateMutability": "payable",
      "type": "function"
    },
    {
      "inputs": [],
      "name": "timeBlock",
      "outputs": [
        {
          "internalType": "uint256",
          "name": "",
          "type": "uint256"
        }
      ],
      "stateMutability": "view",
      "type": "function"
    }
  ],
  "bytecode": "0x608060405260fa60045560646005556001600660006101000a81548160ff0219169083151502179055506005546004546200003b919062000358565b6007556003600a553480156200005057600080fd5b5060405162002a7138038062002a718339818101604052810190620000769190620002d6565b620000a862000093620001ae640100000000026401000000009004565b620001b6640100000000026401000000009004565b83600260006101000a81548173ffffffffffffffffffffffffffffffffffffffff021916908373ffffffffffffffffffffffffffffffffffffffff16021790555084600360006101000a81548173ffffffffffffffffffffffffffffffffffffffff021916908373ffffffffffffffffffffffffffffffffffffffff16021790555082600160006101000a81548173ffffffffffffffffffffffffffffffffffffffff021916908373ffffffffffffffffffffffffffffffffffffffff160217905550670de0b6b3a764000082620001819190620003b5565b600881905550670de0b6b3a7640000816200019d9190620003b5565b600981905550505050505062000513565b600033905090565b60008060009054906101000a900473ffffffffffffffffffffffffffffffffffffffff169050816000806101000a81548173ffffffffffffffffffffffffffffffffffffffff021916908373ffffffffffffffffffffffffffffffffffffffff1602179055508173ffffffffffffffffffffffffffffffffffffffff168173ffffffffffffffffffffffffffffffffffffffff167f8be0079c531659141344cd1fd0a4f28419497f9722a3daafe3b4186f6b6457e060405160405180910390a35050565b6000815190506200028b81620004ab565b92915050565b600081519050620002a281620004c5565b92915050565b600081519050620002b981620004df565b92915050565b600081519050620002d081620004f9565b92915050565b600080600080600060a08688031215620002ef57600080fd5b6000620002ff888289016200027a565b9550506020620003128882890162000291565b94505060406200032588828901620002a8565b93505060606200033888828901620002bf565b92505060806200034b88828901620002bf565b9150509295509295909350565b6000620003658262000472565b9150620003728362000472565b9250827fffffffffffffffffffffffffffffffffffffffffffffffffffffffffffffffff03821115620003aa57620003a96200047c565b5b828201905092915050565b6000620003c28262000472565b9150620003cf8362000472565b9250817fffffffffffffffffffffffffffffffffffffffffffffffffffffffffffffffff04831182151516156200040b576200040a6200047c565b5b828202905092915050565b6000620004238262000452565b9050919050565b6000620004378262000452565b9050919050565b60006200044b8262000416565b9050919050565b600073ffffffffffffffffffffffffffffffffffffffff82169050919050565b6000819050919050565b7f4e487b7100000000000000000000000000000000000000000000000000000000600052601160045260246000fd5b620004b68162000416565b8114620004c257600080fd5b50565b620004d0816200042a565b8114620004dc57600080fd5b50565b620004ea816200043e565b8114620004f657600080fd5b50565b620005048162000472565b81146200051057600080fd5b50565b61254e80620005236000396000f3fe60806040526004361061019e576000357c01000000000000000000000000000000000000000000000000000000009004806399a5d747116100ee578063d0d41fe1116100a7578063f2fde38b11610081578063f2fde38b1461056f578063f9d7cec714610598578063fc7b9c18146105af578063fccc498c146105da5761019e565b8063d0d41fe1146104f4578063dd65856f1461051d578063ebf474c4146105465761019e565b806399a5d747146103f15780639ddc4e671461042e578063a423542214610459578063ae750fb014610475578063c123a4e8146104a0578063d03322e3146104c95761019e565b80636898f82b1161015b578063850df61c11610135578063850df61c146103235780638da5cb5b1461034c5780638f0cd1c61461037757806391c75a2e146103b45761019e565b80636898f82b146102b1578063715018a6146102e1578063777ac349146102f85761019e565b806302329a29146101a357806302c355a1146101cc5780630b8171fe146101f75780631414d3701461023457806318ec4dbd1461025d5780632bd5fa3f14610288575b600080fd5b3480156101af57600080fd5b506101ca60048036038101906101c59190611e21565b6105f8565b005b3480156101d857600080fd5b506101e1610691565b6040516101ee9190612256565b60405180910390f35b34801561020357600080fd5b5061021e60048036038101906102199190611dcf565b610697565b60405161022b9190612256565b60405180910390f35b34801561024057600080fd5b5061025b60048036038101906102569190611e4a565b6106e0565b005b34801561026957600080fd5b50610272610766565b60405161027f9190612256565b60405180910390f35b34801561029457600080fd5b506102af60048036038101906102aa9190611e4a565b61076c565b005b6102cb60048036038101906102c69190611e4a565b6107f2565b6040516102d891906121bb565b60405180910390f35b3480156102ed57600080fd5b506102f66110cf565b005b34801561030457600080fd5b5061030d611157565b60405161031a9190612256565b60405180910390f35b34801561032f57600080fd5b5061034a60048036038101906103459190611df8565b61115d565b005b34801561035857600080fd5b50610361611280565b60405161036e919061203a565b60405180910390f35b34801561038357600080fd5b5061039e60048036038101906103999190611dcf565b6112a9565b6040516103ab9190612256565b60405180910390f35b3480156103c057600080fd5b506103db60048036038101906103d69190611e4a565b6112c1565b6040516103e89190612256565b60405180910390f35b3480156103fd57600080fd5b5061041860048036038101906104139190611e4a565b6112e3565b6040516104259190612256565b60405180910390f35b34801561043a57600080fd5b5061044361130c565b60405161045091906121bb565b60405180910390f35b610473600480360381019061046e9190611e9c565b61131f565b005b34801561048157600080fd5b5061048a61143c565b6040516104979190612256565b60405180910390f35b3480156104ac57600080fd5b506104c760048036038101906104c29190611e4a565b611444565b005b3480156104d557600080fd5b506104de611534565b6040516104eb9190612256565b60405180910390f35b34801561050057600080fd5b5061051b60048036038101906105169190611dcf565b61153a565b005b34801561052957600080fd5b50610544600480360381019061053f9190611e4a565b61167f565b005b34801561055257600080fd5b5061056d60048036038101906105689190611e4a565b61176f565b005b34801561057b57600080fd5b5061059660048036038101906105919190611dcf565b61185d565b005b3480156105a457600080fd5b506105ad611955565b005b3480156105bb57600080fd5b506105c4611b19565b6040516105d19190612256565b60405180910390f35b6105e2611b1f565b6040516105ef91906121bb565b60405180910390f35b610600611b6e565b73ffffffffffffffffffffffffffffffffffffffff1661061e611280565b73ffffffffffffffffffffffffffffffffffffffff1614610674576040517f08c379a000000000000000000000000000000000000000000000000000000000815260040161066b90612216565b60405180910390fd5b80600660006101000a81548160ff02191690831515021790555050565b60045481565b6000601160008373ffffffffffffffffffffffffffffffffffffffff1673ffffffffffffffffffffffffffffffffffffffff168152602001908152602001600020549050919050565b6106e8611b6e565b73ffffffffffffffffffffffffffffffffffffffff16610706611280565b73ffffffffffffffffffffffffffffffffffffffff161461075c576040517f08c379a000000000000000000000000000000000000000000000000000000000815260040161075390612216565b60405180910390fd5b8060098190555050565b60055481565b610774611b6e565b73ffffffffffffffffffffffffffffffffffffffff16610792611280565b73ffffffffffffffffffffffffffffffffffffffff16146107e8576040517f08c379a00000000000000000000000000000000000000000000000000000000081526004016107df90612216565b60405180910390fd5b80600a8190555050565b600060011515600660009054906101000a900460ff1615151461084a576040517f08c379a0000000000000000000000000000000000000000000000000000000008152600401610841906121f6565b60405180910390fd5b42600a54601160003373ffffffffffffffffffffffffffffffffffffffff1673ffffffffffffffffffffffffffffffffffffffff168152602001908152602001600020546108989190612282565b106108a257600080fd5b60006108ad836112e3565b9050806008546108bd9190612282565b3411156108c957600080fd5b600034116108d657600080fd5b3481846108e39190612282565b146108ed57600080fd5b42601160003373ffffffffffffffffffffffffffffffffffffffff1673ffffffffffffffffffffffffffffffffffffffff16815260200190815260200160002081905550600360009054906101000a900473ffffffffffffffffffffffffffffffffffffffff1673ffffffffffffffffffffffffffffffffffffffff166108fc6127106005548661097e9190612309565b61098891906122d8565b9081150290604051600060405180830381858888f193505050501580156109b3573d6000803e3d6000fd5b50600260009054906101000a900473ffffffffffffffffffffffffffffffffffffffff1673ffffffffffffffffffffffffffffffffffffffff1663cd6e1d6961271060045486610a039190612309565b610a0d91906122d8565b6040518263ffffffff167c01000000000000000000000000000000000000000000000000000000000281526004016000604051808303818588803b158015610a5457600080fd5b505af1158015610a68573d6000803e3d6000fd5b50505050506000610a7c3360016064611b76565b9050600060328210610ee457610a9d600286610a989190612309565b611c61565b15610afa573373ffffffffffffffffffffffffffffffffffffffff166108fc600287610ac99190612309565b9081150290604051600060405180830381858888f19350505050158015610af4573d6000803e3d6000fd5b50610bb5565b3373ffffffffffffffffffffffffffffffffffffffff166108fc869081150290604051600060405180830381858888f19350505050158015610b40573d6000803e3d6000fd5b5084600b60003373ffffffffffffffffffffffffffffffffffffffff1673ffffffffffffffffffffffffffffffffffffffff1681526020019081526020016000206000828254610b909190612282565b9250508190555084600c6000828254610ba99190612282565b92505081905550600190505b60019350600d6000815480929190610bcc90612415565b9190505550600f60003373ffffffffffffffffffffffffffffffffffffffff1673ffffffffffffffffffffffffffffffffffffffff168152602001908152602001600020600160028110610c49577f4e487b7100000000000000000000000000000000000000000000000000000000600052603260045260246000fd5b016000815480929190610c5b90612415565b9190505550601060003373ffffffffffffffffffffffffffffffffffffffff1673ffffffffffffffffffffffffffffffffffffffff168152602001908152602001600020600060028110610cd8577f4e487b7100000000000000000000000000000000000000000000000000000000600052603260045260246000fd5b016000815480929190610cea90612415565b9190505550601060003373ffffffffffffffffffffffffffffffffffffffff1673ffffffffffffffffffffffffffffffffffffffff168152602001908152602001600020600160028110610d67577f4e487b7100000000000000000000000000000000000000000000000000000000600052603260045260246000fd5b0154601060003373ffffffffffffffffffffffffffffffffffffffff1673ffffffffffffffffffffffffffffffffffffffff168152602001908152602001600020600060028110610de1577f4e487b7100000000000000000000000000000000000000000000000000000000600052603260045260246000fd5b01541115610edf57601060003373ffffffffffffffffffffffffffffffffffffffff1673ffffffffffffffffffffffffffffffffffffffff168152602001908152602001600020600060028110610e61577f4e487b7100000000000000000000000000000000000000000000000000000000600052603260045260246000fd5b0154601060003373ffffffffffffffffffffffffffffffffffffffff1673ffffffffffffffffffffffffffffffffffffffff168152602001908152602001600020600160028110610edb577f4e487b7100000000000000000000000000000000000000000000000000000000600052603260045260246000fd5b5050505b61100d565b60009350600e6000815480929190610efb90612415565b9190505550600f60003373ffffffffffffffffffffffffffffffffffffffff1673ffffffffffffffffffffffffffffffffffffffff168152602001908152602001600020600060028110610f78577f4e487b7100000000000000000000000000000000000000000000000000000000600052603260045260246000fd5b016000815480929190610f8a90612415565b9190505550601060003373ffffffffffffffffffffffffffffffffffffffff1673ffffffffffffffffffffffffffffffffffffffff168152602001908152602001600020600060028110611007577f4e487b7100000000000000000000000000000000000000000000000000000000600052603260045260246000fd5b01600090555b7f5835f5c8d8b55e623b873bf3aaee3035e333b2a339f9ddf5bbef331f62c082143386601060003373ffffffffffffffffffffffffffffffffffffffff1673ffffffffffffffffffffffffffffffffffffffff1681526020019081526020016000206000600281106110a8577f4e487b7100000000000000000000000000000000000000000000000000000000600052603260045260246000fd5b01548786866040516110bf9695949392919061215a565b60405180910390a1505050919050565b6110d7611b6e565b73ffffffffffffffffffffffffffffffffffffffff166110f5611280565b73ffffffffffffffffffffffffffffffffffffffff161461114b576040517f08c379a000000000000000000000000000000000000000000000000000000000815260040161114290612216565b60405180910390fd5b6111556000611ca2565b565b600d5481565b611165611b6e565b73ffffffffffffffffffffffffffffffffffffffff16611183611280565b73ffffffffffffffffffffffffffffffffffffffff16146111d9576040517f08c379a00000000000000000000000000000000000000000000000000000000081526004016111d090612216565b60405180910390fd5b6000600260009054906101000a900473ffffffffffffffffffffffffffffffffffffffff16905081600260006101000a81548173ffffffffffffffffffffffffffffffffffffffff021916908373ffffffffffffffffffffffffffffffffffffffff1602179055507f0288286f540269cb2cd83c61843ce9b65652da671ec35e3f05ff2e04473264813382846040516112749392919061208c565b60405180910390a15050565b60008060009054906101000a900473ffffffffffffffffffffffffffffffffffffffff16905090565b600b6020528060005260406000206000915090505481565b600080826112ce846112e3565b6112d89190612282565b905080915050919050565b600080612710600754846112f79190612309565b61130191906122d8565b905080915050919050565b600660009054906101000a900460ff1681565b611327611b6e565b73ffffffffffffffffffffffffffffffffffffffff16611345611280565b73ffffffffffffffffffffffffffffffffffffffff161461139b576040517f08c379a000000000000000000000000000000000000000000000000000000000815260040161139290612216565b60405180910390fd5b8073ffffffffffffffffffffffffffffffffffffffff166108fc839081150290604051600060405180830381858888f193505050501580156113e1573d6000803e3d6000fd5b506000600660006101000a81548160ff0219169083151502179055507ff1ee1c4bc54d5b55132bb5e0cd34cca6446c070e6823063ee2215af46d860309338383604051611430939291906120ec565b60405180910390a15050565b600042905090565b61144c611b6e565b73ffffffffffffffffffffffffffffffffffffffff1661146a611280565b73ffffffffffffffffffffffffffffffffffffffff16146114c0576040517f08c379a00000000000000000000000000000000000000000000000000000000081526004016114b790612216565b60405180910390fd5b611388600454826114d19190612282565b106114db57600080fd5b806005819055506005546004546114f29190612282565b6007819055507f682a0a598eda82b63d94238660531b5f4354f011e01de4bbe264147d15c88f3d33826040516115299291906120c3565b60405180910390a150565b600e5481565b611542611b6e565b73ffffffffffffffffffffffffffffffffffffffff16611560611280565b73ffffffffffffffffffffffffffffffffffffffff16146115b6576040517f08c379a00000000000000000000000000000000000000000000000000000000081526004016115ad90612216565b60405180910390fd5b6000600360009054906101000a900473ffffffffffffffffffffffffffffffffffffffff16905081600360006101000a81548173ffffffffffffffffffffffffffffffffffffffff021916908373ffffffffffffffffffffffffffffffffffffffff1602179055507f5dc2ecaded53c2078eb3c47ae02e80b1269feb2cfbd165cf17594ec74ed395953382600360009054906101000a900473ffffffffffffffffffffffffffffffffffffffff1660405161167393929190612055565b60405180910390a15050565b611687611b6e565b73ffffffffffffffffffffffffffffffffffffffff166116a5611280565b73ffffffffffffffffffffffffffffffffffffffff16146116fb576040517f08c379a00000000000000000000000000000000000000000000000000000000081526004016116f290612216565b60405180910390fd5b6107d08160055461170c9190612282565b1061171657600080fd5b8060048190555060055460045461172d9190612282565b6007819055507f8993daa8321242f8b723f60a1f7eed3ff1c048bd7ef8576298c5804d18c8881e33826040516117649291906120c3565b60405180910390a150565b611777611b6e565b73ffffffffffffffffffffffffffffffffffffffff16611795611280565b73ffffffffffffffffffffffffffffffffffffffff16146117eb576040517f08c379a00000000000000000000000000000000000000000000000000000000081526004016117e290612216565b60405180910390fd5b600a3073ffffffffffffffffffffffffffffffffffffffff163161180f91906122d8565b811161181a57600080fd5b806008819055507fe29e9e7c2e68bdb2ec5a03d948d34427c92ba3bc74c2c648f24d711735e21dbf33826040516118529291906120c3565b60405180910390a150565b611865611b6e565b73ffffffffffffffffffffffffffffffffffffffff16611883611280565b73ffffffffffffffffffffffffffffffffffffffff16146118d9576040517f08c379a00000000000000000000000000000000000000000000000000000000081526004016118d090612216565b60405180910390fd5b600073ffffffffffffffffffffffffffffffffffffffff168173ffffffffffffffffffffffffffffffffffffffff161415611949576040517f08c379a0000000000000000000000000000000000000000000000000000000008152600401611940906121d6565b60405180910390fd5b61195281611ca2565b50565b600115156119a1600b60003373ffffffffffffffffffffffffffffffffffffffff1673ffffffffffffffffffffffffffffffffffffffff16815260200190815260200160002054611c61565b1515146119ad57600080fd5b6000600b60003373ffffffffffffffffffffffffffffffffffffffff1673ffffffffffffffffffffffffffffffffffffffff1681526020019081526020016000205411611a2f576040517f08c379a0000000000000000000000000000000000000000000000000000000008152600401611a2690612236565b60405180910390fd5b6000600b60003373ffffffffffffffffffffffffffffffffffffffff1673ffffffffffffffffffffffffffffffffffffffff16815260200190815260200160002054905080600c6000828254611a859190612363565b92505081905550600b60003373ffffffffffffffffffffffffffffffffffffffff1673ffffffffffffffffffffffffffffffffffffffff168152602001908152602001600020600090553373ffffffffffffffffffffffffffffffffffffffff166108fc829081150290604051600060405180830381858888f19350505050158015611b15573d6000803e3d6000fd5b5050565b600c5481565b6000600a3411611b2e57600080fd5b7f32e1506610277dcd933fd614100b1921382d6bb9de6391a810ee45ac6420909e3334604051611b5f9291906120c3565b60405180910390a16001905090565b600033905090565b600080600160009054906101000a900473ffffffffffffffffffffffffffffffffffffffff1673ffffffffffffffffffffffffffffffffffffffff1663539f8eb38686866040518463ffffffff167c0100000000000000000000000000000000000000000000000000000000028152600401611bf493929190612123565b602060405180830381600087803b158015611c0e57600080fd5b505af1158015611c22573d6000803e3d6000fd5b505050506040513d601f19601f82011682018060405250810190611c469190611e73565b90506000811415611c5657600190505b809150509392505050565b6000600954823073ffffffffffffffffffffffffffffffffffffffff1631611c899190612282565b1115611c985760019050611c9d565b600090505b919050565b60008060009054906101000a900473ffffffffffffffffffffffffffffffffffffffff169050816000806101000a81548173ffffffffffffffffffffffffffffffffffffffff021916908373ffffffffffffffffffffffffffffffffffffffff1602179055508173ffffffffffffffffffffffffffffffffffffffff168173ffffffffffffffffffffffffffffffffffffffff167f8be0079c531659141344cd1fd0a4f28419497f9722a3daafe3b4186f6b6457e060405160405180910390a35050565b600081359050611d75816124bc565b92915050565b600081359050611d8a816124d3565b92915050565b600081359050611d9f816124ea565b92915050565b600081359050611db481612501565b92915050565b600081519050611dc981612501565b92915050565b600060208284031215611de157600080fd5b6000611def84828501611d66565b91505092915050565b600060208284031215611e0a57600080fd5b6000611e1884828501611d7b565b91505092915050565b600060208284031215611e3357600080fd5b6000611e4184828501611d90565b91505092915050565b600060208284031215611e5c57600080fd5b6000611e6a84828501611da5565b91505092915050565b600060208284031215611e8557600080fd5b6000611e9384828501611dba565b91505092915050565b60008060408385031215611eaf57600080fd5b6000611ebd85828601611da5565b9250506020611ece85828601611d66565b9150509250929050565b611ee181612397565b82525050565b611ef0816123bb565b82525050565b611eff816123f1565b82525050565b6000611f12602683612271565b91507f4f776e61626c653a206e6577206f776e657220697320746865207a65726f206160008301527f64647265737300000000000000000000000000000000000000000000000000006020830152604082019050919050565b6000611f78600d83612271565b91507f506c617920696e207061757365000000000000000000000000000000000000006000830152602082019050919050565b6000611fb8602083612271565b91507f4f776e61626c653a2063616c6c6572206973206e6f7420746865206f776e65726000830152602082019050919050565b6000611ff8601d83612271565b91507f6e6f207469656e6520666f6e646f73207061726120636c61696d6561720000006000830152602082019050919050565b612034816123e7565b82525050565b600060208201905061204f6000830184611ed8565b92915050565b600060608201905061206a6000830186611ed8565b6120776020830185611ed8565b6120846040830184611ed8565b949350505050565b60006060820190506120a16000830186611ed8565b6120ae6020830185611ed8565b6120bb6040830184611ef6565b949350505050565b60006040820190506120d86000830185611ed8565b6120e5602083018461202b565b9392505050565b60006060820190506121016000830186611ed8565b61210e602083018561202b565b61211b6040830184611ed8565b949350505050565b60006060820190506121386000830186611ed8565b612145602083018561202b565b612152604083018461202b565b949350505050565b600060c08201905061216f6000830189611ed8565b61217c602083018861202b565b612189604083018761202b565b6121966060830186611ee7565b6121a3608083018561202b565b6121b060a0830184611ee7565b979650505050505050565b60006020820190506121d06000830184611ee7565b92915050565b600060208201905081810360008301526121ef81611f05565b9050919050565b6000602082019050818103600083015261220f81611f6b565b9050919050565b6000602082019050818103600083015261222f81611fab565b9050919050565b6000602082019050818103600083015261224f81611feb565b9050919050565b600060208201905061226b600083018461202b565b92915050565b600082825260208201905092915050565b600061228d826123e7565b9150612298836123e7565b9250827fffffffffffffffffffffffffffffffffffffffffffffffffffffffffffffffff038211156122cd576122cc61245e565b5b828201905092915050565b60006122e3826123e7565b91506122ee836123e7565b9250826122fe576122fd61248d565b5b828204905092915050565b6000612314826123e7565b915061231f836123e7565b9250817fffffffffffffffffffffffffffffffffffffffffffffffffffffffffffffffff04831182151516156123585761235761245e565b5b828202905092915050565b600061236e826123e7565b9150612379836123e7565b92508282101561238c5761238b61245e565b5b828203905092915050565b60006123a2826123c7565b9050919050565b60006123b4826123c7565b9050919050565b60008115159050919050565b600073ffffffffffffffffffffffffffffffffffffffff82169050919050565b6000819050919050565b60006123fc82612403565b9050919050565b600061240e826123c7565b9050919050565b6000612420826123e7565b91507fffffffffffffffffffffffffffffffffffffffffffffffffffffffffffffffff8214156124535761245261245e565b5b600182019050919050565b7f4e487b7100000000000000000000000000000000000000000000000000000000600052601160045260246000fd5b7f4e487b7100000000000000000000000000000000000000000000000000000000600052601260045260246000fd5b6124c581612397565b81146124d057600080fd5b50565b6124dc816123a9565b81146124e757600080fd5b50565b6124f3816123bb565b81146124fe57600080fd5b50565b61250a816123e7565b811461251557600080fd5b5056fea2646970667358221220789826a62b29e612647733a54cff55a893a670b282b68856f78ba5ca5914f22264736f6c63430008000033",
  "immutableReferences": {},
  "source": "/**\r\n *Submitted for verification at polygonscan.com on 2022-03-29\r\n*/\r\n\r\n// File: @openzeppelin/contracts/utils/Context.sol\r\n\r\n\r\n// OpenZeppelin Contracts v4.4.1 (utils/Context.sol)\r\n\r\npragma solidity ^0.8.0;\r\n\r\n/**\r\n * @dev Provides information about the current execution context, including the\r\n * sender of the transaction and its data. While these are generally available\r\n * via msg.sender and msg.data, they should not be accessed in such a direct\r\n * manner, since when dealing with meta-transactions the account sending and\r\n * paying for execution may not be the actual sender (as far as an application\r\n * is concerned).\r\n *\r\n * This contract is only required for intermediate, library-like contracts.\r\n */\r\nabstract contract Context {\r\n    function _msgSender() internal view virtual returns (address) {\r\n        return msg.sender;\r\n    }\r\n\r\n    function _msgData() internal view virtual returns (bytes calldata) {\r\n        return msg.data;\r\n    }\r\n}\r\n\r\n// File: @openzeppelin/contracts/access/Ownable.sol\r\n\r\n\r\n// OpenZeppelin Contracts v4.4.1 (access/Ownable.sol)\r\n\r\npragma solidity ^0.8.0;\r\n\r\n\r\n/**\r\n * @dev Contract module which provides a basic access control mechanism, where\r\n * there is an account (an owner) that can be granted exclusive access to\r\n * specific functions.\r\n *\r\n * By default, the owner account will be the one that deploys the contract. This\r\n * can later be changed with {transferOwnership}.\r\n *\r\n * This module is used through inheritance. It will make available the modifier\r\n * `onlyOwner`, which can be applied to your functions to restrict their use to\r\n * the owner.\r\n */\r\nabstract contract Ownable is Context {\r\n    address private _owner;\r\n\r\n    event OwnershipTransferred(address indexed previousOwner, address indexed newOwner);\r\n\r\n    /**\r\n     * @dev Initializes the contract setting the deployer as the initial owner.\r\n     */\r\n    constructor() {\r\n        _transferOwnership(_msgSender());\r\n    }\r\n\r\n    /**\r\n     * @dev Returns the address of the current owner.\r\n     */\r\n    function owner() public view virtual returns (address) {\r\n        return _owner;\r\n    }\r\n\r\n    /**\r\n     * @dev Throws if called by any account other than the owner.\r\n     */\r\n    modifier onlyOwner() {\r\n        require(owner() == _msgSender(), \"Ownable: caller is not the owner\");\r\n        _;\r\n    }\r\n\r\n    /**\r\n     * @dev Leaves the contract without owner. It will not be possible to call\r\n     * `onlyOwner` functions anymore. Can only be called by the current owner.\r\n     *\r\n     * NOTE: Renouncing ownership will leave the contract without an owner,\r\n     * thereby removing any functionality that is only available to the owner.\r\n     */\r\n    function renounceOwnership() public virtual onlyOwner {\r\n        _transferOwnership(address(0));\r\n    }\r\n\r\n    /**\r\n     * @dev Transfers ownership of the contract to a new account (`newOwner`).\r\n     * Can only be called by the current owner.\r\n     */\r\n    function transferOwnership(address newOwner) public virtual onlyOwner {\r\n        require(newOwner != address(0), \"Ownable: new owner is the zero address\");\r\n        _transferOwnership(newOwner);\r\n    }\r\n\r\n    /**\r\n     * @dev Transfers ownership of the contract to a new account (`newOwner`).\r\n     * Internal function without access restriction.\r\n     */\r\n    function _transferOwnership(address newOwner) internal virtual {\r\n        address oldOwner = _owner;\r\n        _owner = newOwner;\r\n        emit OwnershipTransferred(oldOwner, newOwner);\r\n    }\r\n}\r\n\r\n// File: contracts/rpsGame.sol\r\n\r\n//SPDX-License-Identifier: MIT\r\npragma solidity >=0.8.0 <0.9.0;\r\n\r\n\r\ninterface IRandomNumberVRF{\r\n    function getRandomNumber() external returns (bytes32 requestId);\r\n    function getRandomRangeNumber(address _user, uint a, uint b) external returns(uint256);\r\n}\r\ninterface IstakingNFT{\r\n    function newPlay() external payable;\r\n}\r\ncontract rpsGame is Ownable  {    \r\n    //address owner; // Dueo del contrato, maximo rango de acceso (mover fondos de la pool)\r\n    IRandomNumberVRF randomLinkContract; //Direccion de VRF random contract\r\n    //address payable addressStaking;\r\n    IstakingNFT NFTHolders; //Direccion de contrato staking\r\n    address devWalletFees;  //Direccion del fee para los devs\r\n\r\n    uint public feeForNFTHolders = 250; //% del fee para nftHolders (100 = 1%)\r\n    uint public feeForDevs = 100; //Fee para los del equipo de desarrollo\r\n\r\n    bool public onOff = true; // to pause play function\r\n    uint totalFee = feeForNFTHolders + feeForDevs;\r\n    uint maxDeal; //Max Value in Play fuction\r\n    uint minBalanceToPay; // balance minimo que tiene que tener el contrato, para poder pagar.\r\n    uint protectedTime = 3;\r\n    mapping (address => uint) public debtPerUser; //Usado para pagar las deudas.\r\n    uint public totalDebt;\r\n    \r\n    //string[3] RPSop = ['rock','paper', 'scissors']; // 0 = Rock, 1 = paper, 2=scissors\r\n    //for testin gass\r\n    uint public totalWins;\r\n    uint public totalLoses;\r\n    mapping(address => uint[2])  winLosesPerUser;\r\n    mapping(address => uint[2])  winLosesRache;\r\n\r\n    mapping(address => uint)  timeLock; //Tiempo entre partidas para un mismo address\r\n/*\r\n    modifier onlyOwner(){\r\n        require(msg.sender == owner);\r\n        _;\r\n    }\r\n*/\r\n   \r\n//EVENTS\r\n    event Play(address user,uint bid,uint racha,bool result,uint random, bool debt);// User ,apuesta ,racha, result, NumeroAleatoreo\r\n    event C_setNFTHoldersAddress(address Sender,address oldAddress,IstakingNFT); // C_(Change), (Msg.sender,NewAdrres)\r\n    event C_setDevAddress(address Sender,address oldAddress, address newAddress);//Change devWalletFees (msg.sender, NewAddress)\r\n    event C_setFeeForNFTHolders(address,uint);// Change feeForNFTHolders(msg.sender, newValue)\r\n    event C_setFeeForDevs(address,uint);// Change feeFordevs(msg.sender, newValue)\r\n    event C_setMaxDeal(address,uint);// change max value in Play fuction (msg.sender, newMaxValue)\r\n    event FoundsIn(address, uint);//\r\n    event FoundsOut(address,uint,address); // withdraw found of this contract(msg.sender, total, address founds)\r\n    //event OwnershipTransferred(address indexed previousOwner, address indexed newOwner);\r\n\r\n    constructor (        \r\n        address _devWallet, \r\n        address payable _NFTholders,\r\n        IRandomNumberVRF _randomLinkContract,\r\n        uint _maxDeal,\r\n        uint _minBalanceToPay\r\n    ){\r\n        //addressStaking = _NFTholders;\r\n        NFTHolders = IstakingNFT(_NFTholders);\r\n        devWalletFees = _devWallet;\r\n        randomLinkContract = _randomLinkContract;\r\n        maxDeal = _maxDeal * 1 ether;\r\n        minBalanceToPay = _minBalanceToPay * 1 ether;\r\n    }\r\n\r\n//FUNCTIONS FOR USERS\r\n\r\n    //MSG.value = deal + totalFEE%\r\n    function play( uint _value) public payable returns(bool results){\r\n        require(onOff == true, \"Play in pause\");\r\n        require((timeLock[msg.sender] + protectedTime) < block.timestamp );\r\n        uint fee = calculateFee(_value);\r\n        require(msg.value <= (maxDeal + fee));\r\n        require(msg.value > 0);\r\n        require( (_value+fee) == msg.value);\r\n        timeLock[msg.sender] = block.timestamp;\r\n\r\n        payable(devWalletFees).transfer(_value * feeForDevs  / 10000);\r\n        NFTHolders.newPlay{value:(_value * feeForNFTHolders / 10000)}();\r\n\r\n        uint rand = getRandomRangeLink(msg.sender,1,100);\r\n        bool debt = false;\r\n        if(rand >= 50){\r\n            if(checkBalance(_value * 2)){\r\n                payable(msg.sender).transfer(_value * 2);\r\n            }else {\r\n                payable(msg.sender).transfer(_value);\r\n                debtPerUser[msg.sender] += _value;\r\n                totalDebt += _value;\r\n                debt = true;\r\n            }            \r\n            results = true;\r\n            totalWins++;\r\n            winLosesPerUser[msg.sender][1]++;\r\n            winLosesRache[msg.sender][0]++;\r\n            if(winLosesRache[msg.sender][0] > winLosesRache[msg.sender][1]){\r\n                winLosesRache[msg.sender][1] == winLosesRache[msg.sender][0];\r\n            }\r\n            //liquidity.win(msg.sender, _value);\r\n        }else {\r\n            results = false;\r\n            totalLoses++;\r\n            winLosesPerUser[msg.sender][0]++;\r\n            delete winLosesRache[msg.sender][0];            \r\n        }\r\n        \r\n        emit Play(msg.sender,_value,winLosesRache[msg.sender][0],results,rand, debt);\r\n        //leaderBoard(result)\r\n\r\n    }\r\n\r\n    function claimDebt() public {\r\n        require (checkBalance(debtPerUser[msg.sender]) == true);\r\n        require(debtPerUser[msg.sender] > 0, \"no tiene fondos para claimear\" );\r\n        uint toPay = debtPerUser[msg.sender];\r\n        totalDebt -= toPay;\r\n        delete debtPerUser[msg.sender];\r\n        payable(msg.sender).transfer(toPay);\r\n    }\r\n   \r\n//other functions\r\n    function calculateFee(uint _value)public view returns(uint){\r\n        uint txFee = _value * totalFee / 10000;\r\n        return txFee;\r\n    }\r\n\r\n    function calculateValue(uint _value)public view returns(uint){\r\n        uint totalValue = calculateFee(_value) + _value;\r\n        return totalValue;\r\n    }\r\n\r\n    function viewTimeProtected(address _address) public view returns(uint){\r\n        return timeLock[_address];\r\n    }\r\n\r\n    //trasnfiere valor, usao para testeo\r\n    function trasnferFoundsIN()public payable returns(bool){\r\n        require(msg.value > 10);\r\n        emit FoundsIn(msg.sender,msg.value);\r\n        return true;\r\n    }\r\n\r\n//internal\r\n    function getRandomRangeLink(address _user,uint a, uint b) internal returns(uint){\r\n        uint random = randomLinkContract.getRandomRangeNumber(_user,a,b);\r\n        if (random == 0 ) {random = 1;}\r\n        return random;\r\n    }\r\n    \r\n    function checkBalance(uint _value) internal view returns(bool){\r\n        if((address(this).balance) + _value > minBalanceToPay){\r\n            return true;\r\n        }else {\r\n            return false;\r\n        }\r\n    }\r\n\r\n//SETTERS\r\n\r\n    //Cambiar direccion del contrato a donde va el 2% para los que posen nfts\r\n    function setNFTHoldersAddress(address payable _newNFTholders) public onlyOwner{\r\n        IstakingNFT oldNFT = NFTHolders;\r\n        NFTHolders = IstakingNFT(_newNFTholders);\r\n        emit C_setNFTHoldersAddress(msg.sender, address(oldNFT), IstakingNFT(_newNFTholders));\r\n    }\r\n\r\n    //Cambiar la direccion donde va el 1.5%(devFee)\r\n    function setDevAddress(address _newDevWalletFees) public onlyOwner {\r\n        address oldAdd = devWalletFees;\r\n        devWalletFees = _newDevWalletFees;\r\n        emit C_setDevAddress(msg.sender, oldAdd, devWalletFees);\r\n    }\r\n\r\n    //Cambia el % de fee que es destinado a holders\r\n    function setFeeForNFTHolders(uint _newFeeForNFTHolders) public onlyOwner{\r\n        require((feeForDevs + _newFeeForNFTHolders) < 2000);\r\n        feeForNFTHolders = _newFeeForNFTHolders;\r\n        totalFee = feeForNFTHolders + feeForDevs;\r\n        emit C_setFeeForNFTHolders(msg.sender,_newFeeForNFTHolders);\r\n    }\r\n\r\n    //Cambia el % de fee que es destinado a Devs\r\n    function setFeeForDevs(uint _newFeeForDevs) public onlyOwner{\r\n        require((_newFeeForDevs+feeForNFTHolders) < 5000);\r\n        feeForDevs = _newFeeForDevs;\r\n        totalFee = feeForNFTHolders + feeForDevs;\r\n        emit C_setFeeForDevs(msg.sender,_newFeeForDevs);\r\n    }\r\n\r\n    //Cambia el maximo disponible en una misma jugada.\r\n    function setMaxDeal(uint _newMaxDeal) public onlyOwner{\r\n        require(_newMaxDeal > ((address(this).balance)/10));\r\n        maxDeal = _newMaxDeal;\r\n        emit C_setMaxDeal(msg.sender,_newMaxDeal);\r\n    }\r\n\r\n    //min balance in this contract, to pay \r\n    function setMinBalanceToPay(uint _minBalance) public onlyOwner(){\r\n        minBalanceToPay =_minBalance;\r\n    }\r\n\r\n    function setProtectedTime(uint _NewprotectedTime) public onlyOwner(){\r\n        protectedTime = _NewprotectedTime;\r\n    }\r\n\r\n    //funcion que pone en pausa el juego.\r\n    function pause(bool _bool)public onlyOwner{\r\n         onOff = _bool;\r\n    }\r\n\r\n    function trasnferFoundsOUT(uint _amount, address _to) public payable onlyOwner(){\r\n        payable(_to).transfer(_amount);\r\n        onOff = false;\r\n        emit FoundsOut(msg.sender, _amount,_to);\r\n    }\r\n\r\n    function timeBlock() public view returns(uint){\r\n        return block.timestamp;\r\n    }\r\n\r\n}",
  "sourcePath": "/home/guillermo/dapps/rpsProject/blockEnd/contracts/rpsGame.sol",
  "compiler": {
    "name": "solc",
    "version": "0.8.0+commit.c7dfd78e.Emscripten.clang"
  },
  "schemaVersion": "3.4.1",
  "updatedAt": "2022-03-30T19:20:36.904Z",
  "devdoc": {
    "kind": "dev",
    "methods": {
      "owner()": {
        "details": "Returns the address of the current owner."
      },
      "renounceOwnership()": {
        "details": "Leaves the contract without owner. It will not be possible to call `onlyOwner` functions anymore. Can only be called by the current owner. NOTE: Renouncing ownership will leave the contract without an owner, thereby removing any functionality that is only available to the owner."
      },
      "transferOwnership(address)": {
        "details": "Transfers ownership of the contract to a new account (`newOwner`). Can only be called by the current owner."
      }
    },
    "version": 1
  },
  "userdoc": {
    "kind": "user",
    "methods": {},
    "version": 1
  }
}