{
  "contractName": "Random",
  "abi": [
    {
      "inputs": [],
      "stateMutability": "nonpayable",
      "type": "constructor"
    },
    {
      "inputs": [
        {
          "internalType": "string",
          "name": "_randomString",
          "type": "string"
        }
      ],
      "name": "NewSeed",
      "outputs": [
        {
          "internalType": "uint256",
          "name": "",
          "type": "uint256"
        }
      ],
      "stateMutability": "nonpayable",
      "type": "function"
    },
    {
      "inputs": [
        {
          "internalType": "address",
          "name": "_user",
          "type": "address"
        }
      ],
      "name": "rand",
      "outputs": [
        {
          "internalType": "uint256",
          "name": "",
          "type": "uint256"
        }
      ],
      "stateMutability": "view",
      "type": "function"
    },
    {
      "inputs": [
        {
          "internalType": "uint256",
          "name": "a",
          "type": "uint256"
        },
        {
          "internalType": "uint256",
          "name": "b",
          "type": "uint256"
        },
        {
          "internalType": "address",
          "name": "_user",
          "type": "address"
        }
      ],
      "name": "randrange",
      "outputs": [
        {
          "internalType": "uint256",
          "name": "",
          "type": "uint256"
        }
      ],
      "stateMutability": "view",
      "type": "function"
    },
    {
      "inputs": [],
      "name": "blockTime",
      "outputs": [
        {
          "internalType": "uint256",
          "name": "",
          "type": "uint256"
        }
      ],
      "stateMutability": "view",
      "type": "function"
    },
    {
      "inputs": [],
      "name": "blockNum",
      "outputs": [
        {
          "internalType": "uint256",
          "name": "",
          "type": "uint256"
        }
      ],
      "stateMutability": "view",
      "type": "function"
    }
  ],
  "bytecode": "0x608060405234801561001057600080fd5b5060008054600160a060020a03191633179055610474806100326000396000f3fe608060405234801561001057600080fd5b5060043610610073577c0100000000000000000000000000000000000000000000000000000000600035046348b1516681146100785780638ae63d6d1461008c5780638f7fa81914610092578063c7c625ee146100a5578063ca521879146100b8575b600080fd5b425b60405190815260200160405180910390f35b4361007a565b61007a6100a0366004610231565b6100cb565b61007a6100b336600461020f565b610116565b61007a6100c63660046102e2565b6101be565b60006100d842606461037e565b826040516020016100e99190610317565b60408051601f19818403018152919052805160209091012061010b919061036a565b600181905592915050565b60405173ffffffffffffffffffffffffffffffffffffffff82166c01000000000000000000000000810260208301523160348201819052600091829060540160408051601f198184030181529190528051602090910120436101784442610352565b6101829190610352565b61018c9190610352565b60405160200161019e91815260200190565b60408051601f198184030181529190528051602090910120949350505050565b6000826101ca83610116565b6101d4919061039d565b6101de9085610352565b949350505050565b803573ffffffffffffffffffffffffffffffffffffffff8116811461020a57600080fd5b919050565b60006020828403121561022157600080fd5b61022a826101e6565b9392505050565b60006020828403121561024357600080fd5b813567ffffffffffffffff8082111561025b57600080fd5b818401915084601f83011261026f57600080fd5b8135818111156102815761028161040f565b604051601f8201601f19908116603f011681019083821181831017156102a9576102a961040f565b816040528281528760208487010111156102c257600080fd5b826020860160208301376000928101602001929092525095945050505050565b6000806000606084860312156102f757600080fd5b833592506020840135915061030e604085016101e6565b90509250925092565b6000825160005b81811015610338576020818601810151858301520161031e565b81811115610347576000828501525b509190910192915050565b60008219821115610365576103656103b1565b500190565b600082610379576103796103e0565b500490565b6000816000190483118215151615610398576103986103b1565b500290565b6000826103ac576103ac6103e0565b500690565b7f4e487b7100000000000000000000000000000000000000000000000000000000600052601160045260246000fd5b7f4e487b7100000000000000000000000000000000000000000000000000000000600052601260045260246000fd5b7f4e487b7100000000000000000000000000000000000000000000000000000000600052604160045260246000fdfea2646970667358221220d1b9364c44d642fff4eed1c18e9fc64bedbb8e43e15678e883089587c79c09f064736f6c63430008070033",
  "immutableReferences": {},
  "source": "/**\r\n *Submitted for verification at BscScan.com on 2022-01-29\r\n*/\r\n\r\n// File: contracts/utils/random.sol\r\n\r\n\r\npragma solidity >=0.7.0 <0.9.0;\r\n\r\n/*\r\n#    Copyright (C) 2017  alianse777\r\n#    This program is free software: you can redistribute it and/or modify\r\n#    it under the terms of the GNU General Public License as published by\r\n#    the Free Software Foundation, either version 3 of the License, or\r\n#    (at your option) any later version.\r\n#\r\n#    This program is distributed in the hope that it will be useful,\r\n#    but WITHOUT ANY WARRANTY; without even the implied warranty of\r\n#    MERCHANTABILITY or FITNESS FOR A PARTICULAR PURPOSE.  See the\r\n#    GNU General Public License for more details.\r\n#\r\n#    You should have received a copy of the GNU General Public License\r\n#    along with this program.  If not, see <http://www.gnu.org/licenses/>.\r\n*/\r\n\r\n/* \"random\" numbers generator (not cryptographicaly secure)\r\n   rand(uint seed) - returns random number generated by seed\r\n   randint() - returns random number with current time as seed\r\n   randbytes(uint size) - returns byte array of random bytes\r\n*/\r\n\r\n\r\ncontract Random {\r\n    address owner;\r\n    uint seed;\r\n    modifier onlyOwner() {\r\n        require (msg.sender == owner);\r\n        _;\r\n    }\r\n\r\n    constructor(){ \r\n        //balances :D       \r\n        owner = msg.sender;\r\n    }\r\n\r\n    function NewSeed(string memory _randomString)\r\n        public                \r\n        returns(uint256)\r\n    {\r\n    \r\n        seed = (uint256(keccak256(abi.encodePacked(_randomString))))/(block.timestamp*100);\r\n        return seed;\r\n    }\r\n   \r\n    function rand(address _user)\r\n        public\r\n        view  \r\n        returns(uint256)\r\n    {\r\n        uint balance = address(_user).balance;\r\n        uint256 randNum = uint256(keccak256(abi.encodePacked(block.timestamp + block.difficulty + block.number + \r\n            ((uint256(keccak256(abi.encodePacked(_user,balance))))\r\n             ))));\r\n            return randNum;\r\n    }   \r\n\r\n    \r\n    /**\r\n     * @dev Generate random uint in range [a, b]\r\n     * @return uint\r\n     */\r\n    function randrange(uint a, uint b,address _user) external view returns(uint) {\r\n        return a + (rand(_user) % b);\r\n    }\r\n    function blockTime()public view returns(uint){\r\n        return block.timestamp;\r\n    }\r\n    function blockNum()public view returns(uint){\r\n        return block.number;\r\n    }\r\n    \r\n}\r\n// File: contracts/rpsGame.sol\r\n\r\n//SPDX-License-Identifier: MIT\r\npragma solidity >=0.8.0 <0.9.0;\r\n\r\ninterface IRadom{\r\n    function rand(address _user) external view returns(uint256);\r\n    function randrange(uint a, uint b,address _user) external view returns(uint);\r\n}\r\n\r\ncontract rpsGame  {\r\n    /* TODO: rock papper and seassors\r\n    * Function : play\r\n    * Function : setPrice (For Tokens or blockchain currenci? )\r\n    * VARIABLES:\r\n    * * feeForNFTHolders(2%)[]\r\n    * * feeForDevs (1.5)\r\n    * * PoolTransfers (this)\r\n    * * maxDeal (apuesta maxima)\r\n    * Laderboard(Top 500?)\r\n    */\r\n    address owner; // Dueo del contrato, maximo rango de acceso (mover fondos de la pool)\r\n    address admin; // Funciones para editar parametros de nivel medio (editar precios, fees)\r\n    IRadom randomContract; //Direccion del contrato de numeros aleatoreos\r\n\r\n    address NFTHolders; //Direccion del contrato que repartira la recompenza a los holders\r\n    uint public feeForNFTHolders = 200; //% del fee para nftHolders (100 = 1%)\r\n\r\n    address devWalletFees;  //Direccion del fee para los devs\r\n    uint public feeForDevs = 150; //Fee para los el equipo de desarrollo\r\n\r\n    uint totalFee = feeForNFTHolders + feeForDevs;\r\n    uint maxDeal; //Puja maxima en un mismo juego \r\n    \r\n    string[3] RPSop = ['rock','paper', 'scissors']; // 0 = Rock, 1 = paper, 2=scissors\r\n    //for testin gass\r\n    uint public totalWins;\r\n    uint public totalLoses;\r\n    mapping(address => uint[2]) public winLosesPerUser;\r\n    mapping(address => uint[2]) public winLosesRache;\r\n\r\n    modifier onlyOwner(){\r\n        require(msg.sender == owner);\r\n        _;\r\n    }\r\n    modifier forAdmins() {\r\n        require(msg.sender == admin || msg.sender == owner);\r\n        _;\r\n    }\r\n//EVENTS\r\n    event Play(address,uint,bool,uint);// User, your hand, computer hand\r\n    event C_setNFTHoldersAddress(address); // C_(Change), addres owner\r\n    event C_setDevAddress(address);//\r\n    event C_setFeeForNFTHolders(address);\r\n    event C_setFeeForDevs(address);\r\n    event C_setMaxDeal(address);\r\n\r\n    constructor ( address _nftholders, address _devWallet,IRadom _randomContract){\r\n        owner = msg.sender;\r\n        admin = msg.sender;\r\n        NFTHolders = _nftholders;\r\n        devWalletFees = _devWallet;\r\n        randomContract = _randomContract;\r\n        maxDeal = 1 ether;\r\n    }\r\n\r\n//FUNCTIONS FOR USERS\r\n\r\n    //MSG.value = deal + totalFEE%\r\n    function playUno( uint _value) public payable returns(bool results){\r\n        uint fee = calculateFee(_value);\r\n        require(msg.value <= (maxDeal + fee));\r\n        require( (_value+fee) == msg.value);\r\n        uint rand = getRandom(msg.sender,0,100);\r\n        if(rand >= 50){\r\n            payable(msg.sender).transfer(_value * 2);\r\n            results = true;\r\n        }else {\r\n            results = false;\r\n        }\r\n        payable(NFTHolders).transfer(_value * feeForNFTHolders / 10000);\r\n        payable(devWalletFees).transfer(_value * feeForDevs  / 10000);\r\n        emit Play(msg.sender,_value,results,rand);\r\n        //leaderBoard(result)\r\n\r\n    }\r\n//other functions\r\n    function calculateFee(uint _value)public view returns(uint){\r\n        uint txFee = _value * totalFee / 10000;\r\n        return txFee;\r\n    }\r\n    function calculateValue(uint _value)public view returns(uint){\r\n        uint totalValue = calculateFee(_value) + _value;\r\n        return totalValue;\r\n    }\r\n\r\n//internal\r\n    function getRandom(address _user, uint a, uint b) public view returns(uint){\r\n        uint random = randomContract.randrange(a,b,_user);\r\n        if (random == 0 ) {random = 1;}\r\n        return random;\r\n    }\r\n\r\n\r\n//SETTERS\r\n    \r\n    //Cambiar direccion del contrato a donde va el 2% para los que posen nfts\r\n    function setNFTHoldersAddress(address _newNFTHolders) public onlyOwner{\r\n        NFTHolders = _newNFTHolders;\r\n        emit C_setNFTHoldersAddress(msg.sender);\r\n    }\r\n    //Cambiar la direccion donde va el 1.5%(devFee)\r\n    function setDevAddress(address _newDevWalletFees) public onlyOwner {\r\n        devWalletFees = _newDevWalletFees;\r\n        emit C_setDevAddress(msg.sender);\r\n    }\r\n    //Cambia el % de fee que es destinado a holders\r\n    function setFeeForNFTHolders(uint _newFeeForNFTHolders) public forAdmins{\r\n        require((feeForDevs + _newFeeForNFTHolders) < 5000);\r\n        feeForNFTHolders = _newFeeForNFTHolders;\r\n        totalFee = feeForNFTHolders + feeForDevs;\r\n        emit C_setFeeForNFTHolders(msg.sender);\r\n    }\r\n    //Cambia el % de fee que es destinado a Devs\r\n    function setFeeForDevs(uint _newFeeForDevs) public forAdmins{\r\n        require((_newFeeForDevs+feeForNFTHolders) < 5000);\r\n        feeForDevs = _newFeeForDevs;\r\n        totalFee = feeForNFTHolders + feeForDevs;\r\n        emit C_setFeeForDevs(msg.sender);\r\n    }\r\n    //Cambia el maximo disponible en una misma jugada.\r\n    function setMaxDeal(uint _newMaxDeal) public forAdmins{\r\n        require(_newMaxDeal > ((address(this).balance)/10));\r\n        maxDeal = _newMaxDeal;\r\n        emit C_setMaxDeal(msg.sender);\r\n    }\r\n\r\n    //trasnfiere valor, usao para testeo\r\n    function trasnferFounds()public payable returns(bool){\r\n        require(msg.value > 10);\r\n        return true;\r\n    }\r\n\r\n    function playdos( uint _value) public payable returns(bool results){\r\n        uint fee = calculateFee(_value);\r\n        require(msg.value <= (maxDeal + fee));\r\n        require( (_value+fee) == msg.value);\r\n        uint rand = getRandom(msg.sender,0,100);\r\n        if(rand >= 50){\r\n            payable(msg.sender).transfer(_value * 2);\r\n            results = true;\r\n            totalWins++;\r\n            winLosesPerUser[msg.sender][1]++;\r\n            if(winLosesRache[msg.sender][0] == 1){\r\n                winLosesRache[msg.sender][1]++;\r\n            }else{\r\n                winLosesRache[msg.sender][0] = 1;\r\n                winLosesRache[msg.sender][1] = 1;\r\n            }\r\n        }else {\r\n            results = false;\r\n            totalLoses++;\r\n            winLosesPerUser[msg.sender][0]++;\r\n            if(winLosesRache[msg.sender][0] == 0){\r\n                winLosesRache[msg.sender][1]++;\r\n            }else{\r\n                delete winLosesRache[msg.sender][0];\r\n                winLosesRache[msg.sender][1] = 1;\r\n            }\r\n        }\r\n        payable(NFTHolders).transfer(_value * feeForNFTHolders / 10000);\r\n        payable(devWalletFees).transfer(_value * feeForDevs  / 10000);\r\n        emit Play(msg.sender,_value,results,rand);\r\n        //leaderBoard(result)\r\n\r\n    }\r\n\r\n//LeaderBoard\r\n\r\n\r\n}",
  "sourcePath": "/home/guillermo/dapps/rpsProject/blockEnd/contracts/rpsGame.sol",
  "compiler": {
    "name": "solc",
    "version": "0.8.7+commit.e28d00a7.Emscripten.clang"
  },
  "schemaVersion": "3.4.3",
  "updatedAt": "2022-01-30T13:04:45.271Z",
  "devdoc": {
    "kind": "dev",
    "methods": {
      "randrange(uint256,uint256,address)": {
        "details": "Generate random uint in range [a, b]",
        "returns": {
          "_0": "uint"
        }
      }
    },
    "version": 1
  },
  "userdoc": {
    "kind": "user",
    "methods": {},
    "version": 1
  }
}