{
  "contractName": "rpsGame",
  "abi": [
    {
      "inputs": [
        {
          "internalType": "address",
          "name": "_owner",
          "type": "address"
        },
        {
          "internalType": "address",
          "name": "_devWallet",
          "type": "address"
        },
        {
          "internalType": "address payable",
          "name": "_NFTholders",
          "type": "address"
        },
        {
          "internalType": "contract IRandomNumberVRF",
          "name": "_randomLinkContract",
          "type": "address"
        }
      ],
      "stateMutability": "nonpayable",
      "type": "constructor"
    },
    {
      "anonymous": false,
      "inputs": [
        {
          "indexed": false,
          "internalType": "address",
          "name": "",
          "type": "address"
        },
        {
          "indexed": false,
          "internalType": "address",
          "name": "",
          "type": "address"
        }
      ],
      "name": "C_setDevAddress",
      "type": "event"
    },
    {
      "anonymous": false,
      "inputs": [
        {
          "indexed": false,
          "internalType": "address",
          "name": "",
          "type": "address"
        },
        {
          "indexed": false,
          "internalType": "uint256",
          "name": "",
          "type": "uint256"
        }
      ],
      "name": "C_setFeeForDevs",
      "type": "event"
    },
    {
      "anonymous": false,
      "inputs": [
        {
          "indexed": false,
          "internalType": "address",
          "name": "",
          "type": "address"
        },
        {
          "indexed": false,
          "internalType": "uint256",
          "name": "",
          "type": "uint256"
        }
      ],
      "name": "C_setFeeForNFTHolders",
      "type": "event"
    },
    {
      "anonymous": false,
      "inputs": [
        {
          "indexed": false,
          "internalType": "address",
          "name": "",
          "type": "address"
        },
        {
          "indexed": false,
          "internalType": "uint256",
          "name": "",
          "type": "uint256"
        }
      ],
      "name": "C_setMaxDeal",
      "type": "event"
    },
    {
      "anonymous": false,
      "inputs": [
        {
          "indexed": false,
          "internalType": "address",
          "name": "",
          "type": "address"
        },
        {
          "indexed": false,
          "internalType": "contract IstakingNFT",
          "name": "",
          "type": "address"
        }
      ],
      "name": "C_setNFTHoldersAddress",
      "type": "event"
    },
    {
      "anonymous": false,
      "inputs": [
        {
          "indexed": false,
          "internalType": "address",
          "name": "",
          "type": "address"
        },
        {
          "indexed": false,
          "internalType": "uint256",
          "name": "",
          "type": "uint256"
        }
      ],
      "name": "FoundsIn",
      "type": "event"
    },
    {
      "anonymous": false,
      "inputs": [
        {
          "indexed": false,
          "internalType": "address",
          "name": "",
          "type": "address"
        },
        {
          "indexed": false,
          "internalType": "uint256",
          "name": "",
          "type": "uint256"
        },
        {
          "indexed": false,
          "internalType": "address",
          "name": "",
          "type": "address"
        }
      ],
      "name": "FoundsOut",
      "type": "event"
    },
    {
      "anonymous": false,
      "inputs": [
        {
          "indexed": true,
          "internalType": "address",
          "name": "previousOwner",
          "type": "address"
        },
        {
          "indexed": true,
          "internalType": "address",
          "name": "newOwner",
          "type": "address"
        }
      ],
      "name": "OwnershipTransferred",
      "type": "event"
    },
    {
      "anonymous": false,
      "inputs": [
        {
          "indexed": false,
          "internalType": "address",
          "name": "",
          "type": "address"
        },
        {
          "indexed": false,
          "internalType": "uint256",
          "name": "",
          "type": "uint256"
        },
        {
          "indexed": false,
          "internalType": "uint256",
          "name": "",
          "type": "uint256"
        },
        {
          "indexed": false,
          "internalType": "bool",
          "name": "",
          "type": "bool"
        },
        {
          "indexed": false,
          "internalType": "uint256",
          "name": "",
          "type": "uint256"
        }
      ],
      "name": "Play",
      "type": "event"
    },
    {
      "inputs": [
        {
          "internalType": "address",
          "name": "",
          "type": "address"
        }
      ],
      "name": "debtPerUser",
      "outputs": [
        {
          "internalType": "uint256",
          "name": "",
          "type": "uint256"
        }
      ],
      "stateMutability": "view",
      "type": "function"
    },
    {
      "inputs": [],
      "name": "feeForDevs",
      "outputs": [
        {
          "internalType": "uint256",
          "name": "",
          "type": "uint256"
        }
      ],
      "stateMutability": "view",
      "type": "function"
    },
    {
      "inputs": [],
      "name": "feeForNFTHolders",
      "outputs": [
        {
          "internalType": "uint256",
          "name": "",
          "type": "uint256"
        }
      ],
      "stateMutability": "view",
      "type": "function"
    },
    {
      "inputs": [],
      "name": "onOff",
      "outputs": [
        {
          "internalType": "bool",
          "name": "",
          "type": "bool"
        }
      ],
      "stateMutability": "view",
      "type": "function"
    },
    {
      "inputs": [],
      "name": "totalLoses",
      "outputs": [
        {
          "internalType": "uint256",
          "name": "",
          "type": "uint256"
        }
      ],
      "stateMutability": "view",
      "type": "function"
    },
    {
      "inputs": [],
      "name": "totalWins",
      "outputs": [
        {
          "internalType": "uint256",
          "name": "",
          "type": "uint256"
        }
      ],
      "stateMutability": "view",
      "type": "function"
    },
    {
      "inputs": [
        {
          "internalType": "uint256",
          "name": "_value",
          "type": "uint256"
        }
      ],
      "name": "play",
      "outputs": [
        {
          "internalType": "bool",
          "name": "results",
          "type": "bool"
        }
      ],
      "stateMutability": "payable",
      "type": "function"
    },
    {
      "inputs": [],
      "name": "claimDebt",
      "outputs": [],
      "stateMutability": "nonpayable",
      "type": "function"
    },
    {
      "inputs": [
        {
          "internalType": "uint256",
          "name": "_value",
          "type": "uint256"
        }
      ],
      "name": "calculateFee",
      "outputs": [
        {
          "internalType": "uint256",
          "name": "",
          "type": "uint256"
        }
      ],
      "stateMutability": "view",
      "type": "function"
    },
    {
      "inputs": [
        {
          "internalType": "uint256",
          "name": "_value",
          "type": "uint256"
        }
      ],
      "name": "calculateValue",
      "outputs": [
        {
          "internalType": "uint256",
          "name": "",
          "type": "uint256"
        }
      ],
      "stateMutability": "view",
      "type": "function"
    },
    {
      "inputs": [],
      "name": "getRache",
      "outputs": [
        {
          "internalType": "uint256",
          "name": "",
          "type": "uint256"
        }
      ],
      "stateMutability": "view",
      "type": "function"
    },
    {
      "inputs": [
        {
          "internalType": "address",
          "name": "_user",
          "type": "address"
        },
        {
          "internalType": "uint256",
          "name": "a",
          "type": "uint256"
        },
        {
          "internalType": "uint256",
          "name": "b",
          "type": "uint256"
        }
      ],
      "name": "getRandomRangeLink",
      "outputs": [
        {
          "internalType": "uint256",
          "name": "",
          "type": "uint256"
        }
      ],
      "stateMutability": "nonpayable",
      "type": "function"
    },
    {
      "inputs": [
        {
          "internalType": "address payable",
          "name": "_newNFTholders",
          "type": "address"
        }
      ],
      "name": "setNFTHoldersAddress",
      "outputs": [],
      "stateMutability": "nonpayable",
      "type": "function"
    },
    {
      "inputs": [
        {
          "internalType": "address",
          "name": "_newDevWalletFees",
          "type": "address"
        }
      ],
      "name": "setDevAddress",
      "outputs": [],
      "stateMutability": "nonpayable",
      "type": "function"
    },
    {
      "inputs": [
        {
          "internalType": "uint256",
          "name": "_newFeeForNFTHolders",
          "type": "uint256"
        }
      ],
      "name": "setFeeForNFTHolders",
      "outputs": [],
      "stateMutability": "nonpayable",
      "type": "function"
    },
    {
      "inputs": [
        {
          "internalType": "uint256",
          "name": "_newFeeForDevs",
          "type": "uint256"
        }
      ],
      "name": "setFeeForDevs",
      "outputs": [],
      "stateMutability": "nonpayable",
      "type": "function"
    },
    {
      "inputs": [
        {
          "internalType": "uint256",
          "name": "_newMaxDeal",
          "type": "uint256"
        }
      ],
      "name": "setMaxDeal",
      "outputs": [],
      "stateMutability": "nonpayable",
      "type": "function"
    },
    {
      "inputs": [
        {
          "internalType": "uint256",
          "name": "_minBalance",
          "type": "uint256"
        }
      ],
      "name": "setMinBalanceToPay",
      "outputs": [],
      "stateMutability": "nonpayable",
      "type": "function"
    },
    {
      "inputs": [
        {
          "internalType": "bool",
          "name": "_bool",
          "type": "bool"
        }
      ],
      "name": "pause",
      "outputs": [],
      "stateMutability": "nonpayable",
      "type": "function"
    },
    {
      "inputs": [
        {
          "internalType": "uint256",
          "name": "_amount",
          "type": "uint256"
        },
        {
          "internalType": "address",
          "name": "_to",
          "type": "address"
        }
      ],
      "name": "trasnferFoundsOUT",
      "outputs": [],
      "stateMutability": "payable",
      "type": "function"
    },
    {
      "inputs": [],
      "name": "trasnferFoundsIN",
      "outputs": [
        {
          "internalType": "bool",
          "name": "",
          "type": "bool"
        }
      ],
      "stateMutability": "payable",
      "type": "function"
    },
    {
      "inputs": [],
      "name": "renounceOwnership",
      "outputs": [],
      "stateMutability": "nonpayable",
      "type": "function"
    },
    {
      "inputs": [
        {
          "internalType": "address",
          "name": "newOwner",
          "type": "address"
        }
      ],
      "name": "transferOwnership",
      "outputs": [],
      "stateMutability": "nonpayable",
      "type": "function"
    }
  ],
  "bytecode": "0x608060405260fa6005819055606460068190556007805460ff191660011790556200002a9162000363565b60085560405180606001604052806040518060400160405280600481526020017f726f636b0000000000000000000000000000000000000000000000000000000081525081526020016040518060400160405280600581526020017f706170657200000000000000000000000000000000000000000000000000000081525081526020016040518060400160405280600881526020017f73636973736f7273000000000000000000000000000000000000000000000000815250815250600c906003620000f99291906200019f565b503480156200010757600080fd5b506040516200143c3803806200143c8339810160408190526200012a91620002fb565b60008054600160a060020a03958616600160a060020a0319918216179091556002805493861693821684179055600380548216909317909255600480549385169383169390931790925560018054929093169116179055670de0b6b3a7640000600955671bc16d674ec80000600a556200040f565b8260038101928215620001e4579160200282015b82811115620001e45782518051620001d3918491602090910190620001f6565b5091602001919060010190620001b3565b50620001f292915062000281565b5090565b8280546200020490620003a3565b90600052602060002090601f01602090048101928262000228576000855562000273565b82601f106200024357805160ff191683800117855562000273565b8280016001018555821562000273579182015b828111156200027357825182559160200191906001019062000256565b50620001f2929150620002a2565b80821115620001f2576000620002988282620002b9565b5060010162000281565b5b80821115620001f25760008155600101620002a3565b508054620002c790620003a3565b6000825580601f10620002d8575050565b601f016020900490600052602060002090810190620002f89190620002a2565b50565b600080600080608085870312156200031257600080fd5b84516200031f81620003f9565b60208601519094506200033281620003f9565b60408601519093506200034581620003f9565b60608601519092506200035881620003f9565b939692955090935050565b600082198211156200039e577f4e487b7100000000000000000000000000000000000000000000000000000000600052601160045260246000fd5b500190565b600281046001821680620003b857607f821691505b60208210811415620003f3577f4e487b7100000000000000000000000000000000000000000000000000000000600052602260045260246000fd5b50919050565b600160a060020a0381168114620002f857600080fd5b61101d806200041f6000396000f3fe60806040526004361061015d576000357c01000000000000000000000000000000000000000000000000000000009004806399a5d747116100d3578063d0d41fe11161008c578063d0d41fe114610366578063dd65856f14610386578063ebf474c4146103a6578063f2fde38b146103c6578063f9d7cec7146103e6578063fccc498c146103fb57600080fd5b806399a5d747146102be5780639ddc4e67146102de578063a4235422146102f8578063bbf102281461030b578063c123a4e814610330578063d03322e31461035057600080fd5b80636898f82b116101255780636898f82b14610203578063715018a614610226578063777ac3491461023b578063850df61c146102515780638f0cd1c61461027157806391c75a2e1461029e57600080fd5b806302329a291461016257806302c355a1146101845780630afb15da146101ad5780631414d370146101cd57806318ec4dbd146101ed575b600080fd5b34801561016e57600080fd5b5061018261017d366004610e92565b610403565b005b34801561019057600080fd5b5061019a60055481565b6040519081526020015b60405180910390f35b3480156101b957600080fd5b5061019a6101c8366004610e5d565b61042d565b3480156101d957600080fd5b506101826101e8366004610eb4565b6104ea565b3480156101f957600080fd5b5061019a60065481565b610216610211366004610eb4565b610506565b60405190151581526020016101a4565b34801561023257600080fd5b50610182610874565b34801561024757600080fd5b5061019a600f5481565b34801561025d57600080fd5b5061018261026c366004610e40565b610897565b34801561027d57600080fd5b5061019a61028c366004610e40565b600b6020526000908152604090205481565b3480156102aa57600080fd5b5061019a6102b9366004610eb4565b610917565b3480156102ca57600080fd5b5061019a6102d9366004610eb4565b610935565b3480156102ea57600080fd5b506007546102169060ff1681565b610182610306366004610ee6565b610953565b34801561031757600080fd5b503360009081526012602052604090206001015461019a565b34801561033c57600080fd5b5061018261034b366004610eb4565b6109f7565b34801561035c57600080fd5b5061019a60105481565b34801561037257600080fd5b50610182610381366004610e40565b610a75565b34801561039257600080fd5b506101826103a1366004610eb4565b610aee565b3480156103b257600080fd5b506101826103c1366004610eb4565b610b6b565b3480156103d257600080fd5b506101826103e1366004610e40565b610bd4565b3480156103f257600080fd5b50610182610c8d565b610216610d6f565b600054600160a060020a0316331461041a57600080fd5b6007805460ff1916911515919091179055565b6001546040517f539f8eb3000000000000000000000000000000000000000000000000000000008152600160a060020a0385811660048301526024820185905260448201849052600092839291169063539f8eb390606401602060405180830381600087803b15801561049f57600080fd5b505af11580156104b3573d6000803e3d6000fd5b505050506040513d601f19601f820116820180604052508101906104d79190610ecd565b9050806104e2575060015b949350505050565b600054600160a060020a0316331461050157600080fd5b600a55565b60075460009060ff16151560011461057f576040517f08c379a000000000000000000000000000000000000000000000000000000000815260206004820152600d60248201527f506c617920696e2070617573650000000000000000000000000000000000000060448201526064015b60405180910390fd5b600061058a83610935565b90508060095461059a9190610f16565b3411156105a657600080fd5b346105b18285610f16565b146105bb57600080fd5b600454600654600160a060020a03909116906108fc90612710906105df9087610f69565b6105e99190610f2e565b6040518115909202916000818181858888f19350505050158015610611573d6000803e3d6000fd5b50600354600554600160a060020a039091169063cd6e1d6990612710906106389087610f69565b6106429190610f2e565b6040518263ffffffff167c01000000000000000000000000000000000000000000000000000000000281526004016000604051808303818588803b15801561068957600080fd5b505af115801561069d573d6000803e3d6000fd5b505050505060006106b1336001606461042d565b9050603281106107c7576106ce6106c9856002610f69565b610dbc565b1561071057336108fc6106e2866002610f69565b6040518115909202916000818181858888f1935050505015801561070a573d6000803e3d6000fd5b50610740565b61071b846002610f69565b336000908152600b60205260408120805490919061073a908490610f16565b90915550505b600f80546001945090600061075483610f88565b909155505033600090815260116020526040812060010180549161077783610f88565b909155505033600090815260126020526040812080549161079783610f88565b90915550503360009081526012602052604090206001810154905411156107c2573360005260126020525b610810565b601080546000945090846107da83610f88565b90915550503360009081526011602052604081208054916107fa83610f88565b9091555050336000908152601260205260408120555b3360008181526012602090815260409182902054825193845290830187905282820152841515606083015260808201839052517f198848f6428a658420e44522c06ead6b3c3d1ee31056ba9c74fe1baf385a5e409181900360a00190a15050919050565b600054600160a060020a0316331461088b57600080fd5b6108956000610de3565b565b600054600160a060020a031633146108ae57600080fd5b6003805473ffffffffffffffffffffffffffffffffffffffff1916600160a060020a0383169081179091556040805133815260208101929092527ff1ff250516ad060409de4eae5474fe1fe5f6003dd13c661c82924c32a1ce100191015b60405180910390a150565b6000808261092484610935565b61092e9190610f16565b9392505050565b600080612710600854846109499190610f69565b61092e9190610f2e565b600054600160a060020a0316331461096a57600080fd5b604051600160a060020a0382169083156108fc029084906000818181858888f193505050501580156109a0573d6000803e3d6000fd5b506007805460ff191690556040805133815260208101849052600160a060020a0383168183015290517ff1ee1c4bc54d5b55132bb5e0cd34cca6446c070e6823063ee2215af46d8603099181900360600190a15050565b600054600160a060020a03163314610a0e57600080fd5b61138860055482610a1f9190610f16565b10610a2957600080fd5b6006819055600554610a3c908290610f16565b60085560408051338152602081018390527f682a0a598eda82b63d94238660531b5f4354f011e01de4bbe264147d15c88f3d910161090c565b600054600160a060020a03163314610a8c57600080fd5b6004805473ffffffffffffffffffffffffffffffffffffffff1916600160a060020a0383169081179091556040805133815260208101929092527fd5e9a8faa2fc31d85f7928ef95d602d4091bfcfee82676a4d37b4ac1e3d4ed1b910161090c565b600054600160a060020a03163314610b0557600080fd5b6107d081600654610b169190610f16565b10610b2057600080fd5b6005819055600654610b329082610f16565b60085560408051338152602081018390527f8993daa8321242f8b723f60a1f7eed3ff1c048bd7ef8576298c5804d18c8881e910161090c565b600054600160a060020a03163314610b8257600080fd5b610b8e600a3031610f2e565b8111610b9957600080fd5b600981905560408051338152602081018390527fe29e9e7c2e68bdb2ec5a03d948d34427c92ba3bc74c2c648f24d711735e21dbf910161090c565b600054600160a060020a03163314610beb57600080fd5b600160a060020a038116610c81576040517f08c379a000000000000000000000000000000000000000000000000000000000815260206004820152602660248201527f4f776e61626c653a206e6577206f776e657220697320746865207a65726f206160448201527f64647265737300000000000000000000000000000000000000000000000000006064820152608401610576565b610c8a81610de3565b50565b336000908152600b6020526040902054610ca690610dbc565b1515600114610cb457600080fd5b336000908152600b6020526040902054610d2a576040517f08c379a000000000000000000000000000000000000000000000000000000000815260206004820152601d60248201527f6e6f207469656e6520666f6e646f73207061726120636c61696d6561720000006044820152606401610576565b336000818152600b6020526040808220805490839055905190929183156108fc02918491818181858888f19350505050158015610d6b573d6000803e3d6000fd5b5050565b6000600a3411610d7e57600080fd5b604080513381523460208201527f32e1506610277dcd933fd614100b1921382d6bb9de6391a810ee45ac6420909e910160405180910390a150600190565b600a54600090610dcd833031610f16565b1115610ddb57506001919050565b506000919050565b60008054600160a060020a0383811673ffffffffffffffffffffffffffffffffffffffff19831681178455604051919092169283917f8be0079c531659141344cd1fd0a4f28419497f9722a3daafe3b4186f6b6457e09190a35050565b600060208284031215610e5257600080fd5b813561092e81610fd2565b600080600060608486031215610e7257600080fd5b8335610e7d81610fd2565b95602085013595506040909401359392505050565b600060208284031215610ea457600080fd5b8135801515811461092e57600080fd5b600060208284031215610ec657600080fd5b5035919050565b600060208284031215610edf57600080fd5b5051919050565b60008060408385031215610ef957600080fd5b823591506020830135610f0b81610fd2565b809150509250929050565b60008219821115610f2957610f29610fa3565b500190565b600082610f64577f4e487b7100000000000000000000000000000000000000000000000000000000600052601260045260246000fd5b500490565b6000816000190483118215151615610f8357610f83610fa3565b500290565b6000600019821415610f9c57610f9c610fa3565b5060010190565b7f4e487b7100000000000000000000000000000000000000000000000000000000600052601160045260246000fd5b600160a060020a0381168114610c8a57600080fdfea264697066735822122006584484bb3e641cec70b446d9b0d977cb74c7beb071018519fde4766b140a0f64736f6c63430008070033",
  "immutableReferences": {},
  "source": "/**\r\n *Submitted for verification at polygonscan.com on 2022-02-09\r\n*/\r\n\r\n// File: contracts/rpsGame.sol\r\n\r\n//SPDX-License-Identifier: MIT\r\npragma solidity >=0.8.0 <0.9.0;\r\n\r\ninterface IRandomNumberVRF{\r\n    function getRandomNumber() external returns (bytes32 requestId);\r\n    function getRandomRangeNumber(address _user, uint a, uint b) external returns(uint256);\r\n}\r\ninterface IstakingNFT{\r\n    function newPlay() external payable;\r\n}\r\ncontract rpsGame  {    \r\n    address owner; // Dueo del contrato, maximo rango de acceso (mover fondos de la pool)\r\n    IRandomNumberVRF randomLinkContract; //Direccion de VRF random contract\r\n    address payable addressStaking;\r\n    IstakingNFT NFTHolders; //Direccion de contrato staking\r\n    address devWalletFees;  //Direccion del fee para los devs\r\n\r\n    uint public feeForNFTHolders = 250; //% del fee para nftHolders (100 = 1%)\r\n    uint public feeForDevs = 100; //Fee para los el equipo de desarrollo\r\n\r\n    bool public onOff = true; // to pause play function\r\n    uint totalFee = feeForNFTHolders + feeForDevs;\r\n    uint maxDeal; //Max Value in Play fuction\r\n    uint minBalanceToPay; // balance minimo que tiene que tener el contrato, para poder pagar.\r\n    mapping (address => uint) public debtPerUser; //Usado para pagar las deudas.\r\n    \r\n    string[3] RPSop = ['rock','paper', 'scissors']; // 0 = Rock, 1 = paper, 2=scissors\r\n    //for testin gass\r\n    uint public totalWins;\r\n    uint public totalLoses;\r\n    mapping(address => uint[2]) winLosesPerUser;\r\n    mapping(address => uint[2]) winLosesRache;\r\n\r\n    modifier onlyOwner(){\r\n        require(msg.sender == owner);\r\n        _;\r\n    }\r\n   \r\n//EVENTS\r\n    event Play(address,uint,uint,bool,uint);// User ,apuesta ,racha, result, NumeroAleatoreo\r\n    event C_setNFTHoldersAddress(address,IstakingNFT); // C_(Change), (Msg.sender,NewAdrres)\r\n    event C_setDevAddress(address,address);//Change devWalletFees (msg.sender, NewAddress)\r\n    event C_setFeeForNFTHolders(address,uint);// Change feeForNFTHolders(msg.sender, newValue)\r\n    event C_setFeeForDevs(address,uint);// Change feeFordevs(msg.sender, newValue)\r\n    event C_setMaxDeal(address,uint);// change max value in Play fuction (msg.sender, newMaxValue)\r\n    event FoundsIn(address, uint);//\r\n    event FoundsOut(address,uint,address); // withdraw found of this contract(msg.sender, total, address founds)\r\n     event OwnershipTransferred(address indexed previousOwner, address indexed newOwner);\r\n\r\n    constructor (\r\n        address _owner,         \r\n        address _devWallet, \r\n        address payable _NFTholders,\r\n        IRandomNumberVRF _randomLinkContract\r\n    ){\r\n        owner = _owner;\r\n        addressStaking = _NFTholders;\r\n        NFTHolders = IstakingNFT(_NFTholders);\r\n        devWalletFees = _devWallet;\r\n        randomLinkContract = _randomLinkContract;\r\n        maxDeal = 1 ether;\r\n        minBalanceToPay = 2 ether; \r\n    }\r\n\r\n//FUNCTIONS FOR USERS\r\n\r\n    //MSG.value = deal + totalFEE%\r\n    function play( uint _value) public payable returns(bool results){\r\n        require(onOff == true, \"Play in pause\");\r\n        uint fee = calculateFee(_value);\r\n        require(msg.value <= (maxDeal + fee));\r\n        require( (_value+fee) == msg.value);\r\n\r\n        payable(devWalletFees).transfer(_value * feeForDevs  / 10000);\r\n        NFTHolders.newPlay{value:(_value * feeForNFTHolders / 10000)}();\r\n        //getRandom is public!\r\n        uint rand = getRandomRangeLink(msg.sender,1,100);\r\n        \r\n        if(rand >= 50){\r\n            if(checkBalance(_value * 2)){\r\n                payable(msg.sender).transfer(_value * 2);\r\n            }else {\r\n                debtPerUser[msg.sender] += _value * 2;\r\n            }            \r\n            results = true;\r\n            totalWins++;\r\n            winLosesPerUser[msg.sender][1]++;\r\n            winLosesRache[msg.sender][0]++;\r\n            if(winLosesRache[msg.sender][0] >winLosesRache[msg.sender][1]){\r\n                winLosesRache[msg.sender][1] == winLosesRache[msg.sender][0];\r\n            }\r\n            //liquidity.win(msg.sender, _value);\r\n        }else {\r\n            results = false;\r\n            totalLoses++;\r\n            winLosesPerUser[msg.sender][0]++;\r\n            delete winLosesRache[msg.sender][0];            \r\n        }\r\n        \r\n        emit Play(msg.sender,_value,winLosesRache[msg.sender][0],results,rand);\r\n        //leaderBoard(result)\r\n\r\n    }\r\n    function claimDebt() public {\r\n        require (checkBalance(debtPerUser[msg.sender]) == true);\r\n        require(debtPerUser[msg.sender] > 0, \"no tiene fondos para claimear\" );\r\n        uint toPay = debtPerUser[msg.sender];\r\n        delete debtPerUser[msg.sender];\r\n        payable(msg.sender).transfer(toPay);\r\n    }\r\n   \r\n//other functions\r\n    function calculateFee(uint _value)public view returns(uint){\r\n        uint txFee = _value * totalFee / 10000;\r\n        return txFee;\r\n    }\r\n    function calculateValue(uint _value)public view returns(uint){\r\n        uint totalValue = calculateFee(_value) + _value;\r\n        return totalValue;\r\n    }\r\n    function getRache() public view returns(uint){\r\n        return winLosesRache[msg.sender][1];\r\n    }\r\n\r\n//internal\r\n    function getRandomRangeLink(address _user,uint a, uint b) public returns(uint){\r\n        uint random = randomLinkContract.getRandomRangeNumber(_user,a,b);\r\n        if (random == 0 ) {random = 1;}\r\n        return random;\r\n    }\r\n    function checkBalance(uint _value) internal view returns(bool){\r\n        if((address(this).balance) + _value > minBalanceToPay){\r\n            return true;\r\n        }else {\r\n            return false;\r\n        }\r\n    }\r\n\r\n//SETTERS\r\n    \r\n    //Cambiar direccion del contrato a donde va el 2% para los que posen nfts\r\n    function setNFTHoldersAddress(address payable _newNFTholders) public onlyOwner{\r\n        NFTHolders = IstakingNFT(_newNFTholders);\r\n        emit C_setNFTHoldersAddress(msg.sender, IstakingNFT(_newNFTholders));\r\n    }\r\n    //Cambiar la direccion donde va el 1.5%(devFee)\r\n    function setDevAddress(address _newDevWalletFees) public onlyOwner {\r\n        devWalletFees = _newDevWalletFees;\r\n        emit C_setDevAddress(msg.sender,devWalletFees);\r\n    }\r\n    //Cambia el % de fee que es destinado a holders\r\n    function setFeeForNFTHolders(uint _newFeeForNFTHolders) public onlyOwner{\r\n        require((feeForDevs + _newFeeForNFTHolders) < 2000);\r\n        feeForNFTHolders = _newFeeForNFTHolders;\r\n        totalFee = feeForNFTHolders + feeForDevs;\r\n        emit C_setFeeForNFTHolders(msg.sender,_newFeeForNFTHolders);\r\n    }\r\n    //Cambia el % de fee que es destinado a Devs\r\n    function setFeeForDevs(uint _newFeeForDevs) public onlyOwner{\r\n        require((_newFeeForDevs+feeForNFTHolders) < 5000);\r\n        feeForDevs = _newFeeForDevs;\r\n        totalFee = feeForNFTHolders + feeForDevs;\r\n        emit C_setFeeForDevs(msg.sender,_newFeeForDevs);\r\n    }\r\n    //Cambia el maximo disponible en una misma jugada.\r\n    function setMaxDeal(uint _newMaxDeal) public onlyOwner{\r\n        require(_newMaxDeal > ((address(this).balance)/10));\r\n        maxDeal = _newMaxDeal;\r\n        emit C_setMaxDeal(msg.sender,_newMaxDeal);\r\n    }\r\n    //min balance in this contract, to pay \r\n    function setMinBalanceToPay(uint _minBalance) public onlyOwner(){\r\n        minBalanceToPay =_minBalance;\r\n    }\r\n    //funcion que pone en pausa el juego.\r\n    function pause(bool _bool)public onlyOwner{\r\n         onOff = _bool;\r\n    }\r\n    function trasnferFoundsOUT(uint _amount, address _to) public payable onlyOwner(){\r\n        payable(_to).transfer(_amount);\r\n        onOff = false;\r\n        emit FoundsOut(msg.sender, _amount,_to);\r\n    }\r\n    //trasnfiere valor, usao para testeo\r\n    function trasnferFoundsIN()public payable returns(bool){\r\n        require(msg.value > 10);\r\n        emit FoundsIn(msg.sender,msg.value);\r\n        return true;\r\n    }\r\n    function renounceOwnership() public virtual onlyOwner {\r\n        _transferOwnership(address(0));\r\n    }\r\n    function transferOwnership(address newOwner) public virtual onlyOwner {\r\n        require(newOwner != address(0), \"Ownable: new owner is the zero address\");\r\n        _transferOwnership(newOwner);\r\n    }\r\n    function _transferOwnership(address newOwner) internal virtual {\r\n        address oldOwner = owner;\r\n        owner = newOwner;\r\n        emit OwnershipTransferred(oldOwner, newOwner);\r\n    }\r\n\r\n    /*todo:\r\n     - randomContract (SETTER)\r\n     - Emits\r\n    */\r\n    //function leaderBoard()\r\n}",
  "sourcePath": "/home/guillermo/dapps/rpsProject/blockEnd/contracts/rpsGame.sol",
  "compiler": {
    "name": "solc",
    "version": "0.8.7+commit.e28d00a7.Emscripten.clang"
  },
  "schemaVersion": "3.4.3",
  "updatedAt": "2022-02-09T15:18:14.917Z",
  "devdoc": {
    "kind": "dev",
    "methods": {},
    "version": 1
  },
  "userdoc": {
    "kind": "user",
    "methods": {},
    "version": 1
  }
}