{
  "contractName": "rpsGame",
  "abi": [
    {
      "inputs": [
        {
          "internalType": "address",
          "name": "_owner",
          "type": "address"
        },
        {
          "internalType": "address",
          "name": "_devWallet",
          "type": "address"
        },
        {
          "internalType": "address payable",
          "name": "_NFTholders",
          "type": "address"
        },
        {
          "internalType": "contract IRandomNumberVRF",
          "name": "_randomLinkContract",
          "type": "address"
        }
      ],
      "stateMutability": "nonpayable",
      "type": "constructor"
    },
    {
      "anonymous": false,
      "inputs": [
        {
          "indexed": false,
          "internalType": "address",
          "name": "",
          "type": "address"
        },
        {
          "indexed": false,
          "internalType": "address",
          "name": "",
          "type": "address"
        }
      ],
      "name": "C_setDevAddress",
      "type": "event"
    },
    {
      "anonymous": false,
      "inputs": [
        {
          "indexed": false,
          "internalType": "address",
          "name": "",
          "type": "address"
        },
        {
          "indexed": false,
          "internalType": "uint256",
          "name": "",
          "type": "uint256"
        }
      ],
      "name": "C_setFeeForDevs",
      "type": "event"
    },
    {
      "anonymous": false,
      "inputs": [
        {
          "indexed": false,
          "internalType": "address",
          "name": "",
          "type": "address"
        },
        {
          "indexed": false,
          "internalType": "uint256",
          "name": "",
          "type": "uint256"
        }
      ],
      "name": "C_setFeeForNFTHolders",
      "type": "event"
    },
    {
      "anonymous": false,
      "inputs": [
        {
          "indexed": false,
          "internalType": "address",
          "name": "",
          "type": "address"
        },
        {
          "indexed": false,
          "internalType": "uint256",
          "name": "",
          "type": "uint256"
        }
      ],
      "name": "C_setMaxDeal",
      "type": "event"
    },
    {
      "anonymous": false,
      "inputs": [
        {
          "indexed": false,
          "internalType": "address",
          "name": "",
          "type": "address"
        },
        {
          "indexed": false,
          "internalType": "contract IstakingNFT",
          "name": "",
          "type": "address"
        }
      ],
      "name": "C_setNFTHoldersAddress",
      "type": "event"
    },
    {
      "anonymous": false,
      "inputs": [
        {
          "indexed": false,
          "internalType": "address",
          "name": "",
          "type": "address"
        },
        {
          "indexed": false,
          "internalType": "uint256",
          "name": "",
          "type": "uint256"
        }
      ],
      "name": "FoundsIn",
      "type": "event"
    },
    {
      "anonymous": false,
      "inputs": [
        {
          "indexed": false,
          "internalType": "address",
          "name": "",
          "type": "address"
        },
        {
          "indexed": false,
          "internalType": "uint256",
          "name": "",
          "type": "uint256"
        },
        {
          "indexed": false,
          "internalType": "address",
          "name": "",
          "type": "address"
        }
      ],
      "name": "FoundsOut",
      "type": "event"
    },
    {
      "anonymous": false,
      "inputs": [
        {
          "indexed": true,
          "internalType": "address",
          "name": "previousOwner",
          "type": "address"
        },
        {
          "indexed": true,
          "internalType": "address",
          "name": "newOwner",
          "type": "address"
        }
      ],
      "name": "OwnershipTransferred",
      "type": "event"
    },
    {
      "anonymous": false,
      "inputs": [
        {
          "indexed": false,
          "internalType": "address",
          "name": "",
          "type": "address"
        },
        {
          "indexed": false,
          "internalType": "uint256",
          "name": "",
          "type": "uint256"
        },
        {
          "indexed": false,
          "internalType": "uint256",
          "name": "",
          "type": "uint256"
        },
        {
          "indexed": false,
          "internalType": "bool",
          "name": "",
          "type": "bool"
        },
        {
          "indexed": false,
          "internalType": "uint256",
          "name": "",
          "type": "uint256"
        }
      ],
      "name": "Play",
      "type": "event"
    },
    {
      "inputs": [
        {
          "internalType": "address",
          "name": "",
          "type": "address"
        }
      ],
      "name": "debtPerUser",
      "outputs": [
        {
          "internalType": "uint256",
          "name": "",
          "type": "uint256"
        }
      ],
      "stateMutability": "view",
      "type": "function"
    },
    {
      "inputs": [],
      "name": "feeForDevs",
      "outputs": [
        {
          "internalType": "uint256",
          "name": "",
          "type": "uint256"
        }
      ],
      "stateMutability": "view",
      "type": "function"
    },
    {
      "inputs": [],
      "name": "feeForNFTHolders",
      "outputs": [
        {
          "internalType": "uint256",
          "name": "",
          "type": "uint256"
        }
      ],
      "stateMutability": "view",
      "type": "function"
    },
    {
      "inputs": [],
      "name": "onOff",
      "outputs": [
        {
          "internalType": "bool",
          "name": "",
          "type": "bool"
        }
      ],
      "stateMutability": "view",
      "type": "function"
    },
    {
      "inputs": [],
      "name": "totalLoses",
      "outputs": [
        {
          "internalType": "uint256",
          "name": "",
          "type": "uint256"
        }
      ],
      "stateMutability": "view",
      "type": "function"
    },
    {
      "inputs": [],
      "name": "totalWins",
      "outputs": [
        {
          "internalType": "uint256",
          "name": "",
          "type": "uint256"
        }
      ],
      "stateMutability": "view",
      "type": "function"
    },
    {
      "inputs": [
        {
          "internalType": "uint256",
          "name": "_value",
          "type": "uint256"
        }
      ],
      "name": "play",
      "outputs": [
        {
          "internalType": "bool",
          "name": "results",
          "type": "bool"
        }
      ],
      "stateMutability": "payable",
      "type": "function"
    },
    {
      "inputs": [],
      "name": "claimDebt",
      "outputs": [],
      "stateMutability": "nonpayable",
      "type": "function"
    },
    {
      "inputs": [
        {
          "internalType": "uint256",
          "name": "_value",
          "type": "uint256"
        }
      ],
      "name": "calculateFee",
      "outputs": [
        {
          "internalType": "uint256",
          "name": "",
          "type": "uint256"
        }
      ],
      "stateMutability": "view",
      "type": "function"
    },
    {
      "inputs": [
        {
          "internalType": "uint256",
          "name": "_value",
          "type": "uint256"
        }
      ],
      "name": "calculateValue",
      "outputs": [
        {
          "internalType": "uint256",
          "name": "",
          "type": "uint256"
        }
      ],
      "stateMutability": "view",
      "type": "function"
    },
    {
      "inputs": [
        {
          "internalType": "address",
          "name": "_address",
          "type": "address"
        }
      ],
      "name": "viewTimeProtected",
      "outputs": [
        {
          "internalType": "uint256",
          "name": "",
          "type": "uint256"
        }
      ],
      "stateMutability": "view",
      "type": "function"
    },
    {
      "inputs": [
        {
          "internalType": "address payable",
          "name": "_newNFTholders",
          "type": "address"
        }
      ],
      "name": "setNFTHoldersAddress",
      "outputs": [],
      "stateMutability": "nonpayable",
      "type": "function"
    },
    {
      "inputs": [
        {
          "internalType": "address",
          "name": "_newDevWalletFees",
          "type": "address"
        }
      ],
      "name": "setDevAddress",
      "outputs": [],
      "stateMutability": "nonpayable",
      "type": "function"
    },
    {
      "inputs": [
        {
          "internalType": "uint256",
          "name": "_newFeeForNFTHolders",
          "type": "uint256"
        }
      ],
      "name": "setFeeForNFTHolders",
      "outputs": [],
      "stateMutability": "nonpayable",
      "type": "function"
    },
    {
      "inputs": [
        {
          "internalType": "uint256",
          "name": "_newFeeForDevs",
          "type": "uint256"
        }
      ],
      "name": "setFeeForDevs",
      "outputs": [],
      "stateMutability": "nonpayable",
      "type": "function"
    },
    {
      "inputs": [
        {
          "internalType": "uint256",
          "name": "_newMaxDeal",
          "type": "uint256"
        }
      ],
      "name": "setMaxDeal",
      "outputs": [],
      "stateMutability": "nonpayable",
      "type": "function"
    },
    {
      "inputs": [
        {
          "internalType": "uint256",
          "name": "_minBalance",
          "type": "uint256"
        }
      ],
      "name": "setMinBalanceToPay",
      "outputs": [],
      "stateMutability": "nonpayable",
      "type": "function"
    },
    {
      "inputs": [
        {
          "internalType": "uint256",
          "name": "_NewprotectedTime",
          "type": "uint256"
        }
      ],
      "name": "setProtectedTime",
      "outputs": [],
      "stateMutability": "nonpayable",
      "type": "function"
    },
    {
      "inputs": [
        {
          "internalType": "bool",
          "name": "_bool",
          "type": "bool"
        }
      ],
      "name": "pause",
      "outputs": [],
      "stateMutability": "nonpayable",
      "type": "function"
    },
    {
      "inputs": [
        {
          "internalType": "uint256",
          "name": "_amount",
          "type": "uint256"
        },
        {
          "internalType": "address",
          "name": "_to",
          "type": "address"
        }
      ],
      "name": "trasnferFoundsOUT",
      "outputs": [],
      "stateMutability": "payable",
      "type": "function"
    },
    {
      "inputs": [],
      "name": "trasnferFoundsIN",
      "outputs": [
        {
          "internalType": "bool",
          "name": "",
          "type": "bool"
        }
      ],
      "stateMutability": "payable",
      "type": "function"
    },
    {
      "inputs": [],
      "name": "renounceOwnership",
      "outputs": [],
      "stateMutability": "nonpayable",
      "type": "function"
    },
    {
      "inputs": [
        {
          "internalType": "address",
          "name": "newOwner",
          "type": "address"
        }
      ],
      "name": "transferOwnership",
      "outputs": [],
      "stateMutability": "nonpayable",
      "type": "function"
    },
    {
      "inputs": [],
      "name": "timeBlock",
      "outputs": [
        {
          "internalType": "uint256",
          "name": "",
          "type": "uint256"
        }
      ],
      "stateMutability": "view",
      "type": "function"
    }
  ],
  "bytecode": "0x608060405260fa60055560646006556001600760006101000a81548160ff0219169083151502179055506006546005546200003b9190620004de565b6008556003600b5560405180606001604052806040518060400160405280600481526020017f726f636b0000000000000000000000000000000000000000000000000000000081525081526020016040518060400160405280600581526020017f706170657200000000000000000000000000000000000000000000000000000081525081526020016040518060400160405280600881526020017f73636973736f7273000000000000000000000000000000000000000000000000815250815250600d9060036200010f929190620002af565b503480156200011d57600080fd5b506040516200275b3803806200275b83398181016040528101906200014391906200046c565b836000806101000a81548173ffffffffffffffffffffffffffffffffffffffff021916908373ffffffffffffffffffffffffffffffffffffffff16021790555081600260006101000a81548173ffffffffffffffffffffffffffffffffffffffff021916908373ffffffffffffffffffffffffffffffffffffffff16021790555081600360006101000a81548173ffffffffffffffffffffffffffffffffffffffff021916908373ffffffffffffffffffffffffffffffffffffffff16021790555082600460006101000a81548173ffffffffffffffffffffffffffffffffffffffff021916908373ffffffffffffffffffffffffffffffffffffffff16021790555080600160006101000a81548173ffffffffffffffffffffffffffffffffffffffff021916908373ffffffffffffffffffffffffffffffffffffffff160217905550670de0b6b3a7640000600981905550671bc16d674ec80000600a819055505050505062000688565b8260038101928215620002f6579160200282015b82811115620002f5578251829080519060200190620002e492919062000309565b5091602001919060010190620002c3565b5b5090506200030591906200039a565b5090565b8280546200031790620005a1565b90600052602060002090601f0160209004810192826200033b576000855562000387565b82601f106200035657805160ff191683800117855562000387565b8280016001018555821562000387579182015b828111156200038657825182559160200191906001019062000369565b5b509050620003969190620003c2565b5090565b5b80821115620003be5760008181620003b49190620003e1565b506001016200039b565b5090565b5b80821115620003dd576000816000905550600101620003c3565b5090565b508054620003ef90620005a1565b6000825580601f1062000403575062000424565b601f016020900490600052602060002090810190620004239190620003c2565b5b50565b60008151905062000438816200063a565b92915050565b6000815190506200044f8162000654565b92915050565b60008151905062000466816200066e565b92915050565b6000806000806080858703121562000489576200048862000635565b5b6000620004998782880162000427565b9450506020620004ac8782880162000427565b9350506040620004bf878288016200043e565b9250506060620004d28782880162000455565b91505092959194509250565b6000620004eb8262000597565b9150620004f88362000597565b9250827fffffffffffffffffffffffffffffffffffffffffffffffffffffffffffffffff0382111562000530576200052f620005d7565b5b828201905092915050565b6000620005488262000577565b9050919050565b60006200055c8262000577565b9050919050565b600062000570826200053b565b9050919050565b600073ffffffffffffffffffffffffffffffffffffffff82169050919050565b6000819050919050565b60006002820490506001821680620005ba57607f821691505b60208210811415620005d157620005d062000606565b5b50919050565b7f4e487b7100000000000000000000000000000000000000000000000000000000600052601160045260246000fd5b7f4e487b7100000000000000000000000000000000000000000000000000000000600052602260045260246000fd5b600080fd5b62000645816200053b565b81146200065157600080fd5b50565b6200065f816200054f565b81146200066b57600080fd5b50565b620006798162000563565b81146200068557600080fd5b50565b6120c380620006986000396000f3fe608060405260043610610168576000357c01000000000000000000000000000000000000000000000000000000009004806399a5d747116100d3578063d0d41fe11161008c578063d0d41fe114610493578063dd65856f146104bc578063ebf474c4146104e5578063f2fde38b1461050e578063f9d7cec714610537578063fccc498c1461054e57610168565b806399a5d747146103905780639ddc4e67146103cd578063a4235422146103f8578063ae750fb014610414578063c123a4e81461043f578063d03322e31461046857610168565b80636898f82b116101255780636898f82b1461027b578063715018a6146102ab578063777ac349146102c2578063850df61c146102ed5780638f0cd1c61461031657806391c75a2e1461035357610168565b806302329a291461016d57806302c355a1146101965780630b8171fe146101c15780631414d370146101fe57806318ec4dbd146102275780632bd5fa3f14610252575b600080fd5b34801561017957600080fd5b50610194600480360381019061018f91906119f5565b61056c565b005b3480156101a257600080fd5b506101ab6105e1565b6040516101b89190611d18565b60405180910390f35b3480156101cd57600080fd5b506101e860048036038101906101e3919061199b565b6105e7565b6040516101f59190611d18565b60405180910390f35b34801561020a57600080fd5b5061022560048036038101906102209190611a22565b610630565b005b34801561023357600080fd5b5061023c610692565b6040516102499190611d18565b60405180910390f35b34801561025e57600080fd5b5061027960048036038101906102749190611a22565b610698565b005b61029560048036038101906102909190611a22565b6106fa565b6040516102a29190611c9d565b60405180910390f35b3480156102b757600080fd5b506102c0610e5f565b005b3480156102ce57600080fd5b506102d7610ec3565b6040516102e49190611d18565b60405180910390f35b3480156102f957600080fd5b50610314600480360381019061030f91906119c8565b610ec9565b005b34801561032257600080fd5b5061033d6004803603810190610338919061199b565b610f9e565b60405161034a9190611d18565b60405180910390f35b34801561035f57600080fd5b5061037a60048036038101906103759190611a22565b610fb6565b6040516103879190611d18565b60405180910390f35b34801561039c57600080fd5b506103b760048036038101906103b29190611a22565b610fd8565b6040516103c49190611d18565b60405180910390f35b3480156103d957600080fd5b506103e2611001565b6040516103ef9190611c9d565b60405180910390f35b610412600480360381019061040d9190611a7c565b611014565b005b34801561042057600080fd5b5061042961110d565b6040516104369190611d18565b60405180910390f35b34801561044b57600080fd5b5061046660048036038101906104619190611a22565b611115565b005b34801561047457600080fd5b5061047d6111e1565b60405161048a9190611d18565b60405180910390f35b34801561049f57600080fd5b506104ba60048036038101906104b5919061199b565b6111e7565b005b3480156104c857600080fd5b506104e360048036038101906104de9190611a22565b6112de565b005b3480156104f157600080fd5b5061050c60048036038101906105079190611a22565b6113aa565b005b34801561051a57600080fd5b506105356004803603810190610530919061199b565b611474565b005b34801561054357600080fd5b5061054c611548565b005b6105566116f3565b6040516105639190611c9d565b60405180910390f35b60008054906101000a900473ffffffffffffffffffffffffffffffffffffffff1673ffffffffffffffffffffffffffffffffffffffff163373ffffffffffffffffffffffffffffffffffffffff16146105c457600080fd5b80600760006101000a81548160ff02191690831515021790555050565b60055481565b6000601460008373ffffffffffffffffffffffffffffffffffffffff1673ffffffffffffffffffffffffffffffffffffffff168152602001908152602001600020549050919050565b60008054906101000a900473ffffffffffffffffffffffffffffffffffffffff1673ffffffffffffffffffffffffffffffffffffffff163373ffffffffffffffffffffffffffffffffffffffff161461068857600080fd5b80600a8190555050565b60065481565b60008054906101000a900473ffffffffffffffffffffffffffffffffffffffff1673ffffffffffffffffffffffffffffffffffffffff163373ffffffffffffffffffffffffffffffffffffffff16146106f057600080fd5b80600b8190555050565b600060011515600760009054906101000a900460ff16151514610752576040517f08c379a000000000000000000000000000000000000000000000000000000000815260040161074990611cd8565b60405180910390fd5b42600b54601460003373ffffffffffffffffffffffffffffffffffffffff1673ffffffffffffffffffffffffffffffffffffffff168152602001908152602001600020546107a09190611d44565b106107aa57600080fd5b60006107b583610fd8565b9050806009546107c59190611d44565b3411156107d157600080fd5b600034116107de57600080fd5b3481846107eb9190611d44565b146107f557600080fd5b42601460003373ffffffffffffffffffffffffffffffffffffffff1673ffffffffffffffffffffffffffffffffffffffff16815260200190815260200160002081905550600460009054906101000a900473ffffffffffffffffffffffffffffffffffffffff1673ffffffffffffffffffffffffffffffffffffffff166108fc612710600654866108869190611dcb565b6108909190611d9a565b9081150290604051600060405180830381858888f193505050501580156108bb573d6000803e3d6000fd5b50600360009054906101000a900473ffffffffffffffffffffffffffffffffffffffff1673ffffffffffffffffffffffffffffffffffffffff1663cd6e1d696127106005548661090b9190611dcb565b6109159190611d9a565b6040518263ffffffff167c01000000000000000000000000000000000000000000000000000000000281526004016000604051808303818588803b15801561095c57600080fd5b505af1158015610970573d6000803e3d6000fd5b505050505060006109843360016064611742565b905060328110610ce9576109a360028561099e9190611dcb565b61182d565b15610a00573373ffffffffffffffffffffffffffffffffffffffff166108fc6002866109cf9190611dcb565b9081150290604051600060405180830381858888f193505050501580156109fa573d6000803e3d6000fd5b50610a9e565b3373ffffffffffffffffffffffffffffffffffffffff166108fc859081150290604051600060405180830381858888f19350505050158015610a46573d6000803e3d6000fd5b5083600c60003373ffffffffffffffffffffffffffffffffffffffff1673ffffffffffffffffffffffffffffffffffffffff1681526020019081526020016000206000828254610a969190611d44565b925050819055505b6001925060106000815480929190610ab590611eb5565b9190505550601260003373ffffffffffffffffffffffffffffffffffffffff1673ffffffffffffffffffffffffffffffffffffffff168152602001908152602001600020600160028110610b0c57610b0b611f5c565b5b016000815480929190610b1e90611eb5565b9190505550601360003373ffffffffffffffffffffffffffffffffffffffff1673ffffffffffffffffffffffffffffffffffffffff168152602001908152602001600020600060028110610b7557610b74611f5c565b5b016000815480929190610b8790611eb5565b9190505550601360003373ffffffffffffffffffffffffffffffffffffffff1673ffffffffffffffffffffffffffffffffffffffff168152602001908152602001600020600160028110610bde57610bdd611f5c565b5b0154601360003373ffffffffffffffffffffffffffffffffffffffff1673ffffffffffffffffffffffffffffffffffffffff168152602001908152602001600020600060028110610c3257610c31611f5c565b5b01541115610ce457601360003373ffffffffffffffffffffffffffffffffffffffff1673ffffffffffffffffffffffffffffffffffffffff168152602001908152602001600020600060028110610c8c57610c8b611f5c565b5b0154601360003373ffffffffffffffffffffffffffffffffffffffff1673ffffffffffffffffffffffffffffffffffffffff168152602001908152602001600020600160028110610ce057610cdf611f5c565b5b5050505b610dc6565b6000925060116000815480929190610d0090611eb5565b9190505550601260003373ffffffffffffffffffffffffffffffffffffffff1673ffffffffffffffffffffffffffffffffffffffff168152602001908152602001600020600060028110610d5757610d56611f5c565b5b016000815480929190610d6990611eb5565b9190505550601360003373ffffffffffffffffffffffffffffffffffffffff1673ffffffffffffffffffffffffffffffffffffffff168152602001908152602001600020600060028110610dc057610dbf611f5c565b5b01600090555b7f198848f6428a658420e44522c06ead6b3c3d1ee31056ba9c74fe1baf385a5e403385601360003373ffffffffffffffffffffffffffffffffffffffff1673ffffffffffffffffffffffffffffffffffffffff168152602001908152602001600020600060028110610e3b57610e3a611f5c565b5b01548685604051610e50959493929190611c4a565b60405180910390a15050919050565b60008054906101000a900473ffffffffffffffffffffffffffffffffffffffff1673ffffffffffffffffffffffffffffffffffffffff163373ffffffffffffffffffffffffffffffffffffffff1614610eb757600080fd5b610ec1600061186e565b565b60105481565b60008054906101000a900473ffffffffffffffffffffffffffffffffffffffff1673ffffffffffffffffffffffffffffffffffffffff163373ffffffffffffffffffffffffffffffffffffffff1614610f2157600080fd5b80600360006101000a81548173ffffffffffffffffffffffffffffffffffffffff021916908373ffffffffffffffffffffffffffffffffffffffff1602179055507ff1ff250516ad060409de4eae5474fe1fe5f6003dd13c661c82924c32a1ce10013382604051610f93929190611b8a565b60405180910390a150565b600c6020528060005260406000206000915090505481565b60008082610fc384610fd8565b610fcd9190611d44565b905080915050919050565b60008061271060085484610fec9190611dcb565b610ff69190611d9a565b905080915050919050565b600760009054906101000a900460ff1681565b60008054906101000a900473ffffffffffffffffffffffffffffffffffffffff1673ffffffffffffffffffffffffffffffffffffffff163373ffffffffffffffffffffffffffffffffffffffff161461106c57600080fd5b8073ffffffffffffffffffffffffffffffffffffffff166108fc839081150290604051600060405180830381858888f193505050501580156110b2573d6000803e3d6000fd5b506000600760006101000a81548160ff0219169083151502179055507ff1ee1c4bc54d5b55132bb5e0cd34cca6446c070e6823063ee2215af46d86030933838360405161110193929190611bdc565b60405180910390a15050565b600042905090565b60008054906101000a900473ffffffffffffffffffffffffffffffffffffffff1673ffffffffffffffffffffffffffffffffffffffff163373ffffffffffffffffffffffffffffffffffffffff161461116d57600080fd5b6113886005548261117e9190611d44565b1061118857600080fd5b8060068190555060065460055461119f9190611d44565b6008819055507f682a0a598eda82b63d94238660531b5f4354f011e01de4bbe264147d15c88f3d33826040516111d6929190611bb3565b60405180910390a150565b60115481565b60008054906101000a900473ffffffffffffffffffffffffffffffffffffffff1673ffffffffffffffffffffffffffffffffffffffff163373ffffffffffffffffffffffffffffffffffffffff161461123f57600080fd5b80600460006101000a81548173ffffffffffffffffffffffffffffffffffffffff021916908373ffffffffffffffffffffffffffffffffffffffff1602179055507fd5e9a8faa2fc31d85f7928ef95d602d4091bfcfee82676a4d37b4ac1e3d4ed1b33600460009054906101000a900473ffffffffffffffffffffffffffffffffffffffff166040516112d3929190611b61565b60405180910390a150565b60008054906101000a900473ffffffffffffffffffffffffffffffffffffffff1673ffffffffffffffffffffffffffffffffffffffff163373ffffffffffffffffffffffffffffffffffffffff161461133657600080fd5b6107d0816006546113479190611d44565b1061135157600080fd5b806005819055506006546005546113689190611d44565b6008819055507f8993daa8321242f8b723f60a1f7eed3ff1c048bd7ef8576298c5804d18c8881e338260405161139f929190611bb3565b60405180910390a150565b60008054906101000a900473ffffffffffffffffffffffffffffffffffffffff1673ffffffffffffffffffffffffffffffffffffffff163373ffffffffffffffffffffffffffffffffffffffff161461140257600080fd5b600a3073ffffffffffffffffffffffffffffffffffffffff16316114269190611d9a565b811161143157600080fd5b806009819055507fe29e9e7c2e68bdb2ec5a03d948d34427c92ba3bc74c2c648f24d711735e21dbf3382604051611469929190611bb3565b60405180910390a150565b60008054906101000a900473ffffffffffffffffffffffffffffffffffffffff1673ffffffffffffffffffffffffffffffffffffffff163373ffffffffffffffffffffffffffffffffffffffff16146114cc57600080fd5b600073ffffffffffffffffffffffffffffffffffffffff168173ffffffffffffffffffffffffffffffffffffffff16141561153c576040517f08c379a000000000000000000000000000000000000000000000000000000000815260040161153390611cb8565b60405180910390fd5b6115458161186e565b50565b60011515611594600c60003373ffffffffffffffffffffffffffffffffffffffff1673ffffffffffffffffffffffffffffffffffffffff1681526020019081526020016000205461182d565b1515146115a057600080fd5b6000600c60003373ffffffffffffffffffffffffffffffffffffffff1673ffffffffffffffffffffffffffffffffffffffff1681526020019081526020016000205411611622576040517f08c379a000000000000000000000000000000000000000000000000000000000815260040161161990611cf8565b60405180910390fd5b6000600c60003373ffffffffffffffffffffffffffffffffffffffff1673ffffffffffffffffffffffffffffffffffffffff168152602001908152602001600020549050600c60003373ffffffffffffffffffffffffffffffffffffffff1673ffffffffffffffffffffffffffffffffffffffff168152602001908152602001600020600090553373ffffffffffffffffffffffffffffffffffffffff166108fc829081150290604051600060405180830381858888f193505050501580156116ef573d6000803e3d6000fd5b5050565b6000600a341161170257600080fd5b7f32e1506610277dcd933fd614100b1921382d6bb9de6391a810ee45ac6420909e3334604051611733929190611bb3565b60405180910390a16001905090565b600080600160009054906101000a900473ffffffffffffffffffffffffffffffffffffffff1673ffffffffffffffffffffffffffffffffffffffff1663539f8eb38686866040518463ffffffff167c01000000000000000000000000000000000000000000000000000000000281526004016117c093929190611c13565b602060405180830381600087803b1580156117da57600080fd5b505af11580156117ee573d6000803e3d6000fd5b505050506040513d601f19601f820116820180604052508101906118129190611a4f565b9050600081141561182257600190505b809150509392505050565b6000600a54823073ffffffffffffffffffffffffffffffffffffffff16316118559190611d44565b11156118645760019050611869565b600090505b919050565b60008060009054906101000a900473ffffffffffffffffffffffffffffffffffffffff169050816000806101000a81548173ffffffffffffffffffffffffffffffffffffffff021916908373ffffffffffffffffffffffffffffffffffffffff1602179055508173ffffffffffffffffffffffffffffffffffffffff168173ffffffffffffffffffffffffffffffffffffffff167f8be0079c531659141344cd1fd0a4f28419497f9722a3daafe3b4186f6b6457e060405160405180910390a35050565b60008135905061194181612031565b92915050565b60008135905061195681612048565b92915050565b60008135905061196b8161205f565b92915050565b60008135905061198081612076565b92915050565b60008151905061199581612076565b92915050565b6000602082840312156119b1576119b0611f8b565b5b60006119bf84828501611932565b91505092915050565b6000602082840312156119de576119dd611f8b565b5b60006119ec84828501611947565b91505092915050565b600060208284031215611a0b57611a0a611f8b565b5b6000611a198482850161195c565b91505092915050565b600060208284031215611a3857611a37611f8b565b5b6000611a4684828501611971565b91505092915050565b600060208284031215611a6557611a64611f8b565b5b6000611a7384828501611986565b91505092915050565b60008060408385031215611a9357611a92611f8b565b5b6000611aa185828601611971565b9250506020611ab285828601611932565b9150509250929050565b611ac581611e25565b82525050565b611ad481611e49565b82525050565b611ae381611e7f565b82525050565b6000611af6602683611d33565b9150611b0182611f90565b604082019050919050565b6000611b19600d83611d33565b9150611b2482611fdf565b602082019050919050565b6000611b3c601d83611d33565b9150611b4782612008565b602082019050919050565b611b5b81611e75565b82525050565b6000604082019050611b766000830185611abc565b611b836020830184611abc565b9392505050565b6000604082019050611b9f6000830185611abc565b611bac6020830184611ada565b9392505050565b6000604082019050611bc86000830185611abc565b611bd56020830184611b52565b9392505050565b6000606082019050611bf16000830186611abc565b611bfe6020830185611b52565b611c0b6040830184611abc565b949350505050565b6000606082019050611c286000830186611abc565b611c356020830185611b52565b611c426040830184611b52565b949350505050565b600060a082019050611c5f6000830188611abc565b611c6c6020830187611b52565b611c796040830186611b52565b611c866060830185611acb565b611c936080830184611b52565b9695505050505050565b6000602082019050611cb26000830184611acb565b92915050565b60006020820190508181036000830152611cd181611ae9565b9050919050565b60006020820190508181036000830152611cf181611b0c565b9050919050565b60006020820190508181036000830152611d1181611b2f565b9050919050565b6000602082019050611d2d6000830184611b52565b92915050565b600082825260208201905092915050565b6000611d4f82611e75565b9150611d5a83611e75565b9250827fffffffffffffffffffffffffffffffffffffffffffffffffffffffffffffffff03821115611d8f57611d8e611efe565b5b828201905092915050565b6000611da582611e75565b9150611db083611e75565b925082611dc057611dbf611f2d565b5b828204905092915050565b6000611dd682611e75565b9150611de183611e75565b9250817fffffffffffffffffffffffffffffffffffffffffffffffffffffffffffffffff0483118215151615611e1a57611e19611efe565b5b828202905092915050565b6000611e3082611e55565b9050919050565b6000611e4282611e55565b9050919050565b60008115159050919050565b600073ffffffffffffffffffffffffffffffffffffffff82169050919050565b6000819050919050565b6000611e8a82611e91565b9050919050565b6000611e9c82611ea3565b9050919050565b6000611eae82611e55565b9050919050565b6000611ec082611e75565b91507fffffffffffffffffffffffffffffffffffffffffffffffffffffffffffffffff821415611ef357611ef2611efe565b5b600182019050919050565b7f4e487b7100000000000000000000000000000000000000000000000000000000600052601160045260246000fd5b7f4e487b7100000000000000000000000000000000000000000000000000000000600052601260045260246000fd5b7f4e487b7100000000000000000000000000000000000000000000000000000000600052603260045260246000fd5b600080fd5b7f4f776e61626c653a206e6577206f776e657220697320746865207a65726f206160008201527f6464726573730000000000000000000000000000000000000000000000000000602082015250565b7f506c617920696e20706175736500000000000000000000000000000000000000600082015250565b7f6e6f207469656e6520666f6e646f73207061726120636c61696d656172000000600082015250565b61203a81611e25565b811461204557600080fd5b50565b61205181611e37565b811461205c57600080fd5b50565b61206881611e49565b811461207357600080fd5b50565b61207f81611e75565b811461208a57600080fd5b5056fea26469706673582212205a3e4f5987721fee60bb1698f15bfc753e508680bf0978675f702703aa3e6e7964736f6c63430008070033",
  "immutableReferences": {},
  "source": "/**\r\n *Submitted for verification at polygonscan.com on 2022-03-01\r\n*/\r\n\r\n// File: contracts/rpsGame.sol\r\n\r\n\r\n// File: contracts/rpsGame.sol\r\n\r\n//SPDX-License-Identifier: MIT\r\npragma solidity >=0.8.0 <0.9.0;\r\n\r\ninterface IRandomNumberVRF{\r\n    function getRandomNumber() external returns (bytes32 requestId);\r\n    function getRandomRangeNumber(address _user, uint a, uint b) external returns(uint256);\r\n}\r\ninterface IstakingNFT{\r\n    function newPlay() external payable;\r\n}\r\ncontract rpsGame  {    \r\n    address owner; // Dueo del contrato, maximo rango de acceso (mover fondos de la pool)\r\n    IRandomNumberVRF randomLinkContract; //Direccion de VRF random contract\r\n    address payable addressStaking;\r\n    IstakingNFT NFTHolders; //Direccion de contrato staking\r\n    address devWalletFees;  //Direccion del fee para los devs\r\n\r\n    uint public feeForNFTHolders = 250; //% del fee para nftHolders (100 = 1%)\r\n    uint public feeForDevs = 100; //Fee para los el equipo de desarrollo\r\n\r\n    bool public onOff = true; // to pause play function\r\n    uint totalFee = feeForNFTHolders + feeForDevs;\r\n    uint maxDeal; //Max Value in Play fuction\r\n    uint minBalanceToPay; // balance minimo que tiene que tener el contrato, para poder pagar.\r\n    uint protectedTime = 3;\r\n    mapping (address => uint) public debtPerUser; //Usado para pagar las deudas.\r\n    \r\n    string[3] RPSop = ['rock','paper', 'scissors']; // 0 = Rock, 1 = paper, 2=scissors\r\n    //for testin gass\r\n    uint public totalWins;\r\n    uint public totalLoses;\r\n    mapping(address => uint[2])  winLosesPerUser;\r\n    mapping(address => uint[2])  winLosesRache;\r\n    mapping(address => uint)  timeLock;\r\n\r\n    modifier onlyOwner(){\r\n        require(msg.sender == owner);\r\n        _;\r\n    }\r\n   \r\n//EVENTS\r\n    event Play(address,uint,uint,bool,uint);// User ,apuesta ,racha, result, NumeroAleatoreo\r\n    event C_setNFTHoldersAddress(address,IstakingNFT); // C_(Change), (Msg.sender,NewAdrres)\r\n    event C_setDevAddress(address,address);//Change devWalletFees (msg.sender, NewAddress)\r\n    event C_setFeeForNFTHolders(address,uint);// Change feeForNFTHolders(msg.sender, newValue)\r\n    event C_setFeeForDevs(address,uint);// Change feeFordevs(msg.sender, newValue)\r\n    event C_setMaxDeal(address,uint);// change max value in Play fuction (msg.sender, newMaxValue)\r\n    event FoundsIn(address, uint);//\r\n    event FoundsOut(address,uint,address); // withdraw found of this contract(msg.sender, total, address founds)\r\n    event OwnershipTransferred(address indexed previousOwner, address indexed newOwner);\r\n\r\n    constructor (\r\n        address _owner,         \r\n        address _devWallet, \r\n        address payable _NFTholders,\r\n        IRandomNumberVRF _randomLinkContract\r\n    ){\r\n        owner = _owner;\r\n        addressStaking = _NFTholders;\r\n        NFTHolders = IstakingNFT(_NFTholders);\r\n        devWalletFees = _devWallet;\r\n        randomLinkContract = _randomLinkContract;\r\n        maxDeal = 1 ether;\r\n        minBalanceToPay = 2 ether; \r\n    }\r\n\r\n//FUNCTIONS FOR USERS\r\n\r\n    //MSG.value = deal + totalFEE%\r\n    function play( uint _value) public payable returns(bool results){\r\n        require(onOff == true, \"Play in pause\");\r\n        require((timeLock[msg.sender] + protectedTime) < block.timestamp );\r\n        uint fee = calculateFee(_value);\r\n        require(msg.value <= (maxDeal + fee));\r\n        require(msg.value > 0);\r\n        require( (_value+fee) == msg.value);\r\n        timeLock[msg.sender] = block.timestamp;\r\n\r\n        payable(devWalletFees).transfer(_value * feeForDevs  / 10000);\r\n        NFTHolders.newPlay{value:(_value * feeForNFTHolders / 10000)}();\r\n        //getRandom is internal!\r\n        uint rand = getRandomRangeLink(msg.sender,1,100);\r\n        if(rand >= 50){\r\n            if(checkBalance(_value * 2)){\r\n                payable(msg.sender).transfer(_value * 2);\r\n            }else {\r\n                payable(msg.sender).transfer(_value );\r\n                debtPerUser[msg.sender] += _value;\r\n            }            \r\n            results = true;\r\n            totalWins++;\r\n            winLosesPerUser[msg.sender][1]++;\r\n            winLosesRache[msg.sender][0]++;\r\n            if(winLosesRache[msg.sender][0] > winLosesRache[msg.sender][1]){\r\n                winLosesRache[msg.sender][1] == winLosesRache[msg.sender][0];\r\n            }\r\n            //liquidity.win(msg.sender, _value);\r\n        }else {\r\n            results = false;\r\n            totalLoses++;\r\n            winLosesPerUser[msg.sender][0]++;\r\n            delete winLosesRache[msg.sender][0];            \r\n        }\r\n        \r\n        emit Play(msg.sender,_value,winLosesRache[msg.sender][0],results,rand);\r\n        //leaderBoard(result)\r\n\r\n    }\r\n    function claimDebt() public {\r\n        require (checkBalance(debtPerUser[msg.sender]) == true);\r\n        require(debtPerUser[msg.sender] > 0, \"no tiene fondos para claimear\" );\r\n        uint toPay = debtPerUser[msg.sender];\r\n        delete debtPerUser[msg.sender];\r\n        payable(msg.sender).transfer(toPay);\r\n    }\r\n   \r\n//other functions\r\n    function calculateFee(uint _value)public view returns(uint){\r\n        uint txFee = _value * totalFee / 10000;\r\n        return txFee;\r\n    }\r\n    function calculateValue(uint _value)public view returns(uint){\r\n        uint totalValue = calculateFee(_value) + _value;\r\n        return totalValue;\r\n    }\r\n    function viewTimeProtected(address _address) public view returns(uint){\r\n        return timeLock[_address];\r\n    }\r\n\r\n//internal\r\n    function getRandomRangeLink(address _user,uint a, uint b) internal returns(uint){\r\n        uint random = randomLinkContract.getRandomRangeNumber(_user,a,b);\r\n        if (random == 0 ) {random = 1;}\r\n        return random;\r\n    }\r\n    function checkBalance(uint _value) internal view returns(bool){\r\n        if((address(this).balance) + _value > minBalanceToPay){\r\n            return true;\r\n        }else {\r\n            return false;\r\n        }\r\n    }\r\n\r\n//SETTERS\r\n    \r\n    //Cambiar direccion del contrato a donde va el 2% para los que posen nfts\r\n    function setNFTHoldersAddress(address payable _newNFTholders) public onlyOwner{\r\n        NFTHolders = IstakingNFT(_newNFTholders);\r\n        emit C_setNFTHoldersAddress(msg.sender, IstakingNFT(_newNFTholders));\r\n    }\r\n\r\n    //Cambiar la direccion donde va el 1.5%(devFee)\r\n    function setDevAddress(address _newDevWalletFees) public onlyOwner {\r\n        devWalletFees = _newDevWalletFees;\r\n        emit C_setDevAddress(msg.sender,devWalletFees);\r\n    }\r\n\r\n    //Cambia el % de fee que es destinado a holders\r\n    function setFeeForNFTHolders(uint _newFeeForNFTHolders) public onlyOwner{\r\n        require((feeForDevs + _newFeeForNFTHolders) < 2000);\r\n        feeForNFTHolders = _newFeeForNFTHolders;\r\n        totalFee = feeForNFTHolders + feeForDevs;\r\n        emit C_setFeeForNFTHolders(msg.sender,_newFeeForNFTHolders);\r\n    }\r\n\r\n    //Cambia el % de fee que es destinado a Devs\r\n    function setFeeForDevs(uint _newFeeForDevs) public onlyOwner{\r\n        require((_newFeeForDevs+feeForNFTHolders) < 5000);\r\n        feeForDevs = _newFeeForDevs;\r\n        totalFee = feeForNFTHolders + feeForDevs;\r\n        emit C_setFeeForDevs(msg.sender,_newFeeForDevs);\r\n    }\r\n\r\n    //Cambia el maximo disponible en una misma jugada.\r\n    function setMaxDeal(uint _newMaxDeal) public onlyOwner{\r\n        require(_newMaxDeal > ((address(this).balance)/10));\r\n        maxDeal = _newMaxDeal;\r\n        emit C_setMaxDeal(msg.sender,_newMaxDeal);\r\n    }\r\n\r\n    //min balance in this contract, to pay \r\n    function setMinBalanceToPay(uint _minBalance) public onlyOwner(){\r\n        minBalanceToPay =_minBalance;\r\n    }\r\n    function setProtectedTime(uint _NewprotectedTime) public onlyOwner(){\r\n        protectedTime = _NewprotectedTime;\r\n    }\r\n\r\n    //funcion que pone en pausa el juego.\r\n    function pause(bool _bool)public onlyOwner{\r\n         onOff = _bool;\r\n    }\r\n\r\n    function trasnferFoundsOUT(uint _amount, address _to) public payable onlyOwner(){\r\n        payable(_to).transfer(_amount);\r\n        onOff = false;\r\n        emit FoundsOut(msg.sender, _amount,_to);\r\n    }\r\n\r\n    //trasnfiere valor, usao para testeo\r\n    function trasnferFoundsIN()public payable returns(bool){\r\n        require(msg.value > 10);\r\n        emit FoundsIn(msg.sender,msg.value);\r\n        return true;\r\n    }\r\n\r\n    function renounceOwnership() public virtual onlyOwner {\r\n        _transferOwnership(address(0));\r\n    }\r\n\r\n    function transferOwnership(address newOwner) public virtual onlyOwner {\r\n        require(newOwner != address(0), \"Ownable: new owner is the zero address\");\r\n        _transferOwnership(newOwner);\r\n    }\r\n\r\n    function _transferOwnership(address newOwner) internal virtual {\r\n        address oldOwner = owner;\r\n        owner = newOwner;\r\n        emit OwnershipTransferred(oldOwner, newOwner);\r\n    }\r\n\r\n    function timeBlock() public view returns(uint){\r\n        return block.timestamp;\r\n    }\r\n}",
  "sourcePath": "/home/guillermo/dapps/rpsProject/blockEnd/contracts/rpsGame.sol",
  "compiler": {
    "name": "solc",
    "version": "0.8.7+commit.e28d00a7.Emscripten.clang"
  },
  "schemaVersion": "3.4.1",
  "updatedAt": "2022-03-01T19:16:53.760Z",
  "devdoc": {
    "kind": "dev",
    "methods": {},
    "version": 1
  },
  "userdoc": {
    "kind": "user",
    "methods": {},
    "version": 1
  }
}