{
  "contractName": "rpsGame",
  "abi": [
    {
      "inputs": [
        {
          "internalType": "address",
          "name": "_nftholders",
          "type": "address"
        },
        {
          "internalType": "address",
          "name": "_devWallet",
          "type": "address"
        },
        {
          "internalType": "contract IRadom",
          "name": "_randomContract",
          "type": "address"
        }
      ],
      "stateMutability": "nonpayable",
      "type": "constructor"
    },
    {
      "anonymous": false,
      "inputs": [
        {
          "indexed": false,
          "internalType": "address",
          "name": "",
          "type": "address"
        }
      ],
      "name": "C_setDevAddress",
      "type": "event"
    },
    {
      "anonymous": false,
      "inputs": [
        {
          "indexed": false,
          "internalType": "address",
          "name": "",
          "type": "address"
        }
      ],
      "name": "C_setFeeForDevs",
      "type": "event"
    },
    {
      "anonymous": false,
      "inputs": [
        {
          "indexed": false,
          "internalType": "address",
          "name": "",
          "type": "address"
        }
      ],
      "name": "C_setFeeForNFTHolders",
      "type": "event"
    },
    {
      "anonymous": false,
      "inputs": [
        {
          "indexed": false,
          "internalType": "address",
          "name": "",
          "type": "address"
        }
      ],
      "name": "C_setMaxDeal",
      "type": "event"
    },
    {
      "anonymous": false,
      "inputs": [
        {
          "indexed": false,
          "internalType": "address",
          "name": "",
          "type": "address"
        }
      ],
      "name": "C_setNFTHoldersAddress",
      "type": "event"
    },
    {
      "anonymous": false,
      "inputs": [
        {
          "indexed": false,
          "internalType": "address",
          "name": "",
          "type": "address"
        },
        {
          "indexed": false,
          "internalType": "uint256",
          "name": "",
          "type": "uint256"
        },
        {
          "indexed": false,
          "internalType": "bool",
          "name": "",
          "type": "bool"
        },
        {
          "indexed": false,
          "internalType": "uint256",
          "name": "",
          "type": "uint256"
        }
      ],
      "name": "Play",
      "type": "event"
    },
    {
      "inputs": [],
      "name": "feeForDevs",
      "outputs": [
        {
          "internalType": "uint256",
          "name": "",
          "type": "uint256"
        }
      ],
      "stateMutability": "view",
      "type": "function"
    },
    {
      "inputs": [],
      "name": "feeForNFTHolders",
      "outputs": [
        {
          "internalType": "uint256",
          "name": "",
          "type": "uint256"
        }
      ],
      "stateMutability": "view",
      "type": "function"
    },
    {
      "inputs": [],
      "name": "totalLoses",
      "outputs": [
        {
          "internalType": "uint256",
          "name": "",
          "type": "uint256"
        }
      ],
      "stateMutability": "view",
      "type": "function"
    },
    {
      "inputs": [],
      "name": "totalWins",
      "outputs": [
        {
          "internalType": "uint256",
          "name": "",
          "type": "uint256"
        }
      ],
      "stateMutability": "view",
      "type": "function"
    },
    {
      "inputs": [
        {
          "internalType": "address",
          "name": "",
          "type": "address"
        },
        {
          "internalType": "uint256",
          "name": "",
          "type": "uint256"
        }
      ],
      "name": "winLosesPerUser",
      "outputs": [
        {
          "internalType": "uint256",
          "name": "",
          "type": "uint256"
        }
      ],
      "stateMutability": "view",
      "type": "function"
    },
    {
      "inputs": [
        {
          "internalType": "address",
          "name": "",
          "type": "address"
        },
        {
          "internalType": "uint256",
          "name": "",
          "type": "uint256"
        }
      ],
      "name": "winLosesRache",
      "outputs": [
        {
          "internalType": "uint256",
          "name": "",
          "type": "uint256"
        }
      ],
      "stateMutability": "view",
      "type": "function"
    },
    {
      "inputs": [
        {
          "internalType": "uint256",
          "name": "_value",
          "type": "uint256"
        }
      ],
      "name": "playUno",
      "outputs": [
        {
          "internalType": "bool",
          "name": "results",
          "type": "bool"
        }
      ],
      "stateMutability": "payable",
      "type": "function"
    },
    {
      "inputs": [
        {
          "internalType": "uint256",
          "name": "_value",
          "type": "uint256"
        }
      ],
      "name": "calculateFee",
      "outputs": [
        {
          "internalType": "uint256",
          "name": "",
          "type": "uint256"
        }
      ],
      "stateMutability": "view",
      "type": "function"
    },
    {
      "inputs": [
        {
          "internalType": "uint256",
          "name": "_value",
          "type": "uint256"
        }
      ],
      "name": "calculateValue",
      "outputs": [
        {
          "internalType": "uint256",
          "name": "",
          "type": "uint256"
        }
      ],
      "stateMutability": "view",
      "type": "function"
    },
    {
      "inputs": [
        {
          "internalType": "address",
          "name": "_user",
          "type": "address"
        },
        {
          "internalType": "uint256",
          "name": "a",
          "type": "uint256"
        },
        {
          "internalType": "uint256",
          "name": "b",
          "type": "uint256"
        }
      ],
      "name": "getRandom",
      "outputs": [
        {
          "internalType": "uint256",
          "name": "",
          "type": "uint256"
        }
      ],
      "stateMutability": "view",
      "type": "function"
    },
    {
      "inputs": [
        {
          "internalType": "address",
          "name": "_newNFTHolders",
          "type": "address"
        }
      ],
      "name": "setNFTHoldersAddress",
      "outputs": [],
      "stateMutability": "nonpayable",
      "type": "function"
    },
    {
      "inputs": [
        {
          "internalType": "address",
          "name": "_newDevWalletFees",
          "type": "address"
        }
      ],
      "name": "setDevAddress",
      "outputs": [],
      "stateMutability": "nonpayable",
      "type": "function"
    },
    {
      "inputs": [
        {
          "internalType": "uint256",
          "name": "_newFeeForNFTHolders",
          "type": "uint256"
        }
      ],
      "name": "setFeeForNFTHolders",
      "outputs": [],
      "stateMutability": "nonpayable",
      "type": "function"
    },
    {
      "inputs": [
        {
          "internalType": "uint256",
          "name": "_newFeeForDevs",
          "type": "uint256"
        }
      ],
      "name": "setFeeForDevs",
      "outputs": [],
      "stateMutability": "nonpayable",
      "type": "function"
    },
    {
      "inputs": [
        {
          "internalType": "uint256",
          "name": "_newMaxDeal",
          "type": "uint256"
        }
      ],
      "name": "setMaxDeal",
      "outputs": [],
      "stateMutability": "nonpayable",
      "type": "function"
    },
    {
      "inputs": [],
      "name": "trasnferFounds",
      "outputs": [
        {
          "internalType": "bool",
          "name": "",
          "type": "bool"
        }
      ],
      "stateMutability": "payable",
      "type": "function"
    },
    {
      "inputs": [
        {
          "internalType": "uint256",
          "name": "_value",
          "type": "uint256"
        }
      ],
      "name": "playdos",
      "outputs": [
        {
          "internalType": "bool",
          "name": "results",
          "type": "bool"
        }
      ],
      "stateMutability": "payable",
      "type": "function"
    }
  ],
  "bytecode": "0x608060405260c86004819055609660068190556200001d9162000334565b60075560405180606001604052806040518060400160405280600481526020017f726f636b0000000000000000000000000000000000000000000000000000000081525081526020016040518060400160405280600581526020017f706170657200000000000000000000000000000000000000000000000000000081525081526020016040518060400160405280600881526020017f73636973736f72730000000000000000000000000000000000000000000000008152508152506009906003620000ec92919062000184565b50348015620000fa57600080fd5b5060405162000fd738038062000fd78339810160408190526200011d91620002e0565b6000805433600160a060020a03199182168117909255600180548216909217909155600380548216600160a060020a0395861617905560058054821693851693909317909255600280549092169216919091179055670de0b6b3a7640000600855620003e0565b8260038101928215620001c9579160200282015b82811115620001c95782518051620001b8918491602090910190620001db565b509160200191906001019062000198565b50620001d792915062000266565b5090565b828054620001e99062000374565b90600052602060002090601f0160209004810192826200020d576000855562000258565b82601f106200022857805160ff191683800117855562000258565b8280016001018555821562000258579182015b82811115620002585782518255916020019190600101906200023b565b50620001d792915062000287565b80821115620001d75760006200027d82826200029e565b5060010162000266565b5b80821115620001d7576000815560010162000288565b508054620002ac9062000374565b6000825580601f10620002bd575050565b601f016020900490600052602060002090810190620002dd919062000287565b50565b600080600060608486031215620002f657600080fd5b83516200030381620003ca565b60208501519093506200031681620003ca565b60408501519092506200032981620003ca565b809150509250925092565b600082198211156200036f577f4e487b7100000000000000000000000000000000000000000000000000000000600052601160045260246000fd5b500190565b6002810460018216806200038957607f821691505b60208210811415620003c4577f4e487b7100000000000000000000000000000000000000000000000000000000600052602260045260246000fd5b50919050565b600160a060020a0381168114620002dd57600080fd5b610be780620003f06000396000f3fe60806040526004361061011b576000357c010000000000000000000000000000000000000000000000000000000090048063c123a4e8116100b2578063d0d41fe111610081578063d0d41fe114610278578063d4d63aa814610298578063dd65856f146102ab578063ebf474c4146102cb578063fc5bd80c146102eb57600080fd5b8063c123a4e81461020f578063c8660a321461022f578063caf7f6021461024f578063d03322e31461026257600080fd5b8063777ac349116100ee578063777ac34914610197578063850df61c146101ad57806391c75a2e146101cf57806399a5d747146101ef57600080fd5b806302c355a11461012057806318ec4dbd146101495780632b6e2a081461015f5780635dfd49cc14610177575b600080fd5b34801561012c57600080fd5b5061013660045481565b6040519081526020015b60405180910390f35b34801561015557600080fd5b5061013660065481565b61016761030b565b6040519015158152602001610140565b34801561018357600080fd5b50610136610192366004610a66565b610320565b3480156101a357600080fd5b50610136600c5481565b3480156101b957600080fd5b506101cd6101c8366004610a4b565b610345565b005b3480156101db57600080fd5b506101366101ea366004610ac3565b6103bb565b3480156101fb57600080fd5b5061013661020a366004610ac3565b6103d9565b34801561021b57600080fd5b506101cd61022a366004610ac3565b6103f7565b34801561023b57600080fd5b5061013661024a366004610a90565b610484565b61016761025d366004610ac3565b61053f565b34801561026e57600080fd5b50610136600d5481565b34801561028457600080fd5b506101cd610293366004610a4b565b6106d8565b6101676102a6366004610ac3565b610747565b3480156102b757600080fd5b506101cd6102c6366004610ac3565b61090f565b3480156102d757600080fd5b506101cd6102e6366004610ac3565b61099b565b3480156102f757600080fd5b50610136610306366004610a66565b610a13565b6000600a341161031a57600080fd5b50600190565b600e602052816000526040600020816002811061033c57600080fd5b01549150829050565b600054600160a060020a0316331461035c57600080fd5b6003805473ffffffffffffffffffffffffffffffffffffffff1916600160a060020a0383161790556040513381527fb4106a2a3794e5f334bb7854df5b32cb273071391da593ecde1795c196de0b2f906020015b60405180910390a150565b600080826103c8846103d9565b6103d29190610af5565b9392505050565b600080612710600754846103ed9190610b48565b6103d29190610b0d565b600154600160a060020a031633148061041a5750600054600160a060020a031633145b61042357600080fd5b611388600454826104349190610af5565b1061043e57600080fd5b6006819055600454610451908290610af5565b6007556040513381527ff9236cdc99a16ee9ae6527ecb91c12c3cb15fdbf4d8b6294ca7f677ce062367b906020016103b0565b6002546040517fca5218790000000000000000000000000000000000000000000000000000000081526004810184905260248101839052600160a060020a038581166044830152600092839291169063ca5218799060640160206040518083038186803b1580156104f457600080fd5b505afa158015610508573d6000803e3d6000fd5b505050506040513d601f19601f8201168201806040525081019061052c9190610adc565b905080610537575060015b949350505050565b60008061054b836103d9565b90508060085461055b9190610af5565b34111561056757600080fd5b346105728285610af5565b1461057c57600080fd5b600061058b3360006064610484565b9050603281106105d657336108fc6105a4866002610b48565b6040518115909202916000818181858888f193505050501580156105cc573d6000803e3d6000fd5b50600192506105db565b600092505b600354600454600160a060020a03909116906108fc90612710906105ff9088610b48565b6106099190610b0d565b6040518115909202916000818181858888f19350505050158015610631573d6000803e3d6000fd5b50600554600654600160a060020a03909116906108fc90612710906106569088610b48565b6106609190610b0d565b6040518115909202916000818181858888f19350505050158015610688573d6000803e3d6000fd5b506040805133815260208101869052841515818301526060810183905290517f52e4c06c1534ad13b9c0bad1b9252d826eef258a898d8c6ef8ed9bd68b8c8b679181900360800190a15050919050565b600054600160a060020a031633146106ef57600080fd5b6005805473ffffffffffffffffffffffffffffffffffffffff1916600160a060020a0383161790556040513381527f818d7ca36ba4af0ab307d812089524d44aa0f54cab948cd3c7487de7d1aff6a4906020016103b0565b600080610753836103d9565b9050806008546107639190610af5565b34111561076f57600080fd5b3461077a8285610af5565b1461078457600080fd5b60006107933360006064610484565b90506032811061087157336108fc6107ac866002610b48565b6040518115909202916000818181858888f193505050501580156107d4573d6000803e3d6000fd5b50600c8054600194509060006107e983610b67565b9091555050336000908152600e6020526040812060010180549161080c83610b67565b9091555050336000908152600f60205260409020546001141561085457336000908152600f6020526040902060015b01805490600061084a83610b67565b91905055506105db565b336000908152600f602052604090206001808255908101556105db565b600d805460009450908461088483610b67565b9091555050336000908152600e602052604081208054916108a483610b67565b9091555050336000908152600f60205260409020546108d357336000908152600f60205260409020600161083b565b336000908152600f60205260408120908155600190810155600354600454600160a060020a03909116906108fc90612710906105ff9088610b48565b600154600160a060020a03163314806109325750600054600160a060020a031633145b61093b57600080fd5b6113888160065461094c9190610af5565b1061095657600080fd5b60048190556006546109689082610af5565b6007556040513381527f552fc8542e29bc39ddbceafb4cb2904a687bf8c28f3046f756e8ccd948d3c89b906020016103b0565b600154600160a060020a03163314806109be5750600054600160a060020a031633145b6109c757600080fd5b6109d3600a3031610b0d565b81116109de57600080fd5b60088190556040513381527f1c17aba0086d0ddb9ac195f0d62851cf49020359f014f0f25ad43a5a18c5ba11906020016103b0565b600f602052816000526040600020816002811061033c57600080fd5b8035600160a060020a0381168114610a4657600080fd5b919050565b600060208284031215610a5d57600080fd5b6103d282610a2f565b60008060408385031215610a7957600080fd5b610a8283610a2f565b946020939093013593505050565b600080600060608486031215610aa557600080fd5b610aae84610a2f565b95602085013595506040909401359392505050565b600060208284031215610ad557600080fd5b5035919050565b600060208284031215610aee57600080fd5b5051919050565b60008219821115610b0857610b08610b82565b500190565b600082610b43577f4e487b7100000000000000000000000000000000000000000000000000000000600052601260045260246000fd5b500490565b6000816000190483118215151615610b6257610b62610b82565b500290565b6000600019821415610b7b57610b7b610b82565b5060010190565b7f4e487b7100000000000000000000000000000000000000000000000000000000600052601160045260246000fdfea2646970667358221220860e166226e4306da949ac4ba6b8402e4dc43ab54605e3741c6c0ae4adcdae2364736f6c63430008070033",
  "immutableReferences": {},
  "source": "/**\r\n *Submitted for verification at BscScan.com on 2022-01-29\r\n*/\r\n\r\n// File: contracts/utils/random.sol\r\n\r\n\r\npragma solidity >=0.7.0 <0.9.0;\r\n\r\n/*\r\n#    Copyright (C) 2017  alianse777\r\n#    This program is free software: you can redistribute it and/or modify\r\n#    it under the terms of the GNU General Public License as published by\r\n#    the Free Software Foundation, either version 3 of the License, or\r\n#    (at your option) any later version.\r\n#\r\n#    This program is distributed in the hope that it will be useful,\r\n#    but WITHOUT ANY WARRANTY; without even the implied warranty of\r\n#    MERCHANTABILITY or FITNESS FOR A PARTICULAR PURPOSE.  See the\r\n#    GNU General Public License for more details.\r\n#\r\n#    You should have received a copy of the GNU General Public License\r\n#    along with this program.  If not, see <http://www.gnu.org/licenses/>.\r\n*/\r\n\r\n/* \"random\" numbers generator (not cryptographicaly secure)\r\n   rand(uint seed) - returns random number generated by seed\r\n   randint() - returns random number with current time as seed\r\n   randbytes(uint size) - returns byte array of random bytes\r\n*/\r\n\r\n\r\ncontract Random {\r\n    address owner;\r\n    uint seed;\r\n    modifier onlyOwner() {\r\n        require (msg.sender == owner);\r\n        _;\r\n    }\r\n\r\n    constructor(){ \r\n        //balances :D       \r\n        owner = msg.sender;\r\n    }\r\n\r\n    function NewSeed(string memory _randomString)\r\n        public                \r\n        returns(uint256)\r\n    {\r\n    \r\n        seed = (uint256(keccak256(abi.encodePacked(_randomString))))/(block.timestamp*100);\r\n        return seed;\r\n    }\r\n   \r\n    function rand(address _user)\r\n        public\r\n        view  \r\n        returns(uint256)\r\n    {\r\n        uint balance = address(_user).balance;\r\n        uint256 randNum = uint256(keccak256(abi.encodePacked(block.timestamp + block.difficulty + block.number + \r\n            ((uint256(keccak256(abi.encodePacked(_user,balance))))\r\n             ))));\r\n            return randNum;\r\n    }   \r\n\r\n    \r\n    /**\r\n     * @dev Generate random uint in range [a, b]\r\n     * @return uint\r\n     */\r\n    function randrange(uint a, uint b,address _user) external view returns(uint) {\r\n        return a + (rand(_user) % b);\r\n    }\r\n    function blockTime()public view returns(uint){\r\n        return block.timestamp;\r\n    }\r\n    function blockNum()public view returns(uint){\r\n        return block.number;\r\n    }\r\n    \r\n}\r\n// File: contracts/rpsGame.sol\r\n\r\n//SPDX-License-Identifier: MIT\r\npragma solidity >=0.8.0 <0.9.0;\r\n\r\ninterface IRadom{\r\n    function rand(address _user) external view returns(uint256);\r\n    function randrange(uint a, uint b,address _user) external view returns(uint);\r\n}\r\n\r\ncontract rpsGame  {\r\n    /* TODO: rock papper and seassors\r\n    * Function : play\r\n    * Function : setPrice (For Tokens or blockchain currenci? )\r\n    * VARIABLES:\r\n    * * feeForNFTHolders(2%)[]\r\n    * * feeForDevs (1.5)\r\n    * * PoolTransfers (this)\r\n    * * maxDeal (apuesta maxima)\r\n    * Laderboard(Top 500?)\r\n    */\r\n    address owner; // Dueo del contrato, maximo rango de acceso (mover fondos de la pool)\r\n    address admin; // Funciones para editar parametros de nivel medio (editar precios, fees)\r\n    IRadom randomContract; //Direccion del contrato de numeros aleatoreos\r\n\r\n    address NFTHolders; //Direccion del contrato que repartira la recompenza a los holders\r\n    uint public feeForNFTHolders = 200; //% del fee para nftHolders (100 = 1%)\r\n\r\n    address devWalletFees;  //Direccion del fee para los devs\r\n    uint public feeForDevs = 150; //Fee para los el equipo de desarrollo\r\n\r\n    uint totalFee = feeForNFTHolders + feeForDevs;\r\n    uint maxDeal; //Puja maxima en un mismo juego \r\n    \r\n    string[3] RPSop = ['rock','paper', 'scissors']; // 0 = Rock, 1 = paper, 2=scissors\r\n    //for testin gass\r\n    uint public totalWins;\r\n    uint public totalLoses;\r\n    mapping(address => uint[2]) public winLosesPerUser;\r\n    mapping(address => uint[2]) public winLosesRache;\r\n\r\n    modifier onlyOwner(){\r\n        require(msg.sender == owner);\r\n        _;\r\n    }\r\n    modifier forAdmins() {\r\n        require(msg.sender == admin || msg.sender == owner);\r\n        _;\r\n    }\r\n//EVENTS\r\n    event Play(address,uint,bool,uint);// User, your hand, computer hand\r\n    event C_setNFTHoldersAddress(address); // C_(Change), addres owner\r\n    event C_setDevAddress(address);//\r\n    event C_setFeeForNFTHolders(address);\r\n    event C_setFeeForDevs(address);\r\n    event C_setMaxDeal(address);\r\n\r\n    constructor ( address _nftholders, address _devWallet,IRadom _randomContract){\r\n        owner = msg.sender;\r\n        admin = msg.sender;\r\n        NFTHolders = _nftholders;\r\n        devWalletFees = _devWallet;\r\n        randomContract = _randomContract;\r\n        maxDeal = 1 ether;\r\n    }\r\n\r\n//FUNCTIONS FOR USERS\r\n\r\n    //MSG.value = deal + totalFEE%\r\n    function playUno( uint _value) public payable returns(bool results){\r\n        uint fee = calculateFee(_value);\r\n        require(msg.value <= (maxDeal + fee));\r\n        require( (_value+fee) == msg.value);\r\n        uint rand = getRandom(msg.sender,0,100);\r\n        if(rand >= 50){\r\n            payable(msg.sender).transfer(_value * 2);\r\n            results = true;\r\n        }else {\r\n            results = false;\r\n        }\r\n        payable(NFTHolders).transfer(_value * feeForNFTHolders / 10000);\r\n        payable(devWalletFees).transfer(_value * feeForDevs  / 10000);\r\n        emit Play(msg.sender,_value,results,rand);\r\n        //leaderBoard(result)\r\n\r\n    }\r\n//other functions\r\n    function calculateFee(uint _value)public view returns(uint){\r\n        uint txFee = _value * totalFee / 10000;\r\n        return txFee;\r\n    }\r\n    function calculateValue(uint _value)public view returns(uint){\r\n        uint totalValue = calculateFee(_value) + _value;\r\n        return totalValue;\r\n    }\r\n\r\n//internal\r\n    function getRandom(address _user, uint a, uint b) public view returns(uint){\r\n        uint random = randomContract.randrange(a,b,_user);\r\n        if (random == 0 ) {random = 1;}\r\n        return random;\r\n    }\r\n\r\n\r\n//SETTERS\r\n    \r\n    //Cambiar direccion del contrato a donde va el 2% para los que posen nfts\r\n    function setNFTHoldersAddress(address _newNFTHolders) public onlyOwner{\r\n        NFTHolders = _newNFTHolders;\r\n        emit C_setNFTHoldersAddress(msg.sender);\r\n    }\r\n    //Cambiar la direccion donde va el 1.5%(devFee)\r\n    function setDevAddress(address _newDevWalletFees) public onlyOwner {\r\n        devWalletFees = _newDevWalletFees;\r\n        emit C_setDevAddress(msg.sender);\r\n    }\r\n    //Cambia el % de fee que es destinado a holders\r\n    function setFeeForNFTHolders(uint _newFeeForNFTHolders) public forAdmins{\r\n        require((feeForDevs + _newFeeForNFTHolders) < 5000);\r\n        feeForNFTHolders = _newFeeForNFTHolders;\r\n        totalFee = feeForNFTHolders + feeForDevs;\r\n        emit C_setFeeForNFTHolders(msg.sender);\r\n    }\r\n    //Cambia el % de fee que es destinado a Devs\r\n    function setFeeForDevs(uint _newFeeForDevs) public forAdmins{\r\n        require((_newFeeForDevs+feeForNFTHolders) < 5000);\r\n        feeForDevs = _newFeeForDevs;\r\n        totalFee = feeForNFTHolders + feeForDevs;\r\n        emit C_setFeeForDevs(msg.sender);\r\n    }\r\n    //Cambia el maximo disponible en una misma jugada.\r\n    function setMaxDeal(uint _newMaxDeal) public forAdmins{\r\n        require(_newMaxDeal > ((address(this).balance)/10));\r\n        maxDeal = _newMaxDeal;\r\n        emit C_setMaxDeal(msg.sender);\r\n    }\r\n\r\n    //trasnfiere valor, usao para testeo\r\n    function trasnferFounds()public payable returns(bool){\r\n        require(msg.value > 10);\r\n        return true;\r\n    }\r\n\r\n    function playdos( uint _value) public payable returns(bool results){\r\n        uint fee = calculateFee(_value);\r\n        require(msg.value <= (maxDeal + fee));\r\n        require( (_value+fee) == msg.value);\r\n        uint rand = getRandom(msg.sender,0,100);\r\n        if(rand >= 50){\r\n            payable(msg.sender).transfer(_value * 2);\r\n            results = true;\r\n            totalWins++;\r\n            winLosesPerUser[msg.sender][1]++;\r\n            if(winLosesRache[msg.sender][0] == 1){\r\n                winLosesRache[msg.sender][1]++;\r\n            }else{\r\n                winLosesRache[msg.sender][0] = 1;\r\n                winLosesRache[msg.sender][1] = 1;\r\n            }\r\n        }else {\r\n            results = false;\r\n            totalLoses++;\r\n            winLosesPerUser[msg.sender][0]++;\r\n            if(winLosesRache[msg.sender][0] == 0){\r\n                winLosesRache[msg.sender][1]++;\r\n            }else{\r\n                delete winLosesRache[msg.sender][0];\r\n                winLosesRache[msg.sender][1] = 1;\r\n            }\r\n        }\r\n        payable(NFTHolders).transfer(_value * feeForNFTHolders / 10000);\r\n        payable(devWalletFees).transfer(_value * feeForDevs  / 10000);\r\n        emit Play(msg.sender,_value,results,rand);\r\n        //leaderBoard(result)\r\n\r\n    }\r\n\r\n//LeaderBoard\r\n\r\n\r\n}",
  "sourcePath": "/home/guillermo/dapps/rpsProject/blockEnd/contracts/rpsGame.sol",
  "compiler": {
    "name": "solc",
    "version": "0.8.7+commit.e28d00a7.Emscripten.clang"
  },
  "schemaVersion": "3.4.3",
  "updatedAt": "2022-01-30T13:04:45.439Z",
  "devdoc": {
    "kind": "dev",
    "methods": {},
    "version": 1
  },
  "userdoc": {
    "kind": "user",
    "methods": {},
    "version": 1
  }
}