{
  "contractName": "Santaflip",
  "abi": [
    {
      "anonymous": false,
      "inputs": [
        {
          "indexed": true,
          "internalType": "uint256",
          "name": "betId",
          "type": "uint256"
        },
        {
          "indexed": true,
          "internalType": "address",
          "name": "player",
          "type": "address"
        },
        {
          "indexed": false,
          "internalType": "uint256",
          "name": "amount",
          "type": "uint256"
        }
      ],
      "name": "BetPlaced",
      "type": "event"
    },
    {
      "anonymous": false,
      "inputs": [
        {
          "indexed": true,
          "internalType": "uint256",
          "name": "betId",
          "type": "uint256"
        },
        {
          "indexed": true,
          "internalType": "address",
          "name": "player",
          "type": "address"
        },
        {
          "indexed": false,
          "internalType": "uint256",
          "name": "amount",
          "type": "uint256"
        }
      ],
      "name": "BetRefunded",
      "type": "event"
    },
    {
      "anonymous": false,
      "inputs": [
        {
          "indexed": true,
          "internalType": "address",
          "name": "previousOwner",
          "type": "address"
        },
        {
          "indexed": true,
          "internalType": "address",
          "name": "newOwner",
          "type": "address"
        }
      ],
      "name": "OwnershipTransferred",
      "type": "event"
    },
    {
      "anonymous": false,
      "inputs": [
        {
          "indexed": true,
          "internalType": "uint256",
          "name": "betId",
          "type": "uint256"
        },
        {
          "indexed": true,
          "internalType": "address",
          "name": "player",
          "type": "address"
        },
        {
          "indexed": false,
          "internalType": "uint256",
          "name": "amount",
          "type": "uint256"
        },
        {
          "indexed": false,
          "internalType": "uint256",
          "name": "outcome",
          "type": "uint256"
        },
        {
          "indexed": false,
          "internalType": "uint256",
          "name": "winAmount",
          "type": "uint256"
        }
      ],
      "name": "Play",
      "type": "event"
    },
    {
      "inputs": [],
      "name": "VRFManagerAddress",
      "outputs": [
        {
          "internalType": "address",
          "name": "",
          "type": "address"
        }
      ],
      "stateMutability": "view",
      "type": "function"
    },
    {
      "inputs": [
        {
          "internalType": "bytes32",
          "name": "",
          "type": "bytes32"
        },
        {
          "internalType": "uint256",
          "name": "",
          "type": "uint256"
        }
      ],
      "name": "betMap",
      "outputs": [
        {
          "internalType": "uint256",
          "name": "",
          "type": "uint256"
        }
      ],
      "stateMutability": "view",
      "type": "function"
    },
    {
      "inputs": [
        {
          "internalType": "uint256",
          "name": "",
          "type": "uint256"
        }
      ],
      "name": "bets",
      "outputs": [
        {
          "internalType": "uint40",
          "name": "outcome",
          "type": "uint40"
        },
        {
          "internalType": "uint168",
          "name": "placeBlockNumber",
          "type": "uint168"
        },
        {
          "internalType": "uint128",
          "name": "amount",
          "type": "uint128"
        },
        {
          "internalType": "uint128",
          "name": "winAmount",
          "type": "uint128"
        },
        {
          "internalType": "address",
          "name": "player",
          "type": "address"
        },
        {
          "internalType": "bool",
          "name": "isSettled",
          "type": "bool"
        }
      ],
      "stateMutability": "view",
      "type": "function"
    },
    {
      "inputs": [],
      "name": "betsLength",
      "outputs": [
        {
          "internalType": "uint256",
          "name": "",
          "type": "uint256"
        }
      ],
      "stateMutability": "view",
      "type": "function"
    },
    {
      "inputs": [
        {
          "internalType": "uint256",
          "name": "_value",
          "type": "uint256"
        }
      ],
      "name": "calculateFee",
      "outputs": [
        {
          "internalType": "uint256",
          "name": "",
          "type": "uint256"
        }
      ],
      "stateMutability": "view",
      "type": "function"
    },
    {
      "inputs": [
        {
          "internalType": "uint256",
          "name": "_value",
          "type": "uint256"
        }
      ],
      "name": "calculateValue",
      "outputs": [
        {
          "internalType": "uint256",
          "name": "",
          "type": "uint256"
        }
      ],
      "stateMutability": "view",
      "type": "function"
    },
    {
      "inputs": [],
      "name": "gameIsLive",
      "outputs": [
        {
          "internalType": "bool",
          "name": "",
          "type": "bool"
        }
      ],
      "stateMutability": "view",
      "type": "function"
    },
    {
      "inputs": [],
      "name": "houseEdgeBP",
      "outputs": [
        {
          "internalType": "uint256",
          "name": "",
          "type": "uint256"
        }
      ],
      "stateMutability": "view",
      "type": "function"
    },
    {
      "inputs": [
        {
          "internalType": "address",
          "name": "_address",
          "type": "address"
        }
      ],
      "name": "initializeHouse",
      "outputs": [],
      "stateMutability": "nonpayable",
      "type": "function"
    },
    {
      "inputs": [
        {
          "internalType": "address",
          "name": "_address",
          "type": "address"
        }
      ],
      "name": "initializeVRFManager",
      "outputs": [],
      "stateMutability": "nonpayable",
      "type": "function"
    },
    {
      "inputs": [],
      "name": "maxBetAmount",
      "outputs": [
        {
          "internalType": "uint256",
          "name": "",
          "type": "uint256"
        }
      ],
      "stateMutability": "view",
      "type": "function"
    },
    {
      "inputs": [],
      "name": "maxCoinsBettable",
      "outputs": [
        {
          "internalType": "uint256",
          "name": "",
          "type": "uint256"
        }
      ],
      "stateMutability": "view",
      "type": "function"
    },
    {
      "inputs": [],
      "name": "minBetAmount",
      "outputs": [
        {
          "internalType": "uint256",
          "name": "",
          "type": "uint256"
        }
      ],
      "stateMutability": "view",
      "type": "function"
    },
    {
      "inputs": [],
      "name": "nftHoldersRewardsBP",
      "outputs": [
        {
          "internalType": "uint256",
          "name": "",
          "type": "uint256"
        }
      ],
      "stateMutability": "view",
      "type": "function"
    },
    {
      "inputs": [],
      "name": "owner",
      "outputs": [
        {
          "internalType": "address",
          "name": "",
          "type": "address"
        }
      ],
      "stateMutability": "view",
      "type": "function"
    },
    {
      "inputs": [],
      "name": "renounceOwnership",
      "outputs": [],
      "stateMutability": "nonpayable",
      "type": "function"
    },
    {
      "inputs": [
        {
          "internalType": "uint256",
          "name": "_houseEdgeBP",
          "type": "uint256"
        }
      ],
      "name": "setHouseEdgeBP",
      "outputs": [],
      "stateMutability": "nonpayable",
      "type": "function"
    },
    {
      "inputs": [
        {
          "internalType": "uint256",
          "name": "_maxBetAmount",
          "type": "uint256"
        }
      ],
      "name": "setMaxBetAmount",
      "outputs": [],
      "stateMutability": "nonpayable",
      "type": "function"
    },
    {
      "inputs": [
        {
          "internalType": "uint256",
          "name": "_maxCoinsBettable",
          "type": "uint256"
        }
      ],
      "name": "setMaxCoinsBettable",
      "outputs": [],
      "stateMutability": "nonpayable",
      "type": "function"
    },
    {
      "inputs": [
        {
          "internalType": "uint256",
          "name": "_minBetAmount",
          "type": "uint256"
        }
      ],
      "name": "setMinBetAmount",
      "outputs": [],
      "stateMutability": "nonpayable",
      "type": "function"
    },
    {
      "inputs": [
        {
          "internalType": "uint256",
          "name": "_nftHoldersRewardsBP",
          "type": "uint256"
        }
      ],
      "name": "setNftHoldersRewardsBP",
      "outputs": [],
      "stateMutability": "nonpayable",
      "type": "function"
    },
    {
      "inputs": [],
      "name": "toggleGameIsLive",
      "outputs": [],
      "stateMutability": "nonpayable",
      "type": "function"
    },
    {
      "inputs": [],
      "name": "totalLosses",
      "outputs": [
        {
          "internalType": "uint256",
          "name": "",
          "type": "uint256"
        }
      ],
      "stateMutability": "view",
      "type": "function"
    },
    {
      "inputs": [],
      "name": "totalVolume",
      "outputs": [
        {
          "internalType": "uint256",
          "name": "",
          "type": "uint256"
        }
      ],
      "stateMutability": "view",
      "type": "function"
    },
    {
      "inputs": [],
      "name": "totalWins",
      "outputs": [
        {
          "internalType": "uint256",
          "name": "",
          "type": "uint256"
        }
      ],
      "stateMutability": "view",
      "type": "function"
    },
    {
      "inputs": [
        {
          "internalType": "address",
          "name": "newOwner",
          "type": "address"
        }
      ],
      "name": "transferOwnership",
      "outputs": [],
      "stateMutability": "nonpayable",
      "type": "function"
    },
    {
      "inputs": [
        {
          "internalType": "address",
          "name": "beneficiary",
          "type": "address"
        },
        {
          "internalType": "uint256",
          "name": "withdrawAmount",
          "type": "uint256"
        },
        {
          "internalType": "address",
          "name": "token",
          "type": "address"
        }
      ],
      "name": "withdrawCustomTokenFunds",
      "outputs": [],
      "stateMutability": "nonpayable",
      "type": "function"
    },
    {
      "inputs": [
        {
          "internalType": "uint256",
          "name": "_value",
          "type": "uint256"
        }
      ],
      "name": "play",
      "outputs": [],
      "stateMutability": "payable",
      "type": "function"
    },
    {
      "inputs": [
        {
          "internalType": "bytes32",
          "name": "requestId",
          "type": "bytes32"
        },
        {
          "internalType": "uint256[]",
          "name": "expandedValues",
          "type": "uint256[]"
        }
      ],
      "name": "settleBet",
      "outputs": [],
      "stateMutability": "nonpayable",
      "type": "function"
    },
    {
      "inputs": [
        {
          "internalType": "uint256",
          "name": "betId",
          "type": "uint256"
        }
      ],
      "name": "refundBet",
      "outputs": [],
      "stateMutability": "nonpayable",
      "type": "function"
    }
  ],
  "bytecode": "0x6080604052670de0b6b3a76400006004556802b5e3af16b1880000600555600160065561015e600755611d4c60085534801561003a57600080fd5b506001600055610062610054640100000000610067810204565b64010000000061006b810204565b6100bd565b3390565b60018054600160a060020a03838116600160a060020a0319831681179093556040519116919082907f8be0079c531659141344cd1fd0a4f28419497f9722a3daafe3b4186f6b6457e090600090a35050565b611f37806100cc6000396000f3fe6080604052600436106101ea576000357c01000000000000000000000000000000000000000000000000000000009004806391c75a2e11610114578063bf04820b116100b2578063e1fdb4b411610081578063e1fdb4b414610555578063ed507d9814610575578063f2fde38b14610595578063fa968eea146105b557600080fd5b8063bf04820b146104d8578063cab11d5d146104ee578063cfaf178514610504578063d414d0c21461052457600080fd5b8063a585ec77116100ee578063a585ec7714610463578063b14c800914610483578063b68eee2a146104a3578063bbd2e01e146104c357600080fd5b806391c75a2e1461040e57806399a5d7471461042e578063a045a6fc1461044e57600080fd5b80636898f82b1161018c578063777ac3491161015b578063777ac349146103a45780637cfbc7a5146103ba5780637d14bca5146103da5780638da5cb5b146103f057600080fd5b80636898f82b1461033c5780636c1885931461034f578063715018a61461036f57806372da68d21461038457600080fd5b806322af00fa116101c857806322af00fa1461027257806356892a1c146102f05780635f81a57c14610306578063621999be1461031c57600080fd5b80630b96c58d146101ef5780630c55f5f1146102115780630e0284a41461024e575b600080fd5b3480156101fb57600080fd5b5061020f61020a366004611b46565b6105cb565b005b34801561021d57600080fd5b50600c5461023190600160a060020a031681565b604051600160a060020a0390911681526020015b60405180910390f35b34801561025a57600080fd5b5061026460065481565b604051908152602001610245565b34801561027e57600080fd5b5061029261028d366004611b61565b61065d565b6040805164ffffffffff9097168752600160a860020a0390951660208701526fffffffffffffffffffffffffffffffff9384169486019490945291166060840152600160a060020a03166080830152151560a082015260c001610245565b3480156102fc57600080fd5b5061026460085481565b34801561031257600080fd5b50610264600b5481565b34801561032857600080fd5b50610264610337366004611b7a565b6106ec565b61020f61034a366004611b61565b61071d565b34801561035b57600080fd5b5061020f61036a366004611b61565b610b9c565b34801561037b57600080fd5b5061020f610c48565b34801561039057600080fd5b5061020f61039f366004611bb5565b610c81565b3480156103b057600080fd5b5061026460095481565b3480156103c657600080fd5b5061020f6103d5366004611b61565b610dab565b3480156103e657600080fd5b5061026460075481565b3480156103fc57600080fd5b50600154600160a060020a0316610231565b34801561041a57600080fd5b50610264610429366004611b61565b610e57565b34801561043a57600080fd5b50610264610449366004611b61565b610e75565b34801561045a57600080fd5b5061020f610e93565b34801561046f57600080fd5b5061020f61047e366004611b46565b610ef2565b34801561048f57600080fd5b5061020f61049e366004611c7e565b610f85565b3480156104af57600080fd5b5061020f6104be366004611b61565b61109e565b3480156104cf57600080fd5b50600d54610264565b3480156104e457600080fd5b50610264600a5481565b3480156104fa57600080fd5b5061026460055481565b34801561051057600080fd5b5061020f61051f366004611b61565b6110fd565b34801561053057600080fd5b506003546105459060a060020a900460ff1681565b6040519015158152602001610245565b34801561056157600080fd5b5061020f610570366004611b61565b61112f565b34801561058157600080fd5b5061020f610590366004611b61565b61145e565b3480156105a157600080fd5b5061020f6105b0366004611b46565b611490565b3480156105c157600080fd5b5061026460045481565b600154600160a060020a031633146106015760405160e560020a62461bcd0281526004016105f890611cba565b60405180910390fd5b60035460a060020a900460ff161561062e5760405160e560020a62461bcd0281526004016105f890611cef565b6002805473ffffffffffffffffffffffffffffffffffffffff1916600160a060020a0392909216919091179055565b600d818154811061066d57600080fd5b600091825260209091206003909102018054600182015460029092015464ffffffffff8216935065010000000000909104600160a860020a0316916fffffffffffffffffffffffffffffffff808216927001000000000000000000000000000000009092041690600160a060020a0381169060a060020a900460ff1686565b600e602052816000526040600020818154811061070857600080fd5b90600052602060002001600091509150505481565b6002600054036107425760405160e560020a62461bcd0281526004016105f890611d26565b600260005560035460a060020a900460ff166107a35760405160e560020a62461bcd02815260206004820152601060248201527f47616d65206973206e6f74206c6976650000000000000000000000000000000060448201526064016105f8565b60006107ae82610e75565b600454909150349081108015906107c757506005548111155b6108165760405160e560020a62461bcd02815260206004820152601b60248201527f42657420616d6f756e74206e6f742077697468696e2072616e6765000000000060448201526064016105f8565b806108218385611d76565b146108715760405160e560020a62461bcd02815260206004820152601c60248201527f4572726f723a20616d6f756e7420213d2076616c7565202b206665650000000060448201526064016105f8565b600061087c84611548565b905060006108898461155b565b6002546040517ffde6adb100000000000000000000000000000000000000000000000000000000815260048101869052602481018590526044810187905260648101839052919250600160a060020a03169063fde6adb19034906084016000604051808303818588803b1580156108ff57600080fd5b505af1158015610913573d6000803e3d6000fd5b5050600d54600354604080517f485ba9f00000000000000000000000000000000000000000000000000000000081529051929550600e945060009350600160a060020a039091169163485ba9f091600480820192602092909190829003018187875af1158015610987573d6000803e3d6000fd5b505050506040513d601f19601f820116820180604052508101906109ab9190611d8e565b815260208082019290925260400160009081208054600181018255908252918120909101829055600b80548692906109e4908490611d76565b9091555050604051868152339082907f87b9df6fa7123c2e6044c3a3a37b4b0662c188d7a58ef86ee55067c46e4613ad9060200160405180910390a350506040805160c0810182526000808252600160a860020a03438116602084019081526fffffffffffffffffffffffffffffffff98891694840194855260608401838152336080860190815260a08601858152600d805460018181018355918852975160039098027fd7b6990105719101dabeb77144f2a3385c8033acd3af97e9423a695e81ad1eb5810180549651909716650100000000000279ffffffffffffffffffffffffffffffffffffffffffffffffffff1990961664ffffffffff999099169890981794909417909455955190518a16700100000000000000000000000000000000029916989098177fd7b6990105719101dabeb77144f2a3385c8033acd3af97e9423a695e81ad1eb684015592517fd7b6990105719101dabeb77144f2a3385c8033acd3af97e9423a695e81ad1eb790920180549351151560a060020a0274ffffffffffffffffffffffffffffffffffffffffff19909416600160a060020a03939093169290921792909217905593909355505050565b600154600160a060020a03163314610bc95760405160e560020a62461bcd0281526004016105f890611cba565b6005548110610c435760405160e560020a62461bcd02815260206004820152602760248201527f4d696e20616d6f756e74206d757374206265206c657373207468616e206d617860448201527f20616d6f756e740000000000000000000000000000000000000000000000000060648201526084016105f8565b600455565b600154600160a060020a03163314610c755760405160e560020a62461bcd0281526004016105f890611cba565b610c7f6000611578565b565b600c54600160a060020a03163314610cde5760405160e560020a62461bcd02815260206004820152601360248201527f596f7520617265206e6f7420616c6c6f7765640000000000000000000000000060448201526064016105f8565b6000828152600e6020908152604080832080548251818502810185019093528083529192909190830182828015610d3457602002820191906000526020600020905b815481526020019060010190808311610d20575b5050505050905060005b8151811015610da557620186a05a11610d575750505050565b610d93828281518110610d6c57610d6c611da7565b6020026020010151848381518110610d8657610d86611da7565b60200260200101516115d7565b80610d9d81611dc0565b915050610d3e565b50505050565b600154600160a060020a03163314610dd85760405160e560020a62461bcd0281526004016105f890611cba565b6004548111610e525760405160e560020a62461bcd02815260206004820152602a60248201527f4d617820616d6f756e74206d7573742062652067726561746572207468616e2060448201527f6d696e20616d6f756e740000000000000000000000000000000000000000000060648201526084016105f8565b600555565b60008082610e6484610e75565b610e6e9190611d76565b9392505050565b60008061271060075484610e899190611dd9565b610e6e9190611e11565b600154600160a060020a03163314610ec05760405160e560020a62461bcd0281526004016105f890611cba565b6003805474ff000000000000000000000000000000000000000019811660a060020a9182900460ff1615909102179055565b600154600160a060020a03163314610f1f5760405160e560020a62461bcd0281526004016105f890611cba565b60035460a060020a900460ff1615610f4c5760405160e560020a62461bcd0281526004016105f890611cef565b60038054600160a060020a0390921673ffffffffffffffffffffffffffffffffffffffff199283168117909155600c8054909216179055565b600154600160a060020a03163314610fb25760405160e560020a62461bcd0281526004016105f890611cba565b6040517f70a08231000000000000000000000000000000000000000000000000000000008152306004820152600160a060020a038216906370a0823190602401602060405180830381865afa15801561100f573d6000803e3d6000fd5b505050506040513d601f19601f820116820180604052508101906110339190611d8e565b8211156110855760405160e560020a62461bcd02815260206004820152601860248201527f5769746864726177616c2065786365656473206c696d6974000000000000000060448201526064016105f8565b611099600160a060020a0382168484611837565b505050565b600154600160a060020a031633146110cb5760405160e560020a62461bcd0281526004016105f890611cba565b60035460a060020a900460ff16156110f85760405160e560020a62461bcd0281526004016105f890611cef565b600755565b600154600160a060020a0316331461112a5760405160e560020a62461bcd0281526004016105f890611cba565b600855565b6002600054036111545760405160e560020a62461bcd0281526004016105f890611d26565b600260005560035460a060020a900460ff166111b55760405160e560020a62461bcd02815260206004820152601060248201527f47616d65206973206e6f74206c6976650000000000000000000000000000000060448201526064016105f8565b6000600d82815481106111ca576111ca611da7565b6000918252602090912060039091020160018101549091506fffffffffffffffffffffffffffffffff16806112445760405160e560020a62461bcd02815260206004820152601260248201527f42657420646f6573206e6f74206578697374000000000000000000000000000060448201526064016105f8565b600282015460a060020a900460ff16156112a35760405160e560020a62461bcd02815260206004820152601660248201527f42657420697320736574746c656420616c72656164790000000000000000000060448201526064016105f8565b81546112c390650100000000009004600160a860020a0316615460611e25565b600160a860020a0316431161131d5760405160e560020a62461bcd02815260206004820152601d60248201527f57616974206265666f72652072657175657374696e6720726566756e6400000060448201526064016105f8565b600061132882611548565b6002848101805474ff000000000000000000000000000000000000000019811660a060020a179091556001860180546fffffffffffffffffffffffffffffffff87811670010000000000000000000000000000000002911617905590546040517f2363f424000000000000000000000000000000000000000000000000000000008152600160a060020a03928316600482015260248101869052604481018490529293508492911690632363f42490606401600060405180830381600087803b1580156113f457600080fd5b505af1158015611408573d6000803e3d6000fd5b505050506002840154604051828152600160a060020a039091169086907ff22517a5eae9f54be712c3150eca5ba925d233687b223c2ebf89272f12ee08659060200160405180910390a350506001600055505050565b600154600160a060020a0316331461148b5760405160e560020a62461bcd0281526004016105f890611cba565b600655565b600154600160a060020a031633146114bd5760405160e560020a62461bcd0281526004016105f890611cba565b600160a060020a03811661153c5760405160e560020a62461bcd02815260206004820152602660248201527f4f776e61626c653a206e6577206f776e657220697320746865207a65726f206160448201527f646472657373000000000000000000000000000000000000000000000000000060648201526084016105f8565b61154581611578565b50565b6000611555826002611dd9565b92915050565b60006127106008548361156e9190611dd9565b6115559190611e11565b60018054600160a060020a0383811673ffffffffffffffffffffffffffffffffffffffff19831681179093556040519116919082907f8be0079c531659141344cd1fd0a4f28419497f9722a3daafe3b4186f6b6457e090600090a35050565b6002600054036115fc5760405160e560020a62461bcd0281526004016105f890611d26565b60026000908155600d80548490811061161757611617611da7565b6000918252602090912060039091020160018101549091506fffffffffffffffffffffffffffffffff1680158061165e5750600282015460a060020a900460ff1615156001145b1561166a57505061182e565b6002820154600160a060020a03166000611685606486611e50565b90506032600061169485611548565b905060008284116116a65760006116a8565b815b6002888101805474ff0000000000000000000000000000000000000000191660a060020a1790556001890180546fffffffffffffffffffffffffffffffff848116700100000000000000000000000000000000029116179055885464ffffffffff871664ffffffffff19909116178955546040517fe4339393000000000000000000000000000000000000000000000000000000008152600160a060020a03888116600483015260248201869052831515604483015292935091169063e433939390606401600060405180830381600087803b15801561178757600080fd5b505af115801561179b573d6000803e3d6000fd5b5050505060008111156117c257600980549060006117b883611dc0565b91905055506117d8565b600a80549060006117d283611dc0565b91905055505b6040805187815260208101869052908101829052600160a060020a038616908a907f9c82d7344d8445732abd645cab8c53a73ce4ab527fb6786b1f0c3d2f5d168e099060600160405180910390a3505050505050505b50506001600055565b60408051600160a060020a03848116602483015260448083018590528351808403909101815260649092018352602080830180517bffffffffffffffffffffffffffffffffffffffffffffffffffffffff167fa9059cbb0000000000000000000000000000000000000000000000000000000017905283518085019094528084527f5361666545524332303a206c6f772d6c6576656c2063616c6c206661696c656490840152611099928692916000916118f5918516908490611988565b80519091501561109957808060200190518101906119139190611e64565b6110995760405160e560020a62461bcd02815260206004820152602a60248201527f5361666545524332303a204552433230206f7065726174696f6e20646964206e60448201527f6f7420737563636565640000000000000000000000000000000000000000000060648201526084016105f8565b6060611997848460008561199f565b949350505050565b60603031831115611a1b5760405160e560020a62461bcd02815260206004820152602660248201527f416464726573733a20696e73756666696369656e742062616c616e636520666f60448201527f722063616c6c000000000000000000000000000000000000000000000000000060648201526084016105f8565b600160a060020a0385163b611a755760405160e560020a62461bcd02815260206004820152601d60248201527f416464726573733a2063616c6c20746f206e6f6e2d636f6e747261637400000060448201526064016105f8565b60008086600160a060020a03168587604051611a919190611eb2565b60006040518083038185875af1925050503d8060008114611ace576040519150601f19603f3d011682016040523d82523d6000602084013e611ad3565b606091505b5091509150611ae3828286611aee565b979650505050505050565b60608315611afd575081610e6e565b825115611b0d5782518084602001fd5b8160405160e560020a62461bcd0281526004016105f89190611ece565b8035600160a060020a0381168114611b4157600080fd5b919050565b600060208284031215611b5857600080fd5b610e6e82611b2a565b600060208284031215611b7357600080fd5b5035919050565b60008060408385031215611b8d57600080fd5b50508035926020909101359150565b60e060020a634e487b7102600052604160045260246000fd5b60008060408385031215611bc857600080fd5b8235915060208084013567ffffffffffffffff80821115611be857600080fd5b818601915086601f830112611bfc57600080fd5b813581811115611c0e57611c0e611b9c565b838102604051601f19603f83011681018181108582111715611c3257611c32611b9c565b604052918252848201925083810185019189831115611c5057600080fd5b938501935b82851015611c6e57843584529385019392850192611c55565b8096505050505050509250929050565b600080600060608486031215611c9357600080fd5b611c9c84611b2a565b925060208401359150611cb160408501611b2a565b90509250925092565b6020808252818101527f4f776e61626c653a2063616c6c6572206973206e6f7420746865206f776e6572604082015260600190565b6020808252600f908201527f4265747320696e2070656e64696e670000000000000000000000000000000000604082015260600190565b6020808252601f908201527f5265656e7472616e637947756172643a207265656e7472616e742063616c6c00604082015260600190565b60e060020a634e487b7102600052601160045260246000fd5b60008219821115611d8957611d89611d5d565b500190565b600060208284031215611da057600080fd5b5051919050565b60e060020a634e487b7102600052603260045260246000fd5b600060018201611dd257611dd2611d5d565b5060010190565b6000816000190483118215151615611df357611df3611d5d565b500290565b60e060020a634e487b7102600052601260045260246000fd5b600082611e2057611e20611df8565b500490565b6000600160a860020a03808316818516808303821115611e4757611e47611d5d565b01949350505050565b600082611e5f57611e5f611df8565b500690565b600060208284031215611e7657600080fd5b81518015158114610e6e57600080fd5b60005b83811015611ea1578181015183820152602001611e89565b83811115610da55750506000910152565b60008251611ec4818460208701611e86565b9190910192915050565b6020815260008251806020840152611eed816040850160208701611e86565b601f01601f1916919091016040019291505056fea2646970667358221220f75a77b03741363778ba3b627e40b358f82d7f65c67fd71a1b9444f323884ce764736f6c634300080d0033",
  "immutableReferences": {},
  "source": "/**\r\n *Submitted for verification at polygonscan.com on 2022-05-23\r\n*/\r\n\r\n// File: @openzeppelin/contracts/utils/Context.sol\r\n\r\n\r\n// OpenZeppelin Contracts v4.4.1 (utils/Context.sol)\r\n\r\npragma solidity ^0.8.0;\r\n\r\n/**\r\n * @dev Provides information about the current execution context, including the\r\n * sender of the transaction and its data. While these are generally available\r\n * via msg.sender and msg.data, they should not be accessed in such a direct\r\n * manner, since when dealing with meta-transactions the account sending and\r\n * paying for execution may not be the actual sender (as far as an application\r\n * is concerned).\r\n *\r\n * This contract is only required for intermediate, library-like contracts.\r\n */\r\nabstract contract Context {\r\n    function _msgSender() internal view virtual returns (address) {\r\n        return msg.sender;\r\n    }\r\n\r\n    function _msgData() internal view virtual returns (bytes calldata) {\r\n        return msg.data;\r\n    }\r\n}\r\n\r\n// File: @openzeppelin/contracts/access/Ownable.sol\r\n\r\n\r\n// OpenZeppelin Contracts v4.4.1 (access/Ownable.sol)\r\n\r\npragma solidity ^0.8.0;\r\n\r\n\r\n/**\r\n * @dev Contract module which provides a basic access control mechanism, where\r\n * there is an account (an owner) that can be granted exclusive access to\r\n * specific functions.\r\n *\r\n * By default, the owner account will be the one that deploys the contract. This\r\n * can later be changed with {transferOwnership}.\r\n *\r\n * This module is used through inheritance. It will make available the modifier\r\n * `onlyOwner`, which can be applied to your functions to restrict their use to\r\n * the owner.\r\n */\r\nabstract contract Ownable is Context {\r\n    address private _owner;\r\n\r\n    event OwnershipTransferred(address indexed previousOwner, address indexed newOwner);\r\n\r\n    /**\r\n     * @dev Initializes the contract setting the deployer as the initial owner.\r\n     */\r\n    constructor() {\r\n        _transferOwnership(_msgSender());\r\n    }\r\n\r\n    /**\r\n     * @dev Returns the address of the current owner.\r\n     */\r\n    function owner() public view virtual returns (address) {\r\n        return _owner;\r\n    }\r\n\r\n    /**\r\n     * @dev Throws if called by any account other than the owner.\r\n     */\r\n    modifier onlyOwner() {\r\n        require(owner() == _msgSender(), \"Ownable: caller is not the owner\");\r\n        _;\r\n    }\r\n\r\n    /**\r\n     * @dev Leaves the contract without owner. It will not be possible to call\r\n     * `onlyOwner` functions anymore. Can only be called by the current owner.\r\n     *\r\n     * NOTE: Renouncing ownership will leave the contract without an owner,\r\n     * thereby removing any functionality that is only available to the owner.\r\n     */\r\n    function renounceOwnership() public virtual onlyOwner {\r\n        _transferOwnership(address(0));\r\n    }\r\n\r\n    /**\r\n     * @dev Transfers ownership of the contract to a new account (`newOwner`).\r\n     * Can only be called by the current owner.\r\n     */\r\n    function transferOwnership(address newOwner) public virtual onlyOwner {\r\n        require(newOwner != address(0), \"Ownable: new owner is the zero address\");\r\n        _transferOwnership(newOwner);\r\n    }\r\n\r\n    /**\r\n     * @dev Transfers ownership of the contract to a new account (`newOwner`).\r\n     * Internal function without access restriction.\r\n     */\r\n    function _transferOwnership(address newOwner) internal virtual {\r\n        address oldOwner = _owner;\r\n        _owner = newOwner;\r\n        emit OwnershipTransferred(oldOwner, newOwner);\r\n    }\r\n}\r\n\r\n// File: @openzeppelin/contracts/utils/Address.sol\r\n\r\n\r\n// OpenZeppelin Contracts (last updated v4.5.0) (utils/Address.sol)\r\n\r\npragma solidity ^0.8.1;\r\n\r\n/**\r\n * @dev Collection of functions related to the address type\r\n */\r\nlibrary Address {\r\n    /**\r\n     * @dev Returns true if `account` is a contract.\r\n     *\r\n     * [IMPORTANT]\r\n     * ====\r\n     * It is unsafe to assume that an address for which this function returns\r\n     * false is an externally-owned account (EOA) and not a contract.\r\n     *\r\n     * Among others, `isContract` will return false for the following\r\n     * types of addresses:\r\n     *\r\n     *  - an externally-owned account\r\n     *  - a contract in construction\r\n     *  - an address where a contract will be created\r\n     *  - an address where a contract lived, but was destroyed\r\n     * ====\r\n     *\r\n     * [IMPORTANT]\r\n     * ====\r\n     * You shouldn't rely on `isContract` to protect against flash loan attacks!\r\n     *\r\n     * Preventing calls from contracts is highly discouraged. It breaks composability, breaks support for smart wallets\r\n     * like Gnosis Safe, and does not provide security since it can be circumvented by calling from a contract\r\n     * constructor.\r\n     * ====\r\n     */\r\n    function isContract(address account) internal view returns (bool) {\r\n        // This method relies on extcodesize/address.code.length, which returns 0\r\n        // for contracts in construction, since the code is only stored at the end\r\n        // of the constructor execution.\r\n\r\n        return account.code.length > 0;\r\n    }\r\n\r\n    /**\r\n     * @dev Replacement for Solidity's `transfer`: sends `amount` wei to\r\n     * `recipient`, forwarding all available gas and reverting on errors.\r\n     *\r\n     * https://eips.ethereum.org/EIPS/eip-1884[EIP1884] increases the gas cost\r\n     * of certain opcodes, possibly making contracts go over the 2300 gas limit\r\n     * imposed by `transfer`, making them unable to receive funds via\r\n     * `transfer`. {sendValue} removes this limitation.\r\n     *\r\n     * https://diligence.consensys.net/posts/2019/09/stop-using-soliditys-transfer-now/[Learn more].\r\n     *\r\n     * IMPORTANT: because control is transferred to `recipient`, care must be\r\n     * taken to not create reentrancy vulnerabilities. Consider using\r\n     * {ReentrancyGuard} or the\r\n     * https://solidity.readthedocs.io/en/v0.5.11/security-considerations.html#use-the-checks-effects-interactions-pattern[checks-effects-interactions pattern].\r\n     */\r\n    function sendValue(address payable recipient, uint256 amount) internal {\r\n        require(address(this).balance >= amount, \"Address: insufficient balance\");\r\n\r\n        (bool success, ) = recipient.call{value: amount}(\"\");\r\n        require(success, \"Address: unable to send value, recipient may have reverted\");\r\n    }\r\n\r\n    /**\r\n     * @dev Performs a Solidity function call using a low level `call`. A\r\n     * plain `call` is an unsafe replacement for a function call: use this\r\n     * function instead.\r\n     *\r\n     * If `target` reverts with a revert reason, it is bubbled up by this\r\n     * function (like regular Solidity function calls).\r\n     *\r\n     * Returns the raw returned data. To convert to the expected return value,\r\n     * use https://solidity.readthedocs.io/en/latest/units-and-global-variables.html?highlight=abi.decode#abi-encoding-and-decoding-functions[`abi.decode`].\r\n     *\r\n     * Requirements:\r\n     *\r\n     * - `target` must be a contract.\r\n     * - calling `target` with `data` must not revert.\r\n     *\r\n     * _Available since v3.1._\r\n     */\r\n    function functionCall(address target, bytes memory data) internal returns (bytes memory) {\r\n        return functionCall(target, data, \"Address: low-level call failed\");\r\n    }\r\n\r\n    /**\r\n     * @dev Same as {xref-Address-functionCall-address-bytes-}[`functionCall`], but with\r\n     * `errorMessage` as a fallback revert reason when `target` reverts.\r\n     *\r\n     * _Available since v3.1._\r\n     */\r\n    function functionCall(\r\n        address target,\r\n        bytes memory data,\r\n        string memory errorMessage\r\n    ) internal returns (bytes memory) {\r\n        return functionCallWithValue(target, data, 0, errorMessage);\r\n    }\r\n\r\n    /**\r\n     * @dev Same as {xref-Address-functionCall-address-bytes-}[`functionCall`],\r\n     * but also transferring `value` wei to `target`.\r\n     *\r\n     * Requirements:\r\n     *\r\n     * - the calling contract must have an ETH balance of at least `value`.\r\n     * - the called Solidity function must be `payable`.\r\n     *\r\n     * _Available since v3.1._\r\n     */\r\n    function functionCallWithValue(\r\n        address target,\r\n        bytes memory data,\r\n        uint256 value\r\n    ) internal returns (bytes memory) {\r\n        return functionCallWithValue(target, data, value, \"Address: low-level call with value failed\");\r\n    }\r\n\r\n    /**\r\n     * @dev Same as {xref-Address-functionCallWithValue-address-bytes-uint256-}[`functionCallWithValue`], but\r\n     * with `errorMessage` as a fallback revert reason when `target` reverts.\r\n     *\r\n     * _Available since v3.1._\r\n     */\r\n    function functionCallWithValue(\r\n        address target,\r\n        bytes memory data,\r\n        uint256 value,\r\n        string memory errorMessage\r\n    ) internal returns (bytes memory) {\r\n        require(address(this).balance >= value, \"Address: insufficient balance for call\");\r\n        require(isContract(target), \"Address: call to non-contract\");\r\n\r\n        (bool success, bytes memory returndata) = target.call{value: value}(data);\r\n        return verifyCallResult(success, returndata, errorMessage);\r\n    }\r\n\r\n    /**\r\n     * @dev Same as {xref-Address-functionCall-address-bytes-}[`functionCall`],\r\n     * but performing a static call.\r\n     *\r\n     * _Available since v3.3._\r\n     */\r\n    function functionStaticCall(address target, bytes memory data) internal view returns (bytes memory) {\r\n        return functionStaticCall(target, data, \"Address: low-level static call failed\");\r\n    }\r\n\r\n    /**\r\n     * @dev Same as {xref-Address-functionCall-address-bytes-string-}[`functionCall`],\r\n     * but performing a static call.\r\n     *\r\n     * _Available since v3.3._\r\n     */\r\n    function functionStaticCall(\r\n        address target,\r\n        bytes memory data,\r\n        string memory errorMessage\r\n    ) internal view returns (bytes memory) {\r\n        require(isContract(target), \"Address: static call to non-contract\");\r\n\r\n        (bool success, bytes memory returndata) = target.staticcall(data);\r\n        return verifyCallResult(success, returndata, errorMessage);\r\n    }\r\n\r\n    /**\r\n     * @dev Same as {xref-Address-functionCall-address-bytes-}[`functionCall`],\r\n     * but performing a delegate call.\r\n     *\r\n     * _Available since v3.4._\r\n     */\r\n    function functionDelegateCall(address target, bytes memory data) internal returns (bytes memory) {\r\n        return functionDelegateCall(target, data, \"Address: low-level delegate call failed\");\r\n    }\r\n\r\n    /**\r\n     * @dev Same as {xref-Address-functionCall-address-bytes-string-}[`functionCall`],\r\n     * but performing a delegate call.\r\n     *\r\n     * _Available since v3.4._\r\n     */\r\n    function functionDelegateCall(\r\n        address target,\r\n        bytes memory data,\r\n        string memory errorMessage\r\n    ) internal returns (bytes memory) {\r\n        require(isContract(target), \"Address: delegate call to non-contract\");\r\n\r\n        (bool success, bytes memory returndata) = target.delegatecall(data);\r\n        return verifyCallResult(success, returndata, errorMessage);\r\n    }\r\n\r\n    /**\r\n     * @dev Tool to verifies that a low level call was successful, and revert if it wasn't, either by bubbling the\r\n     * revert reason using the provided one.\r\n     *\r\n     * _Available since v4.3._\r\n     */\r\n    function verifyCallResult(\r\n        bool success,\r\n        bytes memory returndata,\r\n        string memory errorMessage\r\n    ) internal pure returns (bytes memory) {\r\n        if (success) {\r\n            return returndata;\r\n        } else {\r\n            // Look for revert reason and bubble it up if present\r\n            if (returndata.length > 0) {\r\n                // The easiest way to bubble the revert reason is using memory via assembly\r\n\r\n                assembly {\r\n                    let returndata_size := mload(returndata)\r\n                    revert(add(32, returndata), returndata_size)\r\n                }\r\n            } else {\r\n                revert(errorMessage);\r\n            }\r\n        }\r\n    }\r\n}\r\n\r\n// File: @openzeppelin/contracts/token/ERC20/IERC20.sol\r\n\r\n\r\n// OpenZeppelin Contracts (last updated v4.6.0) (token/ERC20/IERC20.sol)\r\n\r\npragma solidity ^0.8.0;\r\n\r\n/**\r\n * @dev Interface of the ERC20 standard as defined in the EIP.\r\n */\r\ninterface IERC20 {\r\n    /**\r\n     * @dev Emitted when `value` tokens are moved from one account (`from`) to\r\n     * another (`to`).\r\n     *\r\n     * Note that `value` may be zero.\r\n     */\r\n    event Transfer(address indexed from, address indexed to, uint256 value);\r\n\r\n    /**\r\n     * @dev Emitted when the allowance of a `spender` for an `owner` is set by\r\n     * a call to {approve}. `value` is the new allowance.\r\n     */\r\n    event Approval(address indexed owner, address indexed spender, uint256 value);\r\n\r\n    /**\r\n     * @dev Returns the amount of tokens in existence.\r\n     */\r\n    function totalSupply() external view returns (uint256);\r\n\r\n    /**\r\n     * @dev Returns the amount of tokens owned by `account`.\r\n     */\r\n    function balanceOf(address account) external view returns (uint256);\r\n\r\n    /**\r\n     * @dev Moves `amount` tokens from the caller's account to `to`.\r\n     *\r\n     * Returns a boolean value indicating whether the operation succeeded.\r\n     *\r\n     * Emits a {Transfer} event.\r\n     */\r\n    function transfer(address to, uint256 amount) external returns (bool);\r\n\r\n    /**\r\n     * @dev Returns the remaining number of tokens that `spender` will be\r\n     * allowed to spend on behalf of `owner` through {transferFrom}. This is\r\n     * zero by default.\r\n     *\r\n     * This value changes when {approve} or {transferFrom} are called.\r\n     */\r\n    function allowance(address owner, address spender) external view returns (uint256);\r\n\r\n    /**\r\n     * @dev Sets `amount` as the allowance of `spender` over the caller's tokens.\r\n     *\r\n     * Returns a boolean value indicating whether the operation succeeded.\r\n     *\r\n     * IMPORTANT: Beware that changing an allowance with this method brings the risk\r\n     * that someone may use both the old and the new allowance by unfortunate\r\n     * transaction ordering. One possible solution to mitigate this race\r\n     * condition is to first reduce the spender's allowance to 0 and set the\r\n     * desired value afterwards:\r\n     * https://github.com/ethereum/EIPs/issues/20#issuecomment-263524729\r\n     *\r\n     * Emits an {Approval} event.\r\n     */\r\n    function approve(address spender, uint256 amount) external returns (bool);\r\n\r\n    /**\r\n     * @dev Moves `amount` tokens from `from` to `to` using the\r\n     * allowance mechanism. `amount` is then deducted from the caller's\r\n     * allowance.\r\n     *\r\n     * Returns a boolean value indicating whether the operation succeeded.\r\n     *\r\n     * Emits a {Transfer} event.\r\n     */\r\n    function transferFrom(\r\n        address from,\r\n        address to,\r\n        uint256 amount\r\n    ) external returns (bool);\r\n}\r\n\r\n// File: @openzeppelin/contracts/token/ERC20/utils/SafeERC20.sol\r\n\r\n\r\n// OpenZeppelin Contracts v4.4.1 (token/ERC20/utils/SafeERC20.sol)\r\n\r\npragma solidity ^0.8.0;\r\n\r\n\r\n\r\n/**\r\n * @title SafeERC20\r\n * @dev Wrappers around ERC20 operations that throw on failure (when the token\r\n * contract returns false). Tokens that return no value (and instead revert or\r\n * throw on failure) are also supported, non-reverting calls are assumed to be\r\n * successful.\r\n * To use this library you can add a `using SafeERC20 for IERC20;` statement to your contract,\r\n * which allows you to call the safe operations as `token.safeTransfer(...)`, etc.\r\n */\r\nlibrary SafeERC20 {\r\n    using Address for address;\r\n\r\n    function safeTransfer(\r\n        IERC20 token,\r\n        address to,\r\n        uint256 value\r\n    ) internal {\r\n        _callOptionalReturn(token, abi.encodeWithSelector(token.transfer.selector, to, value));\r\n    }\r\n\r\n    function safeTransferFrom(\r\n        IERC20 token,\r\n        address from,\r\n        address to,\r\n        uint256 value\r\n    ) internal {\r\n        _callOptionalReturn(token, abi.encodeWithSelector(token.transferFrom.selector, from, to, value));\r\n    }\r\n\r\n    /**\r\n     * @dev Deprecated. This function has issues similar to the ones found in\r\n     * {IERC20-approve}, and its usage is discouraged.\r\n     *\r\n     * Whenever possible, use {safeIncreaseAllowance} and\r\n     * {safeDecreaseAllowance} instead.\r\n     */\r\n    function safeApprove(\r\n        IERC20 token,\r\n        address spender,\r\n        uint256 value\r\n    ) internal {\r\n        // safeApprove should only be called when setting an initial allowance,\r\n        // or when resetting it to zero. To increase and decrease it, use\r\n        // 'safeIncreaseAllowance' and 'safeDecreaseAllowance'\r\n        require(\r\n            (value == 0) || (token.allowance(address(this), spender) == 0),\r\n            \"SafeERC20: approve from non-zero to non-zero allowance\"\r\n        );\r\n        _callOptionalReturn(token, abi.encodeWithSelector(token.approve.selector, spender, value));\r\n    }\r\n\r\n    function safeIncreaseAllowance(\r\n        IERC20 token,\r\n        address spender,\r\n        uint256 value\r\n    ) internal {\r\n        uint256 newAllowance = token.allowance(address(this), spender) + value;\r\n        _callOptionalReturn(token, abi.encodeWithSelector(token.approve.selector, spender, newAllowance));\r\n    }\r\n\r\n    function safeDecreaseAllowance(\r\n        IERC20 token,\r\n        address spender,\r\n        uint256 value\r\n    ) internal {\r\n        unchecked {\r\n            uint256 oldAllowance = token.allowance(address(this), spender);\r\n            require(oldAllowance >= value, \"SafeERC20: decreased allowance below zero\");\r\n            uint256 newAllowance = oldAllowance - value;\r\n            _callOptionalReturn(token, abi.encodeWithSelector(token.approve.selector, spender, newAllowance));\r\n        }\r\n    }\r\n\r\n    /**\r\n     * @dev Imitates a Solidity high-level call (i.e. a regular function call to a contract), relaxing the requirement\r\n     * on the return value: the return value is optional (but if data is returned, it must not be false).\r\n     * @param token The token targeted by the call.\r\n     * @param data The call data (encoded using abi.encode or one of its variants).\r\n     */\r\n    function _callOptionalReturn(IERC20 token, bytes memory data) private {\r\n        // We need to perform a low level call here, to bypass Solidity's return data size checking mechanism, since\r\n        // we're implementing it ourselves. We use {Address.functionCall} to perform this call, which verifies that\r\n        // the target address contains contract code and also asserts for success in the low-level call.\r\n\r\n        bytes memory returndata = address(token).functionCall(data, \"SafeERC20: low-level call failed\");\r\n        if (returndata.length > 0) {\r\n            // Return data is optional\r\n            require(abi.decode(returndata, (bool)), \"SafeERC20: ERC20 operation did not succeed\");\r\n        }\r\n    }\r\n}\r\n\r\n// File: contracts/abstract/Manager.sol\r\n\r\n\r\npragma solidity 0.8.13;\r\n\r\n\r\n\r\ninterface IHouse {\r\n    function placeBet( uint amount, uint winnableAmount, uint fee, uint nftHolderRewardsAmount) payable external;\r\n    function settleBet(address player, uint winnableAmount, bool win) external;\r\n    function refundBet(address player, uint amount, uint winnableAmount) external;\r\n}\r\n\r\ninterface IVRFManager {\r\n    function sendRequestRandomness() external returns (bytes32);\r\n}\r\n\r\n\r\nabstract contract Manager is Ownable {\r\n    using SafeERC20 for IERC20;\r\n    IHouse house;\r\n    IVRFManager VRFManager;\r\n\r\n    // Variables\r\n    bool public gameIsLive;\r\n    uint public minBetAmount = 1 ether;\r\n    uint public maxBetAmount = 50 ether;\r\n    uint public maxCoinsBettable = 1;\r\n    uint public houseEdgeBP = 350;\r\n    uint public nftHoldersRewardsBP = 7500;\r\n    uint public totalWins;\r\n    uint public totalLosses;\r\n    uint public totalVolume;\r\n\r\n    address public VRFManagerAddress;\r\n\r\n    struct Bet {\r\n        //ever one\r\n        //uint40 choice;\r\n        uint40 outcome;\r\n        uint168 placeBlockNumber;\r\n        uint128 amount;\r\n        uint128 winAmount;\r\n        address player;\r\n        bool isSettled;\r\n    }\r\n\r\n    Bet[] public bets;\r\n    mapping(bytes32 => uint[]) public betMap;\r\n\r\n    modifier isVRFManager {\r\n        require(VRFManagerAddress == msg.sender, \"You are not allowed\");\r\n        _;\r\n    }\r\n\r\n    function betsLength() external view returns (uint) {\r\n        return bets.length;\r\n    }\r\n\r\n    // Events\r\n    event BetPlaced(uint indexed betId, address indexed player, uint amount);\r\n    event Play(uint indexed betId, address indexed player, uint amount, uint outcome, uint winAmount);\r\n    event BetRefunded(uint indexed betId, address indexed player, uint amount);\r\n\r\n    // Setter\r\n    function setMaxCoinsBettable(uint _maxCoinsBettable) external onlyOwner {\r\n        maxCoinsBettable = _maxCoinsBettable;\r\n    }\r\n\r\n    function setMinBetAmount(uint _minBetAmount) external onlyOwner {\r\n        require(_minBetAmount < maxBetAmount, \"Min amount must be less than max amount\");\r\n        minBetAmount = _minBetAmount;\r\n    }\r\n\r\n    function setMaxBetAmount(uint _maxBetAmount) external onlyOwner {\r\n        require(_maxBetAmount > minBetAmount, \"Max amount must be greater than min amount\");\r\n        maxBetAmount = _maxBetAmount;\r\n    }\r\n\r\n    function setHouseEdgeBP(uint _houseEdgeBP) external onlyOwner {\r\n        require(gameIsLive == false, \"Bets in pending\");\r\n        houseEdgeBP = _houseEdgeBP;\r\n    }\r\n\r\n    function setNftHoldersRewardsBP(uint _nftHoldersRewardsBP) external onlyOwner {\r\n        nftHoldersRewardsBP = _nftHoldersRewardsBP;\r\n    }\r\n\r\n    function toggleGameIsLive() external onlyOwner {\r\n        gameIsLive = !gameIsLive;\r\n    }\r\n\r\n    // Converters\r\n    function amountToBettableAmountConverter(uint amount) internal view returns(uint) {\r\n        return amount * (10000 - houseEdgeBP) / 10000;\r\n    }\r\n\r\n    function amountToNftHoldersRewardsConverter(uint _amount) internal view returns (uint) {\r\n        return _amount * nftHoldersRewardsBP / 10000;\r\n    }\r\n\r\n    function amountToWinnableAmount(uint _amount) internal view returns (uint) {\r\n        return _amount * 2 ;\r\n    }\r\n\r\n    // Methods\r\n    function initializeHouse(address _address) external onlyOwner {\r\n        require(gameIsLive == false, \"Bets in pending\");\r\n        house = IHouse(_address);\r\n    }\r\n\r\n    function initializeVRFManager(address _address) external onlyOwner {\r\n        require(gameIsLive == false, \"Bets in pending\");\r\n        VRFManager = IVRFManager(_address);\r\n        VRFManagerAddress = _address;\r\n    }\r\n\r\n    function withdrawCustomTokenFunds(address beneficiary, uint withdrawAmount, address token) external onlyOwner {\r\n        require(withdrawAmount <= IERC20(token).balanceOf(address(this)), \"Withdrawal exceeds limit\");\r\n        IERC20(token).safeTransfer(beneficiary, withdrawAmount);\r\n    }\r\n\r\n\r\n\r\n    //MY integrations\r\n    function calculateFee(uint _value)public view returns(uint){\r\n        uint txFee = _value * houseEdgeBP / 10000;\r\n        return txFee;\r\n    }\r\n\r\n    function calculateValue(uint _value)public view returns(uint){\r\n        uint totalValue = calculateFee(_value) + _value;\r\n        return totalValue;\r\n    }\r\n\r\n    \r\n}\r\n\r\n// File: @openzeppelin/contracts/security/ReentrancyGuard.sol\r\n\r\n\r\n// OpenZeppelin Contracts v4.4.1 (security/ReentrancyGuard.sol)\r\n\r\npragma solidity ^0.8.0;\r\n\r\n/**\r\n * @dev Contract module that helps prevent reentrant calls to a function.\r\n *\r\n * Inheriting from `ReentrancyGuard` will make the {nonReentrant} modifier\r\n * available, which can be applied to functions to make sure there are no nested\r\n * (reentrant) calls to them.\r\n *\r\n * Note that because there is a single `nonReentrant` guard, functions marked as\r\n * `nonReentrant` may not call one another. This can be worked around by making\r\n * those functions `private`, and then adding `external` `nonReentrant` entry\r\n * points to them.\r\n *\r\n * TIP: If you would like to learn more about reentrancy and alternative ways\r\n * to protect against it, check out our blog post\r\n * https://blog.openzeppelin.com/reentrancy-after-istanbul/[Reentrancy After Istanbul].\r\n */\r\nabstract contract ReentrancyGuard {\r\n    // Booleans are more expensive than uint256 or any type that takes up a full\r\n    // word because each write operation emits an extra SLOAD to first read the\r\n    // slot's contents, replace the bits taken up by the boolean, and then write\r\n    // back. This is the compiler's defense against contract upgrades and\r\n    // pointer aliasing, and it cannot be disabled.\r\n\r\n    // The values being non-zero value makes deployment a bit more expensive,\r\n    // but in exchange the refund on every call to nonReentrant will be lower in\r\n    // amount. Since refunds are capped to a percentage of the total\r\n    // transaction's gas, it is best to keep them low in cases like this one, to\r\n    // increase the likelihood of the full refund coming into effect.\r\n    uint256 private constant _NOT_ENTERED = 1;\r\n    uint256 private constant _ENTERED = 2;\r\n\r\n    uint256 private _status;\r\n\r\n    constructor() {\r\n        _status = _NOT_ENTERED;\r\n    }\r\n\r\n    /**\r\n     * @dev Prevents a contract from calling itself, directly or indirectly.\r\n     * Calling a `nonReentrant` function from another `nonReentrant`\r\n     * function is not supported. It is possible to prevent this from happening\r\n     * by making the `nonReentrant` function external, and making it call a\r\n     * `private` function that does the actual work.\r\n     */\r\n    modifier nonReentrant() {\r\n        // On the first call to nonReentrant, _notEntered will be true\r\n        require(_status != _ENTERED, \"ReentrancyGuard: reentrant call\");\r\n\r\n        // Any calls to nonReentrant after this point will fail\r\n        _status = _ENTERED;\r\n\r\n        _;\r\n\r\n        // By storing the original value once again, a refund is triggered (see\r\n        // https://eips.ethereum.org/EIPS/eip-2200)\r\n        _status = _NOT_ENTERED;\r\n    }\r\n}\r\n\r\n// File: contracts/santaFlipers.sol\r\n\r\n\r\npragma solidity 0.8.13;\r\n\r\n\r\n\r\ncontract Santaflip is ReentrancyGuard, Manager {\r\n\r\n    function play(uint _value) external payable nonReentrant {        \r\n        require(gameIsLive, \"Game is not live\");       \r\n        uint fee = calculateFee(_value); \r\n        uint amount = msg.value;              \r\n        //revisar este require\r\n        require(amount >= minBetAmount && amount <= maxBetAmount, \"Bet amount not within range\");\r\n        require( (_value+fee) == amount, \"Error: amount != value + fee\");\r\n        //retorna (_value*2);\r\n        uint winnableAmount = amountToWinnableAmount(_value);        \r\n        uint nftHolderRewardsAmount = amountToNftHoldersRewardsConverter(fee);\r\n        \r\n        house.placeBet{value: msg.value}(amount, winnableAmount, fee, nftHolderRewardsAmount);\r\n\r\n        uint betId = bets.length;\r\n        betMap[VRFManager.sendRequestRandomness()].push(betId);\r\n        totalVolume += amount;\r\n        \r\n        emit BetPlaced(betId, msg.sender, _value);   \r\n        bets.push(Bet({\r\n            outcome: 0,\r\n            placeBlockNumber: uint168(block.number),\r\n            amount: uint128(_value),\r\n            winAmount: 0,\r\n            player: msg.sender,\r\n            isSettled: false\r\n        }));\r\n    }\r\n\r\n    function settleBet(bytes32 requestId, uint256[] memory expandedValues) external isVRFManager {\r\n        uint[] memory pendingBetIds = betMap[requestId];\r\n        uint i;\r\n        for (i = 0; i < pendingBetIds.length; i++) {\r\n            // The VRFManager is optimized to prevent this from happening, this check is just to make sure that if it happens the tx will not be reverted, if this result is true the bet will be refunded manually later\r\n            if (gasleft() <= 100000) {\r\n                return;\r\n            }\r\n            // The pendingbets are always <= than the expandedValues\r\n            _settleBet(pendingBetIds[i], expandedValues[i]);\r\n        }\r\n    }\r\n\r\n    function _settleBet(uint betId, uint256 randomNumber) private nonReentrant {\r\n        Bet storage bet = bets[betId];\r\n\r\n        uint amount = bet.amount;\r\n        if (amount == 0 || bet.isSettled == true) {\r\n            return;\r\n        }\r\n        address player = bet.player;\r\n        \r\n        uint outcome = randomNumber % (100);    \r\n        uint winNum = 50;\r\n        uint winnableAmount = amountToWinnableAmount(amount);\r\n        uint winAmount = outcome > winNum ? winnableAmount : 0;\r\n\r\n        bet.isSettled = true;\r\n        bet.winAmount = uint128(winAmount);\r\n        bet.outcome = uint40(outcome);\r\n\r\n        house.settleBet(player, winnableAmount, winAmount > 0);\r\n\r\n        if(winAmount > 0){\r\n            totalWins++;\r\n        }else{\r\n            totalLosses++;\r\n        }\r\n\r\n        emit Play(betId, player, amount, outcome, winAmount);\r\n    }\r\n\r\n    function refundBet(uint betId) external nonReentrant {\r\n        require(gameIsLive, \"Game is not live\");        \r\n        Bet storage bet = bets[betId];\r\n        uint amount = bet.amount;\r\n\r\n        require(amount > 0, \"Bet does not exist\");\r\n        require(bet.isSettled == false, \"Bet is settled already\");\r\n        require(block.number > bet.placeBlockNumber + 21600, \"Wait before requesting refund\");\r\n\r\n        uint winnableAmount = amountToWinnableAmount(amount);\r\n        uint bettedAmount = amount;\r\n        \r\n        bet.isSettled = true;\r\n        bet.winAmount = uint128(bettedAmount);\r\n        \r\n        house.refundBet(bet.player, bettedAmount, winnableAmount);\r\n        emit BetRefunded(betId, bet.player, bettedAmount);\r\n    }\r\n}",
  "sourcePath": "C:\\Users\\Admin\\Desktop\\FaucetProyect\\contracts\\Santaflip.sol",
  "compiler": {
    "name": "solc",
    "version": "0.8.13+commit.abaa5c0e.Emscripten.clang"
  },
  "schemaVersion": "3.4.7",
  "updatedAt": "2022-05-24T13:27:13.948Z",
  "devdoc": {
    "kind": "dev",
    "methods": {
      "owner()": {
        "details": "Returns the address of the current owner."
      },
      "renounceOwnership()": {
        "details": "Leaves the contract without owner. It will not be possible to call `onlyOwner` functions anymore. Can only be called by the current owner. NOTE: Renouncing ownership will leave the contract without an owner, thereby removing any functionality that is only available to the owner."
      },
      "transferOwnership(address)": {
        "details": "Transfers ownership of the contract to a new account (`newOwner`). Can only be called by the current owner."
      }
    },
    "version": 1
  },
  "userdoc": {
    "kind": "user",
    "methods": {},
    "version": 1
  }
}